:020000040000FA
:1000000000010020010100000501000007010000BF
:1000100009010000090100000901000000000000C2
:1000200000000000000000000000000009010000C6
:1000300009010000000000000901000009010000A2
:100040000901000009010000090100000901000088
:100050000901000009010000090100000901000078
:100060000901000009010000090100000901000068
:100070000901000009010000090100000901000058
:100080000901000009010000090100000901000048
:100090000901000009010000090100000901000038
:1000A0000901000009010000090100000901000028
:1000B0000901000009010000090100000901000018
:1000C0000901000009010000090100000901000008
:1000D00009010000090100000901000009010000F8
:1000E00009010000090100000901000009010000E8
:1000F00009010000090100000901000009010000D8
:1001000000F004B8FEE7FEE7FEE70000DFF80CD0E1
:1001100000F01AF800480047090200000001002022
:10012000EFF3108072B67047EFF310807047EFF373
:10013000108062B6704730BF704780F311887047F7
:10014000EFF3118070470000064C074D06E0E068B1
:1001500040F0010394E8070098471034AC42F6D30E
:10016000FFF7D8FF1C0300002C0300000F4AC0F368
:100170000741D26E01238B401A420D4A1ABF02EB8F
:10018000C1014A6852F83120C0F3072102F22C5312
:10019000D2F82C254FF00F0C0CFA01FC00F00F00E8
:1001A00022EA0C02884010431860704700E00F40BC
:1001B000A402000010B5FFF7BAFFC0B210BD0000E6
:1001C0002DE9F04104460D464FF08076054F05E0DD
:1001D000706914F8011BC26B384690476D1EF7D248
:1001E000BDE8F08100D0004002E008C8121F08C13D
:1001F000002AFAD170477047002001E001C1121FA8
:10020000002AFBD17047000070B54FF08074606C1D
:100210008169194888471948FFF7A8FF1848FFF770
:10022000A5FF606C816917488847FFF7C3FF206A04
:100230000C21426D14489047606C006E80476169E4
:10024000124E4D69014660234FF4E1323046A84713
:10025000A06C01681620884760695021426C3046C6
:1002600090470B4C0C210BA0FFF7AAFF0020401C6D
:10027000A042FCD3F6E700000800002001080300BC
:10028000010C0300020000100070004000D000408C
:1002900080969800456E74657220746578743A2073
:1002A0000000000000400040008005400050004079
:1002B000009005400060004000A005400070004034
:1002C00000B005400040024000C005400050024020
:1002D00000D005400060024000E005400070024090
:1002E00000F0054000D0034000000640001006402A
:1002F0000010064000200640002006400030064066
:1003000000300640004006400040064000500640D5
:100310000050064000600640006006402C030000CC
:0C0320000000002000010000F8010000B7
:0400000500000101F5
:00000001FF
