:020000040000FA
:10000000183D00200101000005010000070100006B
:1000100009010000090100000901000000000000C2
:1000200000000000000000000000000009010000C6
:1000300009010000000000000901000009010000A2
:100040000901000009010000090100000901000088
:1000500009010000C10600000901000009010000BB
:100060000901000009010000090100000901000068
:100070000901000009010000090100000901000058
:100080000901000009010000090100000901000048
:100090000901000009010000090100000901000038
:1000A0000901000009010000090100000901000028
:1000B0000901000009010000090100000901000018
:1000C0000901000009010000090100000901000008
:1000D00009010000090100000901000009010000F8
:1000E00009010000090100000901000009010000E8
:1000F00009010000090100000901000009010000D8
:1001000000F004B8FEE7FEE7FEE70000DFF80CD0E1
:1001100000F01EF80048004715080000183D0020B8
:100120000138FDD170470000EFF3108072B67047C0
:10013000EFF310807047EFF3108062B6704730BF66
:10014000704780F311887047EFF31180704700000B
:10015000064C074D06E0E06840F0010394E8070014
:1001600098471034AC42F6D3FFF7D4FF7C0F000061
:100170009C0F000070B58C1810F8015B15F003029D
:1001800001D110F8012B2B1106D110F8013B03E02F
:1001900010F8016B01F8016B521EF9D1B3B110F8E0
:1001A000012B05F00C058A1A0C2D04D110F8015B07
:1001B000A2EB052201E0A2EB851203F1020303E0AA
:1001C00012F8015B01F8015B5B1EF9D5A142D3D3A4
:1001D000002070BD10B501221146044800F0FBF963
:1001E000FD220221014800F0F6F910BD00D00340C5
:1001F00010B5FE220121044800F0EDF9022211465B
:10020000014800F0E8F910BD00D0034010B500200F
:100210002649086043E026480078802823D1002042
:100220002349087023480078401C224908700122A5
:100230001146214800F0CFF9022211461E4800F075
:10024000CAF91C48007800F007001A4908700846EF
:10025000007840F0B80008700846007800F0B6F862
:10026000402000F0B3F8124800783F2801DCFFF787
:10027000B1FF0F480078402801DBFFF7B9FF0F49B5
:100280000A4A1268885C00F0CDF809480078401CE2
:100290000749087005480068401C04490860034885
:1002A0000068B0F5806FB6D310BD000008000020D4
:1002B000000000200100002000D00340183800207A
:1002C000002103E0425C034B5A54491CB1F5806F96
:1002D000F8DB70471838002010B5364800F0C0F938
:1002E0003448C03000F0BCF93248203800F0B8F98A
:1002F000304800F0B5F92F48C03000F0B1F92D4872
:10030000C03000F0ADF92B48403000F0A9F9802151
:10031000294800F052F92021284800F04EF9022126
:10032000254800F04AF90421254800F046F901214A
:10033000234800F042F90221214800F03EF9FF2154
:10034000204800F03AF9042211461D4800F043F914
:10035000012211461A4800F03EF9022211461848BF
:1003600000F039F9FD220221134800F034F9164853
:1003700000F049FAC02000F029F8134800F043FAD1
:10038000402000F023F8104800F03DFAB82000F0BB
:100390001DF80D4800F037FA3F2000F017F8FE2254
:1003A0000121074800F017F9FD220221044800F05E
:1003B00012F910BD400000200060024000500240D1
:1003C00000D0034000700240A086010010B5044632
:1003D000DF2220210F4800F0FEF8802211460E484F
:1003E00000F0F9F80D4804604FF0640000F00BFADB
:1003F0000B48C0F8FC43642000F005FA0848C0F838
:10040000FC43C0F8FC437F228021034800F0E3F85E
:1004100010BD00000050024000600240FC7302402A
:100420000070024010B50446202211460E4800F02C
:10043000D2F8802211460D4800F0CDF80C48046037
:100440004FF0640000F0DFF90A48C0F8FC43642074
:1004500000F0D9F9064804604FF07F024FF08001A8
:10046000024800F0B8F810BD0050024000600240A1
:10047000FC73024000700240D0F8003412F0010F0B
:1004800014BF0B438B43C0F8003412F0020FD0F8B6
:10049000202414BF114322EA0101C0F82014704740
:1004A000D0F800C512F0010F14BF4CEA010C2CEA81
:1004B000010CC0F800C5D0F804C512F0020F14BF3B
:1004C0004CEA010C2CEA010CC0F804C5D0F808C5B0
:1004D00012F0040F14BF4CEA010C2CEA010CC0F816
:1004E00008C512F0080FD0F8182514BF0A438A4334
:1004F000C0F81825D0F80C2513F0010F14BF0A43DB
:100500008A43C0F80C25D0F8102513F0020F14BF51
:100510000A438A43C0F81025D0F8142513F0040FBD
:1005200014BF0A438A43C0F81425D0F81C2513F0E1
:10053000080F14BF0A438A43C0F81C25D0F82825A9
:10054000002B0CBF114322EA0101C0F828157047A7
:100550000F4AC0F30741D26E01238B401A420D4A65
:100560001ABF02EBC1014A6852F83120C0F30721DB
:1005700002F22C53D2F82C254FF00F0C0CFA01FC90
:1005800000F00F0022EA0C02884010431860704708
:1005900000E00F40240D000050F82100704730B5F6
:1005A00004460D460022FFF767FF29462046BDE8B6
:1005B000304008230122FFF773BF30B504460D46D3
:1005C00008230122FFF76CFF29462046BDE8304092
:1005D0000122FFF751BF40F82120704710B5FFF707
:1005E000AAFDC0B210BD000070B50024102525E0A2
:1005F000EAB2F0211748FFF7EEFF01211648FFF796
:10060000CBFF00B11CE0601CC4B202211248FFF70E
:10061000C3FF00B114E0601CC4B204210E48FFF710
:10062000BBFF00B10CE0601CC4B208210A48FFF710
:10063000B3FF00B104E0601CC4B26D00FF2DD7DD34
:1006400000BF0022F0210348FFF7C5FF0348005D0B
:1006500070BD00000060004000400240F70C000048
:100660004FF0704181430CD00F49020F51F8221016
:100670000A6883B2C0F3044003FA00F01043086034
:100680007047C0F307230949C0B2194401F0704311
:10069000C1F3130143EA411141EA800040F00070C8
:1006A0000122026070470000B80D000000E60F4014
:1006B000816911F0100F0CBF00684FF0FF307047D8
:1006C00070B54FF0807040690121C26C234890479B
:1006D00005464FF0807040692946026D1F489047DB
:1006E00033E01E48FFF7E4FF46280DD0482812D01B
:1006F000502802D053281CD114E07F2280214FF0D3
:100700004020FFF768FF14E0802211464FF04020A0
:10071000FFF761FF0DE0802211464FF04020FFF708
:100720005AFF06E0802211464FF04020FFF753FFAA
:1007300000BF00BF0948FFF7BBFFC4B24FF0807095
:1007400040692146C26B064890474FF0807040696F
:10075000C16A024888470028C3D170BD00C000406C
:1007600000D0004010B504464FF41651204600F06A
:1007700001F810BD2DE9F04104460D46184A52F823
:1007800024004FF08072526C1169884708B9BDE8A7
:10079000F08113480C3850F8240012490860104AC0
:1007A00052F824004FF08072526C916988474FF0E4
:1007B0008071496C086E804707464FF08070406931
:1007C00060232A463946466906480068B0474FF01C
:1007D00080704069C169034800688847D7E7000016
:1007E000180D00001000002002E008C8121F08C108
:1007F000002AFAD170477047002001E001C1121FA2
:10080000002AFBD1704700BF0100A0F10100FBD11D
:10081000704700002DE9F04100BF4FF08070406C40
:10082000C16DA54888474FF08070406C8169A3482E
:1008300088474FF08070406C8169A048C01D884790
:1008400080214FF04020FFF7B8FE0120FFF780FE27
:1008500040F20140FFF77CFE9948FFF779FE994886
:10086000FFF776FE4FF08070406C81699348C01CA2
:100870008847F0219448FFF7A0FE4FF08070406C4D
:1008800081698E480F3088470F219048FFF787FE17
:100890000A2301220F218D48FFF702FE4FF08070DE
:1008A000406C81698A4888474FF08070406C81694C
:1008B0008748401C8847FFF791FE4FF08070006A20
:1008C0000321426D4FF0402090474FF08070006A46
:1008D0000C21426D7F4890474FF08071496C086E43
:1008E000804780464FF08070406960234FF4165275
:1008F000414647697848B8474FF08071496C086EA7
:10090000804780464FF08070406960234FF4165254
:10091000414647697148B8470120FFF723FF4FF070
:100920008070806C0168152088474FF080704069A6
:100930005021426C684890474FF0807040695021C8
:10094000426C66489047FFF7C7FC6548FFF7B8FC64
:10095000FFF75CFC6348FFF7E3FB6348FFF7B0FC7D
:10096000FFF754FC5F48FFF7DBFB6048FFF7A8FC8C
:10097000FFF74CFC0124002600BF43E0FFF734FEE4
:10098000402811D0442808D055280FD1012C01D17E
:1009900004240BE0601EC4B208E0042C01D1012441
:1009A00004E0601CC4B201E0012600BF00BF012CBE
:1009B00006D0022C0AD0032C17D0042C21D11AE027
:1009C0004A48FFF77DFCFFF721FC1AE03EB148489A
:1009D000FFF776FCFFF71AFC0026012513E04548D7
:1009E000FFF76EFCFFF712FC0BE04348FFF768FCD3
:1009F000FFF70CFC05E04148FFF762FCFFF706FC3F
:100A000000BF00BFBAE755E0FFF7EEFD40280FD06A
:100A1000442807D055280DD1012D00D10AE0681EC9
:100A2000C5B207E0082D00D104E0681CC5B201E0A2
:100A3000012600BF00BF092D3BD2DFE805F03A05D3
:100A40000B11171D23292F002948FFF739FCFFF749
:100A5000DDFB2EE02A48FFF733FCFFF7D7FB28E049
:100A60002848FFF72DFCFFF7D1FB22E02648FFF7CF
:100A700027FCFFF7CBFB1CE02448FFF721FCFFF726
:100A8000C5FB16E02248FFF71BFCFFF7BFFB10E099
:100A90002048FFF715FCFFF7B9FB0AE01EB102245E
:100AA0000025002669E71C48FFF70AFCFFF7AEFBAC
:100AB00000BF00BFA8E70000513D800701000020F3
:100AC00001080300010C03000060004000400240E8
:100AD000010000100070004000C0004000D0004045
:100AE00015000020404B4C00150400201508002084
:100AF00015180020150C00201510002015140020DA
:100B00001534002015300020152C0020151C002065
:100B100015200020152400201528002000000000CA
:100B20000000004F00000007000700147F147F142E
:100B3000242A7F2A12231308646236495522500062
:100B400005030000001C2241000041221C00140883
:100B50003E081408083E0808005030000008080845
:100B60000808006060000020100804023E5149455A
:100B70003E00427F400042615149462141454B3190
:100B80001814127F1027454545393C4A4949300120
:100B9000710905033649494936064949291E003677
:100BA00036000000563600000008142241141414C8
:100BB00014144122140800020159050232497941F6
:100BC0003E7E1111117E7F494949363E4141412205
:100BD0007F4141221C7F494949417F090909013E62
:100BE0004141497A7F0808087F00417F4100204049
:100BF000413F017F081422417F404040407F020C6A
:100C0000027F7F0408107F3E4141413E7F09090970
:100C1000063E4151215E7F0919294646494949311D
:100C200001017F01013F4040403F1F2040201F3F06
:100C30004030403F6314081463070870080761518F
:100C4000494543007F414100020408102000414112
:100C50007F000402010204404040404000010204C1
:100C60000020545454787F48444438384444442045
:100C7000384444487F3854545418087E0901020C03
:100C80005252523E7F0804047800447D40002040C8
:100C9000443D007F1028440000417F40007C047CDC
:100CA00004787C0804047838444444387C141414D0
:100CB00008081414147C7C08040408485454542074
:100CC000043F4440203C4040207C1C2040201C3CF1
:100CD0004030403C44281028440C5050503C446460
:100CE000544C44000836410000007F0000004136AB
:100CF00008001008100800313233553435364437B7
:100D000038393C54304340FF680F000000C00040B9
:100D100000D0004000E00040010000100200001080
:100D200004000010004000400080054000500040DA
:100D3000009005400060004000A0054000700040A9
:100D400000B005400040024000C005400050024095
:100D500000D005400060024000E005400070024005
:100D600000F0054000D0034000000640001006409F
:100D700000100640002006400020064000300640DB
:100D8000003006400040064000400640005006404B
:100D900000500640006006400060064010E00F4032
:100DA00014E00F401CE00F4010E00F4040E00F4007
:100DB00044E00F4048E00F4000E10F4004E10F40E5
:100DC00008E10F4010E10F4014E10F4018E10F401F
:100DD00020E10F4024E10F4028E10F4040420F0086
:100DE00000201C0080841E0000802500999E360093
:100DF0000040380000093D0000803E0000004B002C
:100E0000404B4C0000204E00808D5B0000C05D0018
:100E10000080700000127A0000007D00809698002B
:100E2000001BB7000080BB00C0E8CE00647ADA0087
:100E30000024F4000000FA0080A81201002D310106
:100E400000366E0140787D0101001000003800F08E
:100E500002001000013800F000011000003400F022
:100E600000021000013400F000041000023400F011
:100E700000011010003C00F000021010003C00F0D7
:100E800000041010003C00F001000020000800F0F9
:100E900002000020010800F004000020020800F019
:100EA00008000020030800F010000020040800F0F3
:100EB00020000020050800F040000020060800F097
:100EC00080000020070800F000010020080800F062
:100ED00040000000001400F000100010002000F09E
:100EE00000400010012000F010001000004000F051
:100EF00000010010004400F000020010014400F066
:100F000010000010001C00F020000010011C00F078
:100F100001001010000400F002001010010400F0A5
:100F200004001010020400F008001010030400F088
:100F300001000010001800F002000010011800F07D
:100F400004000010021800F000200020000C00F047
:100F500001001020002800F008000000000000F050
:100F600000101000010000F03031323334353637D4
:100F70003839616263646566000000009C0F000000
:100F80000000002018380000740100005C1C000004
:100F90001838002000050000F807000002120001C8
:100FA000027DF001027D7F0105111352C00102751F
:100FB000000152FF01400AF03000C0DCDE1C00E0FE
:100FC00001011932400801017F03010100CD100623
:100FD0007F1E70701CD9000E217E63414163220088
:100FE0003F604040603F773005183878F801417F16
:100FF000300DF1F00080FCFF7F03E0F0F1F1908311
:10100000F8F0A3100CF8080818B0E000E0A0E0C069
:101010009F100AA0A000E80000E020201230046029
:101020006060AA1006F018180818C110046020604B
:10103000232115600560F020C0310005128020F0EA
:101040006084201A030F1F3F1F0F0F070F1F7FFF22
:10105000E0C083838380C0C7F7FF7F3F1F159203E3
:10106000284005020202030732000B110D14070F7E
:101070000A0EC3C0C3B617C340BC200D0183C20211
:101080000303C0C3C2C203011E3103520331120362
:101090000B061D020F180603071F3F3F2207286398
:1010A00001BA140B1818141300001D10101F94110E
:1010B00004421011019A0119680277070149E8C931
:1010C000FA1006CF0F870FCF965201016381810A74
:1010D0000E55FF6A030D107A032188540D6020100D
:1010E00098C8C40407C82819062B016680980DFB10
:1010F000797D3C9E128161D8261906F505140010F1
:1011000004F0F010011EF075031EF0B203F005C0EC
:10111000603010191004C0E0300A1E307B03212417
:10112000011F801C0801007CFEFFFF0E7003BB83C3
:10113000FE2B01127F1005809F9F910110049F8E4E
:10114000800A20098383868C9890808201110F2069
:1011500012818181838F9C9080878F9890949C9836
:10116000BFA7241290010216808070121F9F9F1F3C
:101170001F9F1E1E9C9CA941A11111109002110BD2
:1011800001138002330101011580100C7F404F4A8A
:10119000454F424F4748480630084040404F424D77
:1011A00040101247160E557FEA050277E00102262D
:1011B000FF011C0B03F7EFF703FF07BBBBBBB40337
:1011C0003004FB03FB12B3DF031E500603DBDBDB43
:1011D000FB18211A0224035CFD15040211C7013219
:1011E000C60441066005C7C6C6C612B11E2101511C
:1011F0000C00061F070606C6C7013D820455FB1CEE
:1012000004427F403C071E6096065013FFD9B6B6D5
:10121000B6CDFFFEFE80FEFEFF81EEEEEE810C50AD
:1012200006C0BFBFBFC01E051D30DD4C04011A261D
:10123000417F5C052010909012071F01615103103F
:10124000042101F1061C0A11011111F1111101F122
:10125000FE0432F1120A2761E0E16E000518F9F090
:10126000F0F98010060685848404072DEB0430090C
:101270008204040483000784121F8087AD03128355
:101280000C11121380800C4280064200040D20C60F
:10129000083D6403F004FDFDF914B500140A11249F
:1012A00024241B000030308B123F801DB108100732
:1012B000203F2000001318221914152420061F2097
:1012C00020201F1E0009280C33000304380403806B
:1012D0003FFFFF1C0906177F806C05C0A090F896A1
:1012E00004200CF8102010F800F0888888F00C2CEE
:1012F0000540F800F8F308500700F8484848081877
:101300001C09F0080808100008080909310C112A06
:10131000000B104848C8300038408040388072FECA
:1013200001F926628001228304628309B1061E81CD
:10133000510532810CB28012410E811E6104214F91
:1013400002208F0111260D910004011201320604C2
:1013500041061DDC03620612B11E210181240D37F6
:1013600000042C07002649494932540B1D530B50E9
:10137000067E1111117E0C1E3F1106523F1E0D28D4
:10138000C60B0D2F00041009FC9C6C6C6CDCFC0C73
:1013900006100CECFCECEC0CECECFC0CFCFC042162
:1013A0001203239CFC017D5C0610137F3F3F3F0727
:1013B0000383C7C7C3E1E1C1C7C7838307110E1BFE
:1013C0003F00041C0D1F9D1B1B1B9C1F189B9B9B00
:1013D0001B8D071E989207129C0C11123E9F9E07B0
:1013E0004106421F040115016D5C071F8F864F03E4
:1013F000B9F412FF9C0C0466848FCF00041EF163C5
:101400000E300503070F8FAC1F9F8F450C0C056F27
:10141000B1F0F0F100044D02040D1326060DFF009B
:10142000040DFF0004DD00081F0060220B100420E3
:1014300000F0061F1000C10B2C041010007A0F32B0
:10144000F0120E2E6046101D4F0F1C1087C7C3E30D
:10145000E1F1717171F1E1E3C3C787630F0D1B0007
:10146000041015E062E4E4E463E0E7646464E4E04B
:10147000E0606760E0E0630C11122DDC0F2DE10FDE
:10148000210642E0040115016D00048E03FF031CD8
:1014900004C08000500F2D0C071D02040E1903001C
:1014A00008180FFFC0FBFBFBC0FFFFDFC0DFFFFF23
:1014B000EC5522E63E2D280B2005DFDFDFE01E0C79
:1014C0000920F3CCFFFCFBC7FBFC80091FFEF8469C
:1014D000104F0F1FCA0F500B7F7F7E3C3C1E0F87A3
:1014E000C1E0940D6700085FFEFEB7050DFF000820
:1014F0000DFF00040D6E00040C1667FF7F7FBFBF59
:10150000DFCFEFF7F7FBFBF7F7E1FDC19FBF7F7F71
:10151000000C2006FDFC04F4150142F501410B0C02
:1015200005660404FCFD000C3E007B07198E1D556A
:10153000045E0386079DF9110D110008200DFE06BB
:10154000EEDEEE06FE0E7676760E0C1C05BE06FE70
:1015500006C00B11061DFA0D52F618300C0EF6F6E9
:10156000F6EEFEF6F606F6F60C112A840DB6B63641
:10157000CEFEC6BE7EBEC6FEFE80ADF90BED060CED
:101580000D14000C1F8F8C9C03B28C0630068E8DC0
:101590008D8D8E0CB28F12410E811E61040E4E8F06
:1015A000000CAD4A0D1E6793055E37EE0F15545FB4
:1015B000FBFBEE032D00040230E74F5DF60F5F47A3
:1015C000E714141005F7F717D70113F7370632376A
:1015D0000C110613F7770461121007D6D636F717E9
:1015E000D6061005F6F7F7F704100BD7D716D6D6A0
:1015F000F7F7D617D73C5005B777B717420E23F742
:1016000082145DBB151C04080F08870A20110C0CFE
:10161000001F1F101E1E1E1F1F18171717180C1350
:101620001C130C110250071F101D1D1D101232102B
:101630001E6DF00A2E10F50A40041710170A112427
:101640003C0516161617060B0D207F154D7A125CF9
:10165000066251494946800C1C087F090919660039
:101660007F860C1E41F40E1E40F40E410C41184DB5
:101670009E0C411E7DFE172DF20F13417F11B00607
:101680007F0204027F1E0124801E10DC0A8EB0003F
:101690000B7E40EE066005084848D01811245E30E5
:1016A000E80A411E1230365290067D240B711E014D
:1016B0002A801005010282C2C41D99172DC017107F
:1016C0000C40408300C34242428200C106300843BE
:1016D0000080434340801862401E1DF6171004C26C
:1016E000008124100A81004142C2424100010640AB
:1016F000040100833C22821E052A002C0A86858470
:101700009F8480809818680C1D5D18220106100BBC
:101710000619001F12121210000906520C0C411873
:101720001C080708100807001FAA0C2DEC0C35EA4E
:1017300015F71D85181D7415120F100C04250102D4
:101740001F7F176DFE036C058FBFBF8FBC0701683D
:10175000010D86000413E72701BD0004110862F79C
:10176000012D0C042006B7F71777770E1005777652
:1017700076F6055C04F676F600042D12043005D6E4
:10178000F777F61F7004777777380D2900046C0619
:10179000050909090600044DBE031DE4031DD60317
:1017A0004C0413131F0C042E1BDC031DDF031E1837
:1017B000C306121E0C4E1CF6036E1F30042DFF03D1
:1017C0003E1E36049E10060F0D2600046C063C4A91
:1017D00049493000045DDC038D921020163E4141E2
:1017E0004122007F04047800003854545408007CDF
:1017F00004180D4DF11B3D18041208181C0420009C
:101800001C30040E2B1CFF195DFF049C0588482822
:1018100018E8032D0D058EF864183DEE0E1C04F833
:1018200020205E1B1C06C0A0A0A040ED1B6FC020A6
:10183000211D32E0184D1E041117532040240D2A9B
:1018400080031C04804340E2035D00041DF4031C7C
:10185000044200C0E51B116F1F43C398154DE203FE
:101860004DC61B2E01F41B21096E001B196DDE1BDA
:10187000210C3E02D81B41240D2A00052C060D1216
:1018800012928DC11B2D68103DE8035C06180502FD
:101890000518D6035DE2030D537F1B4D88030C0929
:1018A000FFA0B8BEBFBFBEB8A000049D0C048EE769
:1018B0001318111220064707E787870D1005878642
:1018C0008606055C0406860604143009E7272626EA
:1018D000260787061F0C052B878787E7821CED00EC
:1018E000041D81092C0589898988420D2105138CE5
:1018F0008C051E87F40D1F848030091103100687A4
:101900008A8A8A810C22830D4D6A0D1DE81A100403
:101910008080882F32812A61180E338000041912CA
:101920001D80181EBE3D131F80BF370F1F9F9F14C1
:101930001D2016C1BEBEBEDDFF80FBFB87FFFFC7BB
:10194000ABABABF7FF83FBE70D3D6513100880F6EB
:10195000F6E699FFF7189C08DFFFE3DFBFDFE3E05F
:10196000170DFF00040DFF00040DFF00040D2D00F6
:10197000081D49221D0C042D00036D120C1E00EEE3
:10198000091006080804000F13110C10050A0A0AB2
:10199000010C22030D3D3C0B3E0F711B2D410C32FF
:1019A000012A0E310F80070D8800081C08FCFC047A
:1019B000B4B4B4F472187E04501820160CF4F4F485
:1019C000ECFC04DCDC3CFCFC3C5C5C5CBCFC1CDC3F
:1019D0003C0D3D6E18321C18213613CCFC1753DC1D
:1019E000BC240E33FC000810050707C445011C0683
:1019F00007C7070405A21D200E44C4470707464534
:101A0000C5454607040703300506050505093104E9
:101A100042070862040E1305041D51240EFF07003F
:101A2000040DFF00040DFF00040DB000081005E0D8
:101A3000E023A2012016E020E0E3E220E0E0A3237F
:101A4000A0E0E0A1A222A2A1E0E3E0033005E1E2F0
:101A5000E2E209310442E00862E30E13E2E31D51C1
:101A6000240E33E0000C2C133F3F202D2D2D2F3F53
:101A7000273A3D3A273F3F2F202F321D0331203F89
:101A8000010DFF00040D3200146D000C2DF40B321B
:101A9000C70C11061307870461121C062626C60709
:101AA000E7F30B5EC600041C042727E600041C04B1
:101AB0000726E7350C1C04E747874A14AD4E040D92
:101AC0002E00146DD0032DCA032E07DC071F030C54
:101AD000000411021F000F7412520F12320F1E6DFC
:101AE000F8297E0F4214210A7E0F42040DFF0014D4
:101AF0000D3100141D00041D62043E6306041C0425
:101B000062E0210B043008A3E060A3A3A060186288
:101B1000A01E1DE203100422E061245E611E041E6B
:101B2000E124044004E1E0633C22621E0E33E00045
:101B3000141DEC0320053D3D3D3E065F39260C0497
:101B40001236065E33180441186C0C38372F3738BC
:101B50003F203B3B3B201E043D2A041006302F2F24
:101B60002F30100C042B3E3D2000040DFE00140D00
:101B7000FF00040D8700041DF80B5C05ECDCBC04C1
:101B8000060C5C060CF4B4B42C060C4DE20B1106EA
:101B90005F34CC240C12CC12526C062D2E0CB204E5
:101BA0001E0E33FC00041D000C3C0547474784060D
:101BB0000C1C048507C60C0C3008440787444447B6
:101BC000871862471E1DE20B1004C50786245E8637
:101BD0001E0C1E06240C40040607843C22851E0EA3
:101BE000FF0700180DFF00040D31001C6DD0132DF0
:101BF000CA132E87DC131F838C001411021F808FE1
:101C0000D82E528F12328F1E65463D0A142D0114B4
:101C1000310A6E8F42140D33001C6DD0134D061423
:101C20001EE0D01352E00C4DE8134D9E2C6D241491
:101C30004D5E222D9E2C1C04FFBE8035146C068048
:101C4000FDFBFD8042140DFF001C0DFF00040D2064
:0C1C500000040004000000000000000080
:0400000500000101F5
:00000001FF
