:020000040000FA
:100000003851002001010000050100000701000037
:1000100009010000090100000901000000000000C2
:1000200000000000000000000000000009010000C6
:1000300009010000000000000901000009010000A2
:100040000901000009010000090100000901000088
:1000500009010000E9080000090100000901000091
:100060000901000009010000090100000901000068
:100070000901000009010000090100000901000058
:100080000901000009010000090100000901000048
:100090000901000009010000090100000901000038
:1000A0000901000009010000090100000901000028
:1000B0000901000009010000090100000901000018
:1000C0000901000009010000090100000901000008
:1000D00009010000090100000901000009010000F8
:1000E00009010000090100000901000009010000E8
:1000F00009010000090100000901000009010000D8
:1001000000F004B8FEE7FEE7FEE70000DFF80CD0E1
:1001100000F01EF8004800478D0C00003851002008
:100120000138FDD170470000EFF3108072B67047C0
:10013000EFF310807047EFF3108062B6704730BF66
:10014000704780F311887047EFF31180704700000B
:10015000064C074D06E0E06840F0010394E8070014
:1001600098471034AC42F6D3FFF7D4FF201B0000B1
:10017000401B000070B58C1810F8015B15F00302ED
:1001800001D110F8012B2B1106D110F8013B03E02F
:1001900010F8016B01F8016B521EF9D1B3B110F8E0
:1001A000012B05F00C058A1A0C2D04D110F8015B07
:1001B000A2EB052201E0A2EB851203F1020303E0AA
:1001C00012F8015B01F8015B5B1EF9D5A142D3D3A4
:1001D000002070BDF0B5CC0801F00705A3F12001A7
:1001E00000EBC4145E291DD803EB83010A44A03A36
:1001F0000D4E0021C5F1080ED3B2375D03FA05FCA0
:1002000027EA0C073755371923FA0EF397F880C001
:10021000491C2CEA030C641C521CC9B287F880C02C
:100220000529E9D3801DF0BD384C0020F0B5CC087D
:1002300001F00705A3F1200100EBC4145E291DD8CD
:1002400003EB83010A44A03A0D4E0021C5F1080ECC
:1002500012F8013B375D03FA05FC47EA0C073755F6
:10026000371923FA0EF397F880C0491C4CEA030CA7
:10027000641CC9B287F880C00529E9D3801DF0BD90
:10028000384C002010B5064C01221146204600F0E3
:100290008EFA2046FD22BDE81040022100F087BA08
:1002A00000D0034010B5064CFE220121204600F08C
:1002B0007EFA20460222BDE81040114600F077BACF
:1002C00000D003402DE9F0411D4C00261D4F4FF496
:1002D0008068E662207880281AD1267060781A4DEE
:1002E000401C607001221146284600F060FA02228C
:1002F0001146284600F05BFA607800F0070040F0F5
:10030000B8006070C0B200F0D7F8402000F0D4F818
:1003100020783F2801D8FFF7B5FF2078402801D387
:10032000FFF7C0FFE06A385C00F0F0F82078401C6E
:100330002070E06A401CE0624045CBD3BDE8F0810C
:1003400000000020384C002000D003402DE9F0438D
:10035000DDF81C90884617461E46904202D9014699
:1003600038460F46B04502D94146B0460E460546CE
:1003700011E044460BE0B9F1000F2146284602D0B7
:1003800000F056F901E000F043F9641CE4B2B44215
:10039000F1D96D1CEDB2BD42EBD9BDE8F083000090
:1003A00010B5054A00214FF48063445C5454491C45
:1003B0009942FADB10BD0000384C002070B5384C73
:1003C000204600F05BFA364DC035284600F056FA5C
:1003D0003348203800F052FA204600F04FFA284601
:1003E00000F04CFA284600F049FA2D48403000F061
:1003F00045FA2C4C8021204600F0CBF920212A48D8
:1004000000F0C7F90221204600F0C3F9274D04216E
:10041000284600F0BEF90121284600F0BAF9022171
:10042000284600F0B6F9FF21214800F0B2F9042275
:100430001146284600F0BBF901221146284600F07B
:10044000B6F902221146284600F0B1F9FD22022138
:10045000204600F0ACF9174E3046401EFDD2C020B9
:1004600000F02AF83446641EFDD2402000F024F843
:1004700034463046401EFDD2B82000F01DF8641E00
:10048000FDD23F2000F018F8FE220121284600F09E
:100490008EF92846BDE87040FD22022100F087B9A0
:1004A00040000020006002400050024000D00340A5
:1004B00000700240A086010070B50446DF222021B2
:1004C0000F4800F074F90F4D80221146284600F0C5
:1004D0006EF90D49C1F8FC436420401EFDD2C1F8FD
:1004E000FC436420401EFDD2C1F8FC43C1F8FC432C
:1004F0002846BDE870407F22802100F058B90000F6
:1005000000500240006002400070024070B5044696
:10051000202211460E4800F04AF90E4D8022114665
:10052000284600F044F90C49C1F8FC436420401E01
:10053000FDD2C1F8FC436420401EFDD2C1F8FC434B
:100540002846BDE870407F22802100F030B90000CD
:100550000050024000600240007002402DE9F0436C
:1005600089460646079915461F460A201C46B1B122
:10057000804611E02846B5FBF8F508FB150304EBAF
:10058000440006EB4000801F3033C0B2124A494697
:10059000FFF74CFE641EE4B2002CEBD115E0804660
:1005A00011E02846B5FBF8F508FB150304EB440001
:1005B00006EB4000801F3033C0B2074A4946FFF7C0
:1005C00009FE641EE4B2002CEBD107EB470006EBFA
:1005D0004000BDE8F0830000C0160000F0B50546FD
:1005E0000F4614461E460BE0084A3946284616B107
:1005F000FFF71CFE01E0FFF7EDFDAD1DEDB2641C41
:100600002378002BF0D12846F0BD0000C016000072
:1006100010B5CA08054B00EBC21001F007011A5CC7
:1006200001248C40A2431A5410BD0000384C002015
:1006300010B5CA08054B00EBC21001F007011A5CA7
:1006400001248C4022431A5410BD0000384C002075
:10065000D0F8003412F0010F14BF0B438B43C0F8E5
:10066000003412F0020FD0F8202414BF114322EA04
:100670000101C0F820147047D0F800C512F0010F36
:1006800014BF4CEA010C2CEA010CC0F800C5D0F8EC
:1006900004C512F0020F14BF4CEA010C2CEA010C45
:1006A000C0F804C5D0F808C512F0040F14BF4CEA16
:1006B000010C2CEA010CC0F808C512F0080FD0F8A4
:1006C000182514BF0A438A43C0F81825D0F80C2512
:1006D00013F0010F14BF0A438A43C0F80C25D0F869
:1006E000102513F0020F14BF0A438A43C0F81025E7
:1006F000D0F8142513F0040F14BF0A438A43C0F83E
:100700001425D0F81C2513F0080F14BF0A438A43A0
:10071000C0F81C25D0F82825002B0CBF114322EA75
:100720000101C0F8281570470F4AC0F30741D26E87
:1007300001238B401A420D4A1ABF02EBC1014A68DD
:1007400052F83120C0F3072102F22C53D2F82C25A5
:100750004FF00F0C0CFA01FC00F00F0022EA0C0223
:10076000884010431860704700E00F40C818000030
:1007700050F82100704730B504460D460022FFF7BF
:1007800067FF29462046BDE8304008230122FFF7D5
:1007900073BF30B504460D4608230122FFF76CFFF6
:1007A00029462046BDE830400122FFF751BF40F8FE
:1007B0002120704710B5FFF7BEFCC0B210BD00008D
:1007C0002DE9F0410024294F294EDFF8A88010259B
:1007D000EAB2F0213846FFF7EAFF01213046FFF781
:1007E000C7FF38B14046FFF79BFC01213046FFF7B9
:1007F000BFFF88BB641CE4B202213046FFF7B8FF9C
:1008000038B14046FFF78CFC02213046FFF7B0FFBD
:1008100010BB641CE4B204213046FFF7A9FF38B1D5
:100820004046FFF77DFC04213046FFF7A1FF98B951
:10083000641CE4B208213046FFF79AFF38B1404605
:10084000FFF76EFC08213046FFF792FF20B9641CC9
:100850006D00E4B2FF2DBBDD0022F0213846FFF72A
:10086000A6FF0548005DBDE8F08100000060004083
:1008700000400240801A06009B1800004FF07041B3
:1008800081430CD00F49020F51F822100A6883B23D
:10089000C0F3044003FA00F0104308607047C0F34F
:1008A00007230949C0B2194401F07043C1F3130191
:1008B00043EA411141EA800040F0007001220260E9
:1008C000704700005C19000000E60F40816911F0DC
:1008D000100F0CBF00684FF0FF307047826912F0B4
:1008E000200FFBD1016070472DE9F0474FF0807574
:1008F0006869294FC26C01213846904769690A6DC1
:10090000014638469047DFF894904FF0402A002681
:100910004FF00108224C37E03846FFF7D7FF482850
:1009200014D00FDC412825D0462825D1802211463D
:100930005046FFF73CFF2671FD2202214846FFF793
:1009400036FF19E0502808D0532815D180221146CF
:100950005046FFF72CFF26710EE07F228021504683
:10096000FFF725FF022211464846FFF720FF84F8D3
:10097000048001E084F803803846FFF7A7FFC1B286
:1009800068690268074890476869C16A38468847BD
:100990000028C1D1BDE8F08700C0004000700040D1
:1009A0000000002000D000404FF41651AFF300804B
:1009B0002DE9F04188464FF08075696C124F04466E
:1009C000096957F82000884700281AD0A7F10C00C1
:1009D0000E4E50F824007060696C57F82400896945
:1009E0008847686C006E8047696960234C690146DE
:1009F00042467068A0476869C1697068BDE8F04107
:100A00000847BDE8F0810000BC180000300000205D
:100A10000FB42DE9F04786B00FAD4FF02D0A0DF160
:100A20000409C1E0002400E0641C015D252901D017
:100A30000029F9D1214600F0C9F80E9820440E9003
:100A400001782529EDD1401C002420260E900E9916
:100A500011F8010B0E91382835D014DC332832D030
:100A600008DC25287ED030282DD031282BD0322804
:100A700079D128E0342826D0352824D0362822D031
:100A80003728F5D11FE0702817D010DC39281AD08C
:100A9000582812D0632822D06428E9D101CD002142
:100AA0000590002820DA4042012305901DE07328BC
:100AB00020D0752833D0782873D101CD00211022A1
:100AC0000590002312E011F8010C302801D104B97F
:100AD000302604EB8401490030394418B7E701CDD2
:100AE0000590012105A859E000230A220120DDF824
:100AF00014C01BE001CD002600E0761C815D0029BA
:100B0000FBD1314600F062F8B4424DD9A41B03E09A
:100B100001212AA000F05AF8641EF9D244E001CD68
:100B200000210A220590CCE74046641E00FB02F734
:100B3000B846674503D8B8FBF2F78742F4D033B123
:100B4000641E302E03D109F801A0491C0023A71E02
:100B50000E2F06D2641E04D04F467E54491C641EDC
:100B6000FBD101E017E01CE013B109F801A0491C1A
:100B70004E46134F0BE0BCFBF0F3B3FBF2F402FB69
:100B80001433B0FBF2F03C68E35C7354491C00285A
:100B9000F1D101A802E00E980121401E00F016F8E4
:100BA00002E0052107A0F9E70E98017800297FF4FB
:100BB00039AF06B0BDE8F0075DF814FB2000000077
:100BC000AC1800004552524F520000002DE9F04190
:100BD0000546884600244FF080760A4F0DE0285DD8
:100BE0000A2804D170690D210268786890477069FD
:100BF000295D026878689047641C4445EFD320461D
:100C0000BDE8F0813000002002E008C8121F08C1D2
:100C1000002AFAD170477047002001E001C1121F7D
:100C2000002AFBD17047000004490020487124319C
:100C3000087048708870C87070470000000000207D
:100C4000114900B548798B7801F124021354FF2330
:100C50008B70032802D9FFF7E7FF01E0401C4871C1
:100C60001078D178C0EB001000EB800001EBC001E0
:100C70005078C0EB00108300907800EB800003EB0D
:100C80004000084400BD0000000000202DE9F84F9E
:100C90004FF08074606CC16DFF488847606C81695B
:100CA000FE488847606C8169FC48C01D88474FF04A
:100CB000402580212846FFF76CFDDFF8E4930221F0
:100CC0004846FFF766FD606C8169F448401C884720
:100CD000DFF8D08320214046FFF75BFD0120FFF7BE
:100CE00023FD40F20140FFF71FFDEF48FFF71CFD19
:100CF000EE48FFF719FD606C8169E848C01C884721
:100D0000F021EB48FFF745FD606C8169E3480F3047
:100D10008847E84E0F213046FFF72DFD0A230122B8
:100D20000F213046FFF7A8FC606C8169E2488847D4
:100D3000606C8169E048401C8847FFF73BFD206AF2
:100D40000321426D28469047206A0C21426D484697
:100D50009047606C006E80476169D84E4D694FF4D2
:100D60001657014660233A463046A847606C006E2D
:100D7000804761693A464D69D14F01466023384644
:100D8000A8470120FFF710FEA06C016815208847D6
:100D900060695021426C3046904760695021426C36
:100DA00038469047FFF70AFBC648FFF7F9FAFFF706
:100DB00089FAC54C2046FFF7B3F9C448FFF7F0FAAB
:100DC000FFF780FA2046FFF7ABF9C148FFF7E8FAD2
:100DD000FFF778FA0222012611464846FFF7E7FCA2
:100DE000202211464046FFF7E2FC80221146404691
:100DF000FFF7DDFCB74C4FF03C0B00250027FFF759
:100E0000DFFC402810D0442807D055280DD1012EF2
:100E100001D1042609E0761E04E0042E01D101264A
:100E200003E0761CF6B200E00127012E0BD0022E63
:100E30000DD0032E10D0042EE0D1A748FFF7B0FA52
:100E4000FFF740FADAE7002F74D1A148F6E70FB1B7
:100E5000012603E0A148F1E7A148EFE74FF00008C1
:100E60004746FFF7ADFC37283AD009DCA0F1300047
:100E700007283ED2DFE800F02527292C2E3032004B
:100E800040281BD009DC38282CD039282CD03C280D
:100E90002FD10226FFF7C8FEB0E7432826D044280A
:100EA00005D0552825D1012E23D0761E02E0082E2C
:100EB0001FD0761CF6B2FFF7B7FE1AE04FF001081C
:100EC00017E0A57015E0012000E00220A07010E0FE
:100ED0000320FBE70420F9E70520F7E70620F5E704
:100EE0000720F3E70820F1E70920EFE7FFF79CFE72
:100EF0000127092E73D2DFE806F072051322303E77
:100F00004C5A68007748FFF74BFAA078FF2803D0C7
:100F1000FFF796FEA06064E0012F62D1A56060E05B
:100F20007148FFF73DFAA078FF2804D0FFF788FE4C
:100F3000E06056E014E2012F53D1E56051E06B48C8
:100F4000FFF72EFAA078FF2803D0FFF779FE206183
:100F500047E0012F45D1256143E06548FFF720FABE
:100F6000A078FF2803D0FFF76BFE606139E0012F06
:100F700037D1656135E05F48FFF712FAA078FF28A6
:100F800003D0FFF75DFEA061D5E0012FFCD1A56184
:100F9000D1E05948FFF704FAA078FF2803D0FFF703
:100FA0004FFEE061C7E0012FEED1E561C3E0534899
:100FB000FFF7F6F9A078FF2803D0FFF741FE206283
:100FC000B9E0012F00D12562B5E0B8F1000F01D0E2
:100FD00001260BE14A48FFF7E3F9ACE0FFE7052EF5
:100FE00059D2A0680123B0FBFBF200935F460223B5
:100FF0000D215F20FFF7B2FA012342A20D216920E3
:10100000FFF7ECFAA0680123B0FBF7F107FB110230
:10101000009302230D216E20FFF7A0FAE068012360
:10102000B0FBF7F20093022318215F20FFF796FA36
:10103000012334A218216920FFF7D0FAE0680123C8
:10104000B0FBF7F107FB11020093022318216E2079
:10105000FFF784FA20690123B0FBF7F20093022323
:1010600023215F20FFF77AFA012326A2232169209A
:10107000FFF7B4FA20690123B0FBF7F107FB110277
:101080000093022323216E20FFF768FA6069012391
:10109000B0FBF7F238E04EE0513D80070100002040
:1010A000007000400050004001080300010C0300E4
:1010B00000600040004002400100001000C00040FD
:1010C00000D0004038000020404B4C003804002085
:1010D000380800200000002038140020380C0020C0
:1010E0003810002038180020383400203830002014
:1010F000382C0020381C0020382000203824002004
:10110000382800203A000000009302232E215F209F
:10111000FFF724FA0123AFF214022E216920FFF712
:101120005DFA60690123B0FBF7F107FB1102009340
:1011300002232E2154E0A0690123B0FBFBF20093AF
:101140005F4602230D215F20FFF708FA0123AFF26B
:101150004C020D216920FFF741FAA0690123B0FB81
:10116000F7F107FB1102009302230D216E20FFF718
:10117000F5F9E0690123B0FBF7F20093022318218F
:101180005F20FFF7EBF90123AFF2880218216920F5
:10119000FFF724FAE0690123B0FBF7F107FB110226
:1011A0000093022318216E20FFF7D8F9206A01234B
:1011B000B0FBF7F20093022323215F20FFF7CEF963
:1011C0000123AFF2C00223216920FFF707FA206A4A
:1011D0000123B0FBF7F107FB110200930223232147
:1011E0006E20FFF7BBF9FFF76DF837E60027FFF732
:1011F000E7FA40280CD0442805D0552809D1012E03
:1012000007D9761E02E0022E03D2761CF6B200E069
:101210000127012E19D0022E1BD0032E1FD1D0483A
:10122000FFF7BEF8FFF74EF8CEA0FFF7F1FBD44E64
:1012300001213046FFF752FB01213046FFF74EFBFC
:10124000D0A0FFF7E5FBE0780AE007B10326D1481C
:1012500003E00FB1082601E6CF48FFF7A1F87CE0D4
:101260000128FDD1E570CDA0FFF7D2FBA06837467D
:10127000C1B23046FFF732FBCFA0A168FFF7C8FB31
:10128000D14E3046FEF74CFFD0A0E168FFF7C0FB1F
:10129000E068C1B23846FFF721FB3046FEF740FF59
:1012A0002069C1B23846FFF719FBCCA02169FFF7CE
:1012B000AFFB3046FEF734FF6069C1B23846FFF736
:1012C0000DFBCAA06169FFF7A3FB3046FEF728FFBC
:1012D000A069C1B23846FFF701FBC8A0A169FFF7BA
:1012E00097FB3046FEF71CFFE069C1B23846FFF7B6
:1012F000F5FAC6A0E169FFF78BFB3046FEF710FF59
:10130000206AC1B23846FFF7E9FAC4A0216AFFF7A4
:101310007FFB3046FEF704FF45213846FFF7DEFA33
:10132000C2A0FFF775FB3046FEF7FAFE95A0FFF767
:101330006FFBC348FEF7F4FEC248FFF731F8E078D0
:10134000012801D0E570FDE7BFA0FFF761FBFEF7C4
:10135000B9FF3046FEF7E4FE7CE7FEF7B3FF45E752
:10136000BF48FFF71DF80123BEA20F213E20FFF763
:1013700035F90123BEA219213E20FFF72FF90123E1
:10138000BEA223213E20FFF729F901230093372332
:101390000E221A210B20FEF7D9FF012300932523EB
:1013A0002D2222210E20FEF7D1FF012300933723A7
:1013B0002D2234210E20FEF7C9FFFEF783FFFFF731
:1013C000FFF93C2873D0DFF8C092DFF8C0A2B04F1D
:1013D000002645F6D818464516D1A148FEF7E0FF8D
:1013E0000123ACA20F213E20FFF7F8F80123ACA2A5
:1013F00019213E20FFF7F2F80123A0A223213E206D
:10140000FFF7ECF8FEF75EFF4E4516D19448FEF765
:10141000C7FF012393A20F213E20FFF7DFF801232E
:101420009FA219213E20FFF7D9F8012393A223217F
:101430003E20FFF7D3F8FEF745FF564516D1884802
:10144000FEF7AEFF012393A20F213E20FFF7C6F85F
:10145000012396A219213E20FFF7C0F8012387A29D
:1014600023213E20FFF7BAF8FEF72CFF761CBE4280
:10147000B1D30023009337230E221A210B20FEF74D
:1014800065FF0023009325232D2222210E20FEF745
:101490005DFF0023009337232D2234210E20FEF719
:1014A00055FFFEF70FFFFFF78BF93C2801D101260E
:1014B000A4E4DFF80482DFF8049200264CF6087AF0
:1014C000564516D16648FEF76BFF012371A20F2126
:1014D0003E20FFF783F8012365A219213E20FFF784
:1014E0007DF8012365A223213E20FFF777F8FEF760
:1014F000E9FE464516D15A48FEF752FF012359A28C
:101500000F213E20FFF76AF8012365A219213E2032
:10151000FFF764F8012359A223213E20FFF75EF86C
:10152000FEF7D0FE4E4516D14D48FEF739FF012398
:101530004CA20F213E20FFF751F801234CA21921A4
:101540003E20FFF74BF801234CA223213E20FFF75A
:1015500045F8FEF7B7FE761CBE42B1D315E7000092
:10156000384000200A426174206461752067756903
:10157000206469612063686920536C6176650000AE
:1015800000C000400A43686F207068616E20686F79
:101590006900000038380020383C00200A4261749D
:1015A0002064617520677569206475206C696575B4
:1015B0002E2E2E2E000000000A745F667764203DF8
:1015C0002020256400000000404B4C000A745F722C
:1015D0007376203D20202564000000000A745F6EB1
:1015E0007073203D20202564000000000A745F70A5
:1015F0007376203D20202564000000000A745F659A
:101600005F667764203D2020256400000A745F65D2
:101610005F727376203D2020256400000A745F65A8
:101620005F6E7073203D2020256400000A456E64C3
:10163000206F662053657175656E6365210000003B
:10164000400D0300384400200A5068616E20686F26
:1016500069207468616E6820636F6E670000000027
:101660003848002054656D70203A32352043000020
:10167000436F6E64743A352075532E004368656D70
:10168000203A30204C00000000350C00A0BB0D00BB
:1016900040420F0054656D70203A323620430000FE
:1016A000436F6E64743A362075532E00436F6E6438
:1016B000743A372075532E0060AE0A00C0980B00B4
:1016C000000000000000004F0000000700070014A9
:1016D0007F147F14242A7F2A122313086462364958
:1016E0005522500005030000001C22410000412249
:1016F0001C0014083E081408083E0808005030007A
:1017000000080808080800606000002010080402B3
:101710003E5149453E00427F4000426151494621C9
:1017200041454B311814127F1027454545393C4A35
:101730004949300171090503364949493606494985
:10174000291E00363600000056360000000814221C
:101750004114141414144122140800020159050202
:10176000324979413E7E1111117E7F494949363E09
:10177000414141227F4141221C7F494949417F0922
:101780000909013E4141497A7F0808087F00417FED
:1017900041002040413F017F081422417F404040EA
:1017A000407F020C027F7F0408107F3E4141413E92
:1017B0007F090909063E4151215E7F0919294646E4
:1017C0004949493101017F01013F4040403F1F200D
:1017D00040201F3F4030403F6314081463070870E7
:1017E00008076151494543007F4141000204081048
:1017F000200041417F00040201020440404040407B
:10180000000102040020545454787F48444438387E
:1018100044444420384444487F3854545418087E83
:101820000901020C5252523E7F0804047800447DA4
:1018300040002040443D007F1028440000417F408C
:10184000007C047C04787C080404783844444438E0
:101850007C14141408081414147C7C08040408482C
:1018600054545420043F4440203C4040207C1C20E1
:1018700040201C3C4030403C44281028440C505030
:10188000503C4464544C44000836410000007F0042
:10189000000041360800100810080055333231446A
:1018A0003635343C39383740433054FF0C1B000088
:1018B00000C0004000D0004000E0004001000010E7
:1018C00002000010040000100040004000800540AD
:1018D00000500040009005400060004000A005401E
:1018E0000070004000B005400040024000C00540CC
:1018F0000050024000D005400060024000E005407A
:101900000070024000F0054000D003400000064097
:10191000001006400010064000200640002006404F
:1019200000300640003006400040064000400640BF
:10193000005006400050064000600640006006402F
:1019400010E00F4014E00F401CE00F4010E00F408B
:1019500040E00F4044E00F4048E00F4000E10F40FE
:1019600004E10F4008E10F4010E10F4014E10F4087
:1019700018E10F4020E10F4024E10F4028E10F4023
:1019800040420F0000201C0080841E0000802500C3
:10199000999E36000040380000093D0000803E005E
:1019A00000004B00404B4C0000204E00808D5B003F
:1019B00000C05D000080700000127A0000007D0011
:1019C00080969800001BB7000080BB00C0E8CE00E6
:1019D000647ADA000024F4000000FA0080A8120102
:1019E000002D310100366E0140787D0101001000AC
:1019F000003800F002001000013800F00001100073
:101A0000003400F000021000013400F00004100067
:101A1000023400F000011010003C00F00002101031
:101A2000003C00F000041010003C00F00100002019
:101A3000000800F002000020010800F0040000206F
:101A4000020800F008000020030800F01000002049
:101A5000040800F020000020050800F040000020ED
:101A6000060800F080000020070800F000010020B8
:101A7000080800F040000000001400F00010001002
:101A8000002000F000400010012000F010001000C5
:101A9000004000F000010010004400F000020010BF
:101AA000014400F010000010001C00F020000010A5
:101AB000011C00F001001010000400F002001010E2
:101AC000010400F004001010020400F008001010DF
:101AD000030400F001000010001800F002000010E4
:101AE000011800F004000010021800F0002000208F
:101AF000000C00F001001020002800F00800000099
:101B0000000000F000101000010000F0303132330E
:101B10003435363738396162636465660000000029
:101B2000401B000000000020384C00007401000041
:101B3000482B0000384C002000050000180C000065
:101B400020050000FF0001125A04523C04921E0CB2
:101B50002110011201027DF001027D7F01051113A8
:101B600052C0010275000152FF01400AF03000C06E
:101B7000DCDE1C00E001011932400801017F030195
:101B80000100CD10067F1E70701CD9000E217E63EF
:101B900041416322003F604040603F773005183884
:101BA00078F801417F300DF1F00080FCFF7F03E009
:101BB000F0F1F19083F8F0A3100CF8080818B0E0E9
:101BC00000E0A0E0C09F100AA0A000E80000E02014
:101BD00020123004606060AA1006F018180818C1BE
:101BE0001004602060232115600560F020C03100E2
:101BF00005128020F06084201A030F1F3F1F0F0F73
:101C0000070F1F7FFFE0C083838380C0C7F7FF7F7C
:101C10003F1F159203284005020202030732000B02
:101C2000110D14070F0A0EC3C0C3B617C340BC2062
:101C30000D0183C2020303C0C3C2C203011E3103EC
:101C400052033112030B061D020F180603071F3F34
:101C50003F2207286301BA140B1818141300001D43
:101C600010101F941104421011019A011968027793
:101C7000070149E8C9FA1006CF0F870FCF96520126
:101C8000016381810A0E55FF6A030D107A032188D2
:101C9000540D60201098C8C40407C82819062B01E9
:101CA0006680980DFB797D3C9E128161D8261906CD
:101CB000F50514001004F0F010011EF075031EF07D
:101CC000B203F005C0603010191004C0E0300A1EE5
:101CD000307B032124011F801C0801007CFEFFFFD4
:101CE0000E7003BB83FE2B01127F1005809F9F9116
:101CF0000110049F8E800A20098383868C9890802F
:101D00008201110F2012818181838F9C9080878FA7
:101D10009890949C98BFA72412900102168080701E
:101D2000121F9F9F1F1F9F1E1E9C9CA941A1111146
:101D3000109002110B011380023301010115801074
:101D40000C7F404F4A454F424F47484806300840B5
:101D500040404F424D40101247160E557FEA050293
:101D600077E0010226FF011C0B03F7EFF703FF07E3
:101D7000BBBBBBB4033004FB03FB12B3DF031E5039
:101D80000603DBDBDBFB18211A0224035CFD1504D0
:101D90000211C70132C60441066005C7C6C6C61295
:101DA000B11E2101510C00061F070606C6C7013DE2
:101DB000820455FB1C04427F403C071E609606507F
:101DC00013FFD9B6B6B6CDFFFEFE80FEFEFF81EE54
:101DD000EEEE810C5006C0BFBFBFC01E051D30DD3A
:101DE0004C04011A26417F5C052010909012071FB9
:101DF0000161510310042101F1061C0A11011111A6
:101E0000F1111101F1FE0432F1120A2761E0E16ED5
:101E1000000518F9F0F0F98010060685848404079F
:101E20002DEB0430098204040483000784121F8010
:101E300087AD0312830C11121380800C428006427E
:101E400000040D20C6083D6403F004FDFDF914B53F
:101E500000140A112424241B000030308B123F8010
:101E60001DB1081007203F20000013182219141577
:101E70002420061F2020201F1E0009280C330003E9
:101E800004380403803FFFFF1C0906177F806C05A0
:101E9000C0A090F89604200CF8102010F800F088EC
:101EA0008888F00C2C0540F800F8F308500700F87B
:101EB00048484808181C09F00808081000080809D4
:101EC00009310C112A000B104848C83000384080F6
:101ED00040388072FE01F926628001228304628309
:101EE00009B1061E81510532810CB28012410E816A
:101EF0001E6104214F02208F0111260D9100040163
:101F0000120132060441061DDC03620612B11E21D5
:101F10000181240D3700042C070026494949325419
:101F20000B1D530B50067E1111117E0C1E3F110626
:101F3000523F1E0D28C60B0D2F00041009FC9C6C8F
:101F40006C6CDCFC0C06100CECFCECEC0CECECFC13
:101F50000CFCFC04211203239CFC017D5C06101385
:101F60007F3F3F3F070383C7C7C3E1E1C1C7C783C3
:101F70008307110E1B3F00041C0D1F9D1B1B1B9C88
:101F80001F189B9B9B1B8D071E989207129C0C1180
:101F9000123E9F9E074106421F040115016D5C071A
:101FA0001F8F864F03B9F412FF9C0C0466848FCFF9
:101FB00000041EF1630E300503070F8FAC1F9F8FC7
:101FC000450C0C056FB1F0F0F100044D02040D1347
:101FD00026060DFF00040DFF0004DD00081F006051
:101FE000220B10042000F0061F1000C10B2C04105F
:101FF00010007A0F32F0120E2E6046101D4F0F1C8B
:102000001087C7C3E3E1F1717171F1E1E3C3C787E1
:10201000630F0D1B00041015E062E4E4E463E0E7E5
:10202000646464E4E0E0606760E0E0630C11122D3A
:10203000DC0F2DE10F210642E0040115016D0004C3
:102040008E03FF031C04C08000500F2D0C071D02DF
:10205000040E19030008180FFFC0FBFBFBC0FFFFB5
:10206000DFC0DFFFFFEC5522E63E2D280B2005DF09
:10207000DFDFE01E0C0920F3CCFFFCFBC7FBFC807C
:10208000091FFEF846104F0F1FCA0F500B7F7F7EAF
:102090003C3C1E0F87C1E0940D6700085FFEFEB751
:1020A000050DFF00080DFF00040D6E00040C1667FF
:1020B000FF7F7FBFBFDFCFEFF7F7FBFBF7F7E1FD58
:1020C000C19FBF7F7F000C2006FDFC04F415014278
:1020D000F501410B0C05660404FCFD000C3E007B81
:1020E00007198E1D55045E0386079DF9110D110019
:1020F00008200DFE06EEDEEE06FE0E7676760E0C5F
:102100001C05BE06FE06C00B11061DFA0D52F61880
:10211000300C0EF6F6F6EEFEF6F606F6F60C112A82
:10212000840DB6B636CEFEC6BE7EBEC6FEFE80AD01
:10213000F90BED060C0D14000C1F8F8C9C03B28C58
:102140000630068E8D8D8D8E0CB28F12410E811E43
:1021500061040E4E8F000CAD4A0D1E6793055E376D
:10216000EE0F15545FFBFBEE032D00040230E74F2A
:102170005DF60F5F47E714141005F7F717D7011343
:10218000F7370632370C110613F777046112100780
:10219000D6D636F717D6061005F6F7F7F704100B64
:1021A000D7D716D6D6F7F7D617D73C5005B777B797
:1021B0001742031DF717019EF700041C04080F08BF
:1021C000870A100D0C0C001F1F101E1E1E1F1F184B
:1021D0002122180C131C130C110250071F101D1D77
:1021E0001D101232101E6DF00A2E10F50A40041751
:1021F00010170A112420041616160D011D018E1F3A
:1022000080065C066251494946800C1C087F09091A
:102210001966007F860C1E41F40E1E40F40E410C20
:1022200041184D9E0C411E7DFE172DF20F13417F6C
:1022300011B0067F0204027F1E0D1EFF154D800B9C
:102240001E10DC0A8EB0000B7E40EE0660050848CA
:1022500048D01811245E30E80A411E1230365290E0
:10226000067D240B711E012A801005010282C2C462
:102270001D99172DC017100C40408300C3424242E5
:102280008200C1063008430080434340801862400A
:102290001E1DF6171004C2008124100A810041425D
:1022A000C2424100010640040100833C22821E0517
:1022B0002A002C0A8685849F8480809818680C1DCB
:1022C0005D18220106100B0619001F1212121000D1
:1022D0000906520C0C41181C080708100807001FBB
:1022E000AA0C2DEC0C21041600F71D851815F4120C
:1022F0000F100C042501021F7F176DFE036C058F64
:10230000BFBF8FBC070168010D86000413E72701DA
:10231000BD0004110862F7012D0C042006B7F71761
:1023200077770E1005777676F6055C04F676F6007C
:10233000042D12043005D6F777F61F7004777777EF
:10234000380D2900046C06050909090600044DBE74
:10235000031DE4031DD6034C0413131F0C042E1B92
:10236000DC031DDF031E18C306121E0C4E1CF603F1
:102370006E1F30042DFF033E1E360461180D2A0027
:10238000046C063C4A49493000045DDC038D921020
:1023900020163E41414122007F0404780000385459
:1023A000545408007C04180D4DF11B3D180412080C
:1023B000181C0420001C30040E2B1CFF195DFF04A8
:1023C0009C0588482818E8032D0D058EF864183DF3
:1023D000EE0E1C04F820205E1B1C06C0A0A0A0402E
:1023E000ED1B6FC020211D32E0184D1E0411175344
:1023F0002040240D2A80031C04804340E2034D004A
:10240000043E83FA031C08804043428000C0AB1B9B
:102410003EC006045E41C61B2E01F41B21096E005E
:102420001B196DDE1B210C3E02D81B41240D2A0016
:10243000052C060D1212928DC11B1D05065DEE03C3
:102440003DDC035DE8033D06040D547F1B4D88030E
:102450000C09FFA0B8BEBFBFBEB8A000049D0C040D
:102460008EE71318111220064707E787870D10051E
:1024700087868606055C0406860604143009E7276D
:102480002626260787061F0C052B878787E7821CD1
:10249000ED00041D81092C0589898988420D2105DB
:1024A000138C8C051E87F40D1F84803009110310D6
:1024B00006878A8A8A810C22830D4D6A0D1DE81ACF
:1024C00010048080882F32812A0E278FC6050D12B6
:1024D000000419121D80181EBE3D131F80BF370F48
:1024E0001F9F9F141D2016C1BEBEBEDDFF80FBFBDB
:1024F00087FFFFC7ABABABF7FF83FBE70D3D651372
:10250000100880F6F6E699FFF7186C08DFFFE3DFA6
:10251000BFDFE34120051FFD0DFF00040DFF000498
:102520000DFF0004FD00081D49221D0C042D0003B1
:102530006D120C1E00EE091006080804000F13119E
:102540000C10050A0A0A010C22030D3D3C0B3E0F3C
:10255000711B2D410C32012A0E310F80070D8800AE
:10256000081C08FCFC04B4B4B4F472187E045018BF
:1025700020160CF4F4F4ECFC04DCDC3CFCFC3C5CCD
:102580005C5CBCFC1CDC3C0D3D6E18321C1821361A
:1025900013CCFC1753DCBC24031DFC04010E12FCFD
:1025A00000081016070784454545850787474445B9
:1025B0008707C7040407C707C61220054607040794
:1025C0000330050605050509310442070862040EBB
:1025D0001305041D5124021E07800EFF0700040D81
:1025E000FF00040DFF00040D8F00081D6E1810136E
:1025F000A2A2A262E060A0A3A260E020E3E3E02048
:10260000E021122005A1E0E3E0033005E1E2E2E28F
:1026100009310442E00862E30E13E2E31D51240E87
:1026200033E0000C10163F3F362D2D2D333F203B5D
:102630003B3B203F38372F37383F2012032F2F3FA7
:10264000010DFF00040D3200146D000C2DF40B324F
:10265000C70C11061307870461121C062626C6073D
:10266000E7F30B5EC600041C042727E600041C04E5
:102670000726E7350C1C04E747874A14AD4E040DC6
:102680002400048D00146DD0032DCA032E07DC072F
:102690001F030C000411021F000F7412520F12329C
:1026A0000F1E6DF8297E0F4214210A7E0F42040D81
:1026B00028000B0DFF00147D00141C04E0E02362D1
:1026C000043C0463E02306042DFA033008A3E06011
:1026D000A3A3A0601862A01E1DE203100422E06103
:1026E000241C0661E0A1A2221E0412E1064004E1BE
:1026F000E0633C22621E1D980C011C010E12E000DA
:102700001420083F3F203D3D3D3E065F3926FA0339
:102710005D1204310C41185D18043D240411322D62
:10272000EF031F2F2023041006302F2F2F301013FC
:102730003E3D18011E800EFF3F00140DFF00040DEA
:102740009000041DF80B5C05ECDCBC04060C5C0678
:102750000CF4B4B42C060C4DE20B11065F34CC24FF
:102760000C12CC12526C062D2E0CB2041E0D2A0037
:102770000C8D00043C0A0707C44747478407C4067A
:102780000C2DFA0B300844078744444787186247EA
:102790001E1DE20B1004C50786241C06860746454D
:1027A000C51E0C12060640040607843C22851E0D39
:1027B0002A000C0DFF00180DFF00046D001C6DD0E9
:1027C000132DCA132E87DC131F838C001411021FD4
:1027D000808FD82E528F12328F1E6D49133D0A14EE
:1027E0002D0114310A7E8F42140D2800148D001C17
:1027F0006DD0134D06141EE0D01352E00C4DE813BB
:102800004D9E2C6D24144D5E222D9E2C1C04FFBE6B
:102810008035146C0680FDFBFD8042140D290014E8
:102820000DFF001C0DFF00040D15F7231DE5231EF1
:102830000790255E07EB1B5DFD233DFD1B4D093019
:10284000211E5E771B24A1244136AD27300D3000B8
:1028500024ADF12B5DEF237DFD2B610CCD0F240208
:102860001506180D1F00087DF82B4DF22BAD780BC7
:10287000A11E4D042C4D900F5D96133D9C0B411EE7
:102880005D9C0B1D4C106D2E2C3A7FB441063C0410
:10289000070870340C0E115F0003ED18032006FCCE
:1028A00024246498062C0A240400F8444444F800C4
:1028B0004E131EF8E0137EC0E0131D472312041EC2
:1028C00031184DC6261E98462752C8365006FC08B9
:1028D0001020FC360C061B08046424188003FD57E6
:1028E0003331044D4C30810C611AA1268E004F33D8
:1028F000510C011E360122800D1B35041D4823108A
:102900000EE2DE3EDEE2FE02DADADAFAFE66060CFD
:10291000053436FEFEFE80130131802203012C0DAA
:1029200002FB132342FA02F20A0B0BF252380F3A5F
:10293000030300140D31BB03CD09280DFF00040D66
:10294000FF00040DE800041DDB3E4D080545204155
:10295000F60D3680170D3180043DCB2B1EFD270D63
:102960005C0BBD05FD0DF5F4F40DFDFD75310D6439
:1029700000043287013284044006868585858611ED
:102980000DFF00040D3D00040D747F3D0926750DFB
:1029900016DC031E0006045200121C05F804242451
:1029A0008A3F033F8080805DEC0B9D10241EF01653
:1029B000211C04F000318A101C049100F9EC1F5E08
:1029C0000912081C08F801E101F800F12E331EF18C
:1029D0003B231EF9FA0400063D080BF90808807E27
:1029E00003E73F6202063DEA232DFE235201126DEA
:1029F0003A0C11026D10244DFF1F413EF203060DEB
:102A00004980040D4E001C0176010DFF00040D21CC
:102A100080030E758000041C0880C0E0F0F8FEFE04
:102A2000FE42BC041E0C049D033D71324D89325D93
:102A30008336310C4D4B1C5D8F173DB5034DBF32B6
:102A40004DA7320D2200041C0D02020E1E7FFFFE58
:102A5000F0F0F87C3E7443CC05070303FF95343D4A
:102A600089341EE3092B1C042100E354401E2395E6
:102A7000301E93A7301E639B345E23B9301C08F1CF
:102A80009292921100F3A12B3C04F200F3B5033EA5
:102A9000F0BD03300670800080704001188032085D
:102AA000011E0B802161016D651D1E02CD1F1DC120
:102AB0004371065202063DE51F511E41244D9719F0
:102AC000412A411E412452001A0EFF0500040D390F
:102AD00000144DFD2B4D0C04ADF4034DF133411E9C
:102AE0000D32002073C747010E1CC70A348D0C0835
:102AF0000D16F40F0E310700286EFFF7330D52E765
:102B0000430D21801F3DEA0641010D1AD73EAEE07C
:102B1000BC1A0D6C800865271C043F403C06350D2F
:102B2000460D45012D802D151441010676C3000484
:102B30000649FE040804FE000D2CFA0B6284010E07
:082B40004587000800000000B9
:0400000500000101F5
:00000001FF
