:020000040000FA
:100000003845002001010000050100000701000043
:1000100009010000090100000901000000000000C2
:1000200000000000000000000000000009010000C6
:1000300009010000000000000901000009010000A2
:100040000901000009010000090100000901000088
:100050000901000055080000090100000901000025
:100060000901000009010000090100000901000068
:100070000901000009010000090100000901000058
:100080000901000009010000090100000901000048
:100090000901000009010000090100000901000038
:1000A0000901000009010000090100000901000028
:1000B0000901000009010000090100000901000018
:1000C0000901000009010000090100000901000008
:1000D00009010000090100000901000009010000F8
:1000E00009010000090100000901000009010000E8
:1000F00009010000090100000901000009010000D8
:1001000000F004B8FEE7FEE7FEE70000DFF80CD0E1
:1001100000F01EF800480047B90B000038450020E9
:100120000138FDD170470000EFF3108072B67047C0
:10013000EFF310807047EFF3108062B6704730BF66
:10014000704780F311887047EFF31180704700000B
:10015000064C074D06E0E06840F0010394E8070014
:1001600098471034AC42F6D3FFF7D4FF681700006D
:100170008817000070B58C1810F8015B15F00302A9
:1001800001D110F8012B2B1106D110F8013B03E02F
:1001900010F8016B01F8016B521EF9D1B3B110F8E0
:1001A000012B05F00C058A1A0C2D04D110F8015B07
:1001B000A2EB052201E0A2EB851203F1020303E0AA
:1001C00012F8015B01F8015B5B1EF9D5A142D3D3A4
:1001D000002070BDF0B5CC0801F00705A3F12001A7
:1001E00000EBC4145E291DD803EB83010A44A03A36
:1001F0000D4E0021C5F1080ED3B2375D03FA05FCA0
:1002000027EA0C073755371923FA0EF397F880C001
:10021000491C2CEA030C641C521CC9B287F880C02C
:100220000529E9D3801DF0BD38400020F0B5CC0889
:1002300001F00705A3F1200100EBC4145E291DD8CD
:1002400003EB83010A44A03A0D4E0021C5F1080ECC
:1002500012F8013B375D03FA05FC47EA0C073755F6
:10026000371923FA0EF397F880C0491C4CEA030CA7
:10027000641CC9B287F880C00529E9D3801DF0BD90
:100280003840002010B5064C01221146204600F0EF
:1002900044FA2046FD22BDE81040022100F03DBA9C
:1002A00000D0034010B5064CFE220121204600F08C
:1002B00034FA20460222BDE81040114600F02DBA63
:1002C00000D003402DE9F0411D4C00261D4F4FF496
:1002D0008068E662207880281AD1267060781A4DEE
:1002E000401C607001221146284600F016FA0222D6
:1002F0001146284600F011FA607800F0070040F03F
:10030000B8006070C0B200F0ADF8402000F0AAF86C
:1003100020783F2801D8FFF7B5FF2078402801D387
:10032000FFF7C0FFE06A385C00F0C6F82078401C98
:100330002070E06A401CE0624045CBD3BDE8F0810C
:10034000000000203840002000D0034010B5054ACE
:1003500000214FF48063445C5454491C9942FADBF9
:1003600010BD00003840002070B5384C204600F029
:100370003BFA364DC035284600F036FA334820386F
:1003800000F032FA204600F02FFA284600F02CFA4E
:10039000284600F029FA2D48403000F025FA2C4C70
:1003A0008021204600F0ABF920212A4800F0A7F96F
:1003B0000221204600F0A3F9274D0421284600F031
:1003C0009EF90121284600F09AF90221284600F002
:1003D00096F9FF21214800F092F90422114628469F
:1003E00000F09BF901221146284600F096F90222FE
:1003F0001146284600F091F9FD220221204600F026
:100400008CF9174E3046401EFDD2C02000F02AF86D
:100410003446641EFDD2402000F024F834463046B5
:10042000401EFDD2B82000F01DF8641EFDD23F2012
:1004300000F018F8FE220121284600F06EF9284647
:10044000BDE87040FD22022100F067B940000020A5
:10045000006002400050024000D0034000700240A3
:10046000A086010070B50446DF2220210F4800F06D
:1004700054F90F4D80221146284600F04EF90D49DF
:10048000C1F8FC436420401EFDD2C1F8FC43642047
:10049000401EFDD2C1F8FC43C1F8FC432846BDE82C
:1004A00070407F22802100F038B9000000500240E7
:1004B000006002400070024070B5044620221146E0
:1004C0000E4800F02AF90E4D80221146284600F011
:1004D00024F90C49C1F8FC436420401EFDD2C1F848
:1004E000FC436420401EFDD2C1F8FC432846BDE811
:1004F00070407F22802100F010B9000000500240BF
:1005000000600240007002402DE9F0438946064633
:10051000079915461F460A201C46B1B1804611E0D6
:100520002846B5FBF8F508FB150304EB440006EB81
:100530004000801F3033C0B2124A4946FFF776FEB2
:10054000641EE4B2002CEBD115E0804611E0284691
:10055000B5FBF8F508FB150304EB440006EB40007F
:10056000801F3033C0B2074A4946FFF733FE641E8E
:10057000E4B2002CEBD107EB470006EB4000BDE8EE
:10058000F083000008130000F0B505460F4614463E
:100590001E460BE0084A3946284616B1FFF746FECC
:1005A00001E0FFF717FEAD1DEDB2641C2378002BB0
:1005B000F0D12846F0BD000008130000D0F8003448
:1005C00012F0010F14BF0B438B43C0F8003412F03C
:1005D000020FD0F8202414BF114322EA0101C0F811
:1005E00020147047D0F800C512F0010F14BF4CEA78
:1005F000010C2CEA010CC0F800C5D0F804C512F0BB
:10060000020F14BF4CEA010C2CEA010CC0F804C51F
:10061000D0F808C512F0040F14BF4CEA010C2CEA04
:10062000010CC0F808C512F0080FD0F8182514BF47
:100630000A438A43C0F81825D0F80C2513F0010F9F
:1006400014BF0A438A43C0F80C25D0F8102513F0D4
:10065000020F14BF0A438A43C0F81025D0F81425AE
:1006600013F0040F14BF0A438A43C0F81425D0F8CE
:100670001C2513F0080F14BF0A438A43C0F81C2539
:10068000D0F82825002B0CBF114322EA0101C0F845
:10069000281570470F4AC0F30741D26E01238B40E3
:1006A0001A420D4A1ABF02EBC1014A6852F83120C2
:1006B000C0F3072102F22C53D2F82C254FF00F0C77
:1006C0000CFA01FC00F00F0022EA0C0288401043F3
:1006D0001860704700E00F401015000050F821002E
:1006E000704730B504460D460022FFF767FF2946E4
:1006F0002046BDE8304008230122FFF773BF30B524
:1007000004460D4608230122FFF76CFF29462046C8
:10071000BDE830400122FFF751BF40F8212070476B
:1007200010B5FFF708FDC0B210BD00002DE9F04183
:100730000024294F294EDFF8A8801025EAB2F021C5
:100740003846FFF7EAFF01213046FFF7C7FF38B10F
:100750004046FFF7E5FC01213046FFF7BFFF88BBAD
:10076000641CE4B202213046FFF7B8FF38B14046BE
:10077000FFF7D6FC02213046FFF7B0FF10BB641C28
:10078000E4B204213046FFF7A9FF38B14046FFF735
:10079000C7FC04213046FFF7A1FF98B9641CE4B2FE
:1007A00008213046FFF79AFF38B14046FFF7B8FC02
:1007B00008213046FFF792FF20B9641C6D00E4B2B7
:1007C000FF2DBBDD0022F0213846FFF7A6FF0548CC
:1007D000005DBDE8F0810000006000400040024084
:1007E000801A0600E31400004FF0704181430CD0E2
:1007F0000F49020F51F822100A6883B2C0F3044077
:1008000003FA00F0104308607047C0F3072309495A
:10081000C0B2194401F07043C1F3130143EA41111E
:1008200041EA800040F00070012202607047000041
:10083000A415000000E60F40816911F0100F0CBFF5
:1008400000684FF0FF307047826912F0200FFBD133
:100850000160704770B54FF0807460691A4DC26CCA
:1008600001212846904761690A6D01462846904754
:100870004FF0402621E02846FFF7DEFF482809D048
:1008800004DC41280ED046280FD103E0502803D0C5
:1008900053280AD1802200E07F2280213046FFF7D2
:1008A0003CFF02E009490120C8702846FFF7C4FF59
:1008B000C1B260690268064890476069C16A28460B
:1008C00088470028D7D170BD00C00040000000203C
:1008D00000D000404FF41651AFF300802DE9F041F5
:1008E00088464FF08075696C124F0446096957F8C5
:1008F0002000884700281AD0A7F10C000E4E50F8AF
:1009000024007060696C57F8240089698847686C16
:10091000006E8047696960234C69014642467068F1
:10092000A0476869C1697068BDE8F0410847BDE843
:10093000F081000004150000300000200FB42DE904
:10094000F04786B00FAD4FF02D0A0DF10409C1E05C
:10095000002400E0641C015D252901D00029F9D1A3
:10096000214600F0C9F80E9820440E900178252900
:10097000EDD1401C002420260E900E9911F8010B99
:100980000E91382835D014DC332832D008DC2528E5
:100990007ED030282DD031282BD0322879D128E0B4
:1009A000342826D0352824D0362822D03728F5D12F
:1009B0001FE0702817D010DC39281AD0582812D020
:1009C000632822D06428E9D101CD002105900028B8
:1009D00020DA4042012305901DE0732820D07528BD
:1009E00033D0782873D101CD002110220590002347
:1009F00012E011F8010C302801D104B9302604EBC3
:100A00008401490030394418B7E701CD0590012130
:100A100005A859E000230A220120DDF814C01BE0DC
:100A200001CD002600E0761C815D0029FBD1314616
:100A300000F062F8B4424DD9A41B03E001212AA0C2
:100A400000F05AF8641EF9D244E001CD00210A22D8
:100A50000590CCE74046641E00FB02F7B8466745A8
:100A600003D8B8FBF2F78742F4D033B1641E302EBE
:100A700003D109F801A0491C0023A71E0E2F06D29E
:100A8000641E04D04F467E54491C641EFBD101E015
:100A900017E01CE013B109F801A0491C4E46134FA2
:100AA0000BE0BCFBF0F3B3FBF2F402FB1433B0FB3E
:100AB000F2F03C68E35C7354491C0028F1D101A8B2
:100AC00002E00E980121401E00F016F802E0052118
:100AD00007A0F9E70E98017800297FF439AF06B036
:100AE000BDE8F0075DF814FB20000000F4140000DE
:100AF0004552524F520000002DE9F041054688460C
:100B000000244FF080760A4F0DE0285D0A2804D1BA
:100B100070690D210268786890477069295D0268E4
:100B200078689047641C4445EFD32046BDE8F081C7
:100B30003000002002E008C8121F08C1002AFAD1C4
:100B400070477047002001E001C1121F002AFBD14D
:100B50007047000004490020087124310870487073
:100B60008870C8707047000000000020114900B56F
:100B700008798B7801F124021354FF238B7003282A
:100B800002D9FFF7E7FF01E0401C08711078D17827
:100B9000C0EB001000EB800001EBC0015078C0EB0F
:100BA00000108300907800EB800003EB40000844C5
:100BB00000BD0000000000202DE9F84F4FF08074C8
:100BC000606CC16DFF488847606C8169FE4888474A
:100BD000606C8169FC48C01D88474FF0402580212A
:100BE0002846FFF78CFD0120FFF754FD40F201403D
:100BF000FFF750FDF548FFF74DFDF548FFF74AFDBB
:100C0000606C8169F048C01C8847F021F148FFF70B
:100C100076FD606C8169EC480F308847EE4E0F21FD
:100C20003046FFF75EFD0A2301220F213046FFF711
:100C3000D9FC606C8169E9488847606C8169E74844
:100C4000401C8847FFF76CFD206A0321426D28464F
:100C50009047206A0C21426DE1489047606C006E1D
:100C600080476169DFF87CA34D694FF41657014650
:100C700060233A4656465046A847606C006E80474F
:100C800061693A464D69D84F014660233846A84706
:100C90000120FFF71FFEA06C0168152088476069DE
:100CA0005021426C3046904760695021426C384672
:100CB0009047FFF759FB0126CC4CDFF834B34FF0D7
:100CC0003C0900250027FFF731FD402810D04428BB
:100CD00007D055280DD1012E01D1042609E0761E3A
:100CE00004E0042E01D1012603E0761CF6B200E0F8
:100CF0000127012E0BD0022E0BD0032E0ED0042E76
:100D0000E0D1BC48FFF722FBFFF7DCFADAE7BA488C
:100D1000F8E70FB1012603E0B848F3E7B848F1E778
:100D20004FF000084746FFF701FD37283AD009DCAD
:100D3000A0F1300007283ED2DFE800F02527292C5B
:100D40002E30320040281BD009DC38282CD039281E
:100D50002CD03C282FD10226FFF7FCFEB2E7432817
:100D600026D0442805D0552825D1012E23D0761E23
:100D700002E0082E1FD0761CF6B2FFF7EBFE1AE059
:100D80004FF0010817E0A57015E0012000E00220F7
:100D9000A07010E00320FBE70420F9E70520F7E747
:100DA0000620F5E70720F3E70820F1E70920EFE741
:100DB000FFF7D0FE0127092E72D2DFE806F0710599
:100DC00013212F3D4B5967008E48FFF7BFFAA078DB
:100DD000FF2803D0FFF7CAFEA06063E0012F61D1B6
:100DE000A5605FE08848FFF7B1FAA078FF2803D03C
:100DF000FFF7BCFEE06055E0012F53D1E56051E004
:100E00008248FFF7A3FAA078FF2803D0FFF7AEFED1
:100E1000206147E0012F45D1256143E07C48FFF781
:100E200095FAA078FF2803D0FFF7A0FE606139E0B3
:100E3000012F37D1656135E07648FFF787FAA07852
:100E4000FF2803D0FFF792FEA0619AE0012FFCD1AA
:100E5000A56196E07048FFF779FAA078FF2803D0E3
:100E6000FFF784FEE0618CE0012FEED1E56188E0C0
:100E70006A48FFF76BFAA078FF2803D0FFF776FEE9
:100E800020627EE0012F7CD125627AE0B8F1000F6C
:100E900001D0012602E16248FFF758FA71E0FFE74E
:100EA000052E6ED2A0680123B0FBF9F200934F46E5
:100EB00002230D215F20FFF727FB012359A20D21FB
:100EC0006920FFF761FBA0680123B0FBF7F107FB86
:100ED0001102009302230D216E20FFF715FBE0683D
:100EE0000123B0FBF7F20093022318215F20FFF7E4
:100EF0000BFB01234BA218216920FFF745FBE0689B
:100F00000123B0FBF7F107FB110200930223182124
:100F10006E20FFF7F9FA20690123B0FBF7F2009386
:100F2000022323215F20FFF7EFFA01233DA22321B3
:100F30006920FFF729FB20690123B0FBF7F107FBCC
:100F400011020093022323216E20FFF7DDFA60696E
:100F50000123B0FBF7F2009302232E215F20FFF75D
:100F6000D3FA01232FA22E216920FFF70DFB606920
:100F70000123B0FBF7F107FB1102009302232E219E
:100F800086E0A0690123B0FBF9F200934F460223EB
:100F90000D215F20FFF7B8FA012322A20D2169205D
:100FA000FFF7F2FAA0690123B0FBF7F107FB11028A
:100FB000009302230D216E20FFF7A6FAE069B0FB33
:100FC000F7F231E0513D80070100002001080300E5
:100FD000010C0300006000400040024001000010CE
:100FE0000070004000C0004000D000400000002021
:100FF000404B4C00380C0020380000203804002002
:101000003808002038100020382C00203828002014
:10101000382400203814002038180020381C002004
:10102000382000203A0000000123009302231821F9
:101030005F20FFF769FA0123AFF218021821692037
:10104000FFF7A2FAE0690123B0FBF7F107FB1102F9
:101050000093022318216E20FFF756FA206A01231D
:10106000B0FBF7F20093022323215F20FFF74CFA35
:101070000123AFF2500223216920FFF785FA206A8D
:101080000123B0FBF7F107FB110200930223232198
:101090006E20FFF739FAFFF715F941E60027FFF751
:1010A00045FB40280CD0442805D0552809D1012EF5
:1010B00007D9761E02E0022E03D2761CF6B200E0BB
:1010C0000127012E19D0022E1BD0032E1FD150480C
:1010D000FFF73CF9FFF7F6F84EA0FFF72FFC0121D0
:1010E00056465046FFF7B0FB01213046FFF7ACFBF8
:1010F0004FA0FFF723FCE0780AE007B10326504831
:1011000003E00FB108260BE64E48FFF71FF97CE01D
:101110000128FDD1E5704CA0FFF710FCA068374610
:10112000C1B23046FFF790FB4EA0A168FFF706FC66
:101130005E465846FEF7F4FF4EA0E168FFF7FEFB5F
:10114000E068C1B23846FFF77FFB3046FEF7E8FFA4
:101150002069C1B23846FFF777FB4AA02169FFF743
:10116000EDFB3046FEF7DCFF6069C1B23846FFF7A1
:101170006BFB48A06169FFF7E1FB3046FEF7D0FF4B
:10118000A069C1B23846FFF75FFB46A0A169FFF72F
:10119000D5FB3046FEF7C4FFE069C1B23846FFF721
:1011A00053FB44A0E169FFF7C9FB3046FEF7B8FFE7
:1011B000206AC1B23846FFF747FB42A0216AFFF719
:1011C000BDFB3046FEF7ACFF45213846FFF73CFB40
:1011D00040A0FFF7B3FB3046FEF7A2FF14A0FFF7D5
:1011E000ADFB4148FEF79CFF4048FFF7AFF8E078C1
:1011F000012801D0E570FDE73DA0FFF79FFBFFF759
:1012000061F83046FEF78CFF7CE7FFF75BF845E7B7
:10121000383800200A42617420646175206775695E
:10122000206469612063686920536C617665000001
:101230000A43686F207068616E20686F6900000063
:1012400038300020383400200A426174206461750F
:1012500020677569206475206C6965752E2E2E2EA9
:10126000000000000A745F667764203D202025643A
:10127000000000000A745F727376203D2020256410
:10128000000000000A745F6E7073203D202025640A
:10129000000000000A745F707376203D20202564F2
:1012A000000000000A745F655F667764203D2020BF
:1012B000256400000A745F655F727376203D20200C
:1012C000256400000A745F655F6E7073203D202006
:1012D000256400000A456E64206F662053657175B1
:1012E000656E636521000000400D0300383C00205E
:1012F0000A5068616E20686F69207468616E6820AA
:10130000636F6E6700000000000000000000004FE7
:1013100000000007000700147F147F14242A7F2A8E
:101320001223130864623649552250000503000059
:10133000001C2241000041221C0014083E08140831
:10134000083E08080050300000080808080800603F
:1013500060000020100804023E5149453E00427FD3
:10136000400042615149462141454B311814127FDA
:101370001027454545393C4A494930017109050363
:101380003649494936064949291E003636000000CB
:10139000563600000008142241141414141441227B
:1013A0001408000201590502324979413E7E1111AB
:1013B000117E7F494949363E414141227F414122C8
:1013C0001C7F494949417F090909013E4141497A48
:1013D0007F0808087F00417F41002040413F017F96
:1013E000081422417F404040407F020C027F7F046E
:1013F00008107F3E4141413E7F090909063E4151A7
:10140000215E7F09192946464949493101017F0179
:10141000013F4040403F1F2040201F3F4030403FA1
:1014200063140814630708700807615149454300B5
:101430007F41410002040810200041417F00040266
:101440000102044040404040000102040020545486
:1014500054787F484444383844444420384444480D
:101460007F3854545418087E0901020C5252523EDF
:101470007F0804047800447D40002040443D007F04
:101480001028440000417F40007C047C04787C08E4
:1014900004047838444444387C14141408081414A0
:1014A000147C7C080404084854545420043F4440ED
:1014B000203C4040207C1C2040201C3C4030403CD4
:1014C00044281028440C5050503C4464544C440070
:1014D0000836410000007F00000041360800100877
:1014E00010080055333231443635343C39383740F2
:1014F000433054FF5417000000C0004000D00040AB
:1015000000E0004001000010020000100400001084
:101510000040004000800540005000400090054021
:101520000060004000A005400070004000B0054091
:101530000040024000C005400050024000D005407D
:101540000060024000E005400070024000F00540ED
:1015500000D0034000000640001006400010064086
:1015600000200640002006400030064000300640C3
:101570000040064000400640005006400050064033
:10158000006006400060064010E00F4014E00F408D
:101590001CE00F4010E00F4040E00F4044E00F40DF
:1015A00048E00F4000E10F4004E10F4008E10F4028
:1015B00010E10F4014E10F4018E10F4020E10F400F
:1015C00024E10F4028E10F4040420F0000201C00A2
:1015D00080841E0000802500999E3600004038005F
:1015E00000093D0000803E0000004B00404B4C00D5
:1015F00000204E00808D5B0000C05D000080700008
:1016000000127A0000007D0080969800001BB70051
:101610000080BB00C0E8CE00647ADA000024F40049
:101620000000FA0080A81201002D310100366E0181
:1016300040787D0101001000003800F00200100029
:10164000013800F000011000003400F0000210002A
:10165000013400F000041000023400F0000110100A
:10166000003C00F000021010003C00F000041010DC
:10167000003C00F001000020000800F00200002003
:10168000010800F004000020020800F0080000201B
:10169000030800F010000020040800F020000020E3
:1016A000050800F040000020060800F0800000203F
:1016B000070800F000010020080800F040000000CA
:1016C000001400F000100010002000F00040001096
:1016D000012000F010001000004000F00001001098
:1016E000004400F000020010014400F0100000105F
:1016F000001C00F020000010011C00F00100101080
:10170000000400F002001010010400F004001010AA
:10171000020400F008001010030400F001000010A3
:10172000001800F002000010011800F00400001082
:10173000021800F000200020000C00F00100102032
:10174000002800F008000000000000F00010100069
:10175000010000F0303132333435363738396162C8
:101760006364656600000000881700000000002028
:1017700038400000740100001825000038400020A7
:1017800000050000440B000020050000FF000112CE
:101790005A04523C04921E0C21100112010223FF34
:1017A00001301103F7EFF703FF07BBBBBB07FFFFD8
:1017B000FB03FB12B3DF031E500603DBDBDBFB186E
:1017C000211A0224035BE207010211C70132C60499
:1017D00041066005C7C6C6C612B11E2101510C00E4
:1017E000061F070606C6C701116D46FF3614060020
:1017F00000427F400E176060125012D9B6B6B6CDC7
:10180000FFFEFE80FEFEFF81EEEEEE810C5006C074
:10181000BFBFBFC01E051D300524593126417F4082
:101820000620109090600B100901619191912101A7
:10183000F106100C11011111F1111101F101010456
:1018400021120323610101011180000518F9F0F054
:10185000F980100606858484040712061430098274
:10186000040404830007841210078087800000832B
:101870000C11121380800C428006420004011801F2
:10188000B16B080411FDFDF96D9500140A112424B3
:10189000241B000030308B123F80163F1310063F90
:1018A0002000001318221914152420061F202020C0
:1018B0001F1E0009280C3300030438040380200491
:1018C000FFFF7F9406177F806005C0A090F8D020AE
:1018D0000CF8102010F800F0888888F00C200540E3
:1018E000F800F816500700F84848480818300CF07F
:1018F00008080810000808F808080C112A000B1046
:101900004848C8300038408040388072FE01F926CF
:10191000628001228304628309B1063006818282DB
:1019200082810CB28012410E811E6104214F02207F
:101930008F0111260E90FF000401120132060441AE
:10194000061DDC03620612B11E210181240D370041
:10195000041C0B0026494949320001017F4803500D
:10196000067E1111117E0C50063F4040403F1E0183
:1019700020010D3700041009FC9C6C6C6CDCFC0C25
:1019800006100CECFCECEC0CECECFC0CFCFC04216C
:101990001203239CFC017D800310137F3F3F3F0710
:1019A0000383C7C7C3E1E1C1C7C7838307110E1B08
:1019B0003F000410151F9D1B1B1B9C1F189B9B9B0E
:1019C0001B1F1F9F989F1F1F9C0C1112139F9F0C82
:1019D000429F06421F0401150161801F8F864F033D
:1019E000B9F412FF9C0C0466848FCF00043009F117
:1019F000F0F0F003070F8FAC0C0A6F9F8F0F0703F7
:101A0000B1F0F0F100044D02040D1326060DFF00A5
:101A1000040DFF0004DD0008100900609090902084
:101A200000F0061C0A10001010F0101000F08006E4
:101A300032F01203266000015DF8060C151C3F1FF2
:101A40000F87C7C3E3E1F1717171F1E1E3C3C787A8
:101A50000F1F00041015E062E4E4E463E0E764644F
:101A600064E4E0E0606760E0E0630C111213606022
:101A70000C42600642E0040115016D00048E03FF74
:101A8000032C06C080003F3F81071EFE02040E1992
:101A9000030008180FFFC0FBFBFBC0FFFFDFC0DF28
:101AA000FFFFEC5522E63E1DCC032006E0DFDFDF22
:101AB000E01E0C0920F3CCFFFCFBC7FBFC800910E7
:101AC00009FEF8E0C0830F1F1F7A210150097E3CF8
:101AD0003C1E0F87C1E0940D6700085FFEFEB7054E
:101AE0000DFF00080DFF00040D6E00040C1667FFCB
:101AF0007F7FBFBFDFCFEFF7F7FBFBF7F7E1FDC15C
:101B00009FBF7F7F000C2006FDFC04F4150142F509
:101B100001410B0C05660404FCFD000C3E007B0734
:101B2000198E1D55045E0386076D1D090D140008EE
:101B3000200DFE06EEDEEE06FE0E7676760E0C1C10
:101B400005BE06FE06C00B11061DFA0D52F6183032
:101B50000C0EF6F6F6EEFEF6F606F6F60C112A84F4
:101B60000DB6B636CEFEC6BE7EBEC6FEFE80ADF952
:101B70000BED060C0D14000C1F8F8C9C03B28C0611
:101B800030068E8D8D8D8E0CB28F12410E811E61AE
:101B9000040E4E8F000CAD4A0D1E6793055E37EEA6
:101BA0000F15545FFBFBEE032D00040230E74F5D81
:101BB000F60F5F47E7FF0F1005F7F717D70113F789
:101BC000370632370C110613F7770461121007D667
:101BD000D636F717D6061005F6F7F7F704100BD729
:101BE000D716D6D6F7F7D617D73C5005B777B7171D
:101BF00042031DF717019EF700041C04080F088715
:101C00000A100D0C0C001F1F101E1E1E1F1F182176
:101C100022180C131C130C110250071F101D1D1D40
:101C2000101232101E6DF00A2E10F50A4004171023
:101C3000170A112420041616160D011D018E1F808F
:101C4000065C066251494946800C1C087F09091947
:101C500066007F860C1E41F40E1E40F40E410C41BE
:101C6000184D9E0C411E5D31103D9E041004004134
:101C70007F11B0067F0204027F1E0D1E26084D80D4
:101C80000B1E10DC0A8EB0000B7E40EE06600508CD
:101C90004848D01811245E30E80A411E12303652EE
:101CA00090067D240B711E012A801005010282C25C
:101CB000C42E03D40F1EC3680D100A8300C3424212
:101CC000428200C1063008430080434340801862CE
:101CD000401E1007020202C2008124100A81004146
:101CE00042C2424100010640040100833C22821EA0
:101CF000052A002C0A8685849F8480809818680CA9
:101D0000115C220106100B0619001F12121210009E
:101D10000906520C0C41181C080708100807001F80
:101D2000AA0C2DEC0C21041600F7140400000FF48B
:101D3000120F100C042501021FA6096DFE036C058D
:101D40008FBFBF8FBC070168010D86000413E72712
:101D500001BD0004110862F7012D0C042006B7F73D
:101D60001777770E1005777676F6055C04F676F62B
:101D700000042D12043005D6F777F61F700477772C
:101D800077380D2900046C06050909090600044D81
:101D9000BE031DE4031DD6034C0413131F0C042EB5
:101DA0001BDC031DDF031E18C306121E0C4E1CF69F
:101DB000036E1F30042DFF033E1E360461180D2AEA
:101DC00000046C063C4A49493000045DDC038D92F6
:101DD0001020163E41414122007F04047800003863
:101DE00054545408007C04180D39BC4D18041208D2
:101DF000181C0420001C30040E271C240C8D000429
:101E00009C060888482818E8032D0D057EF8A603CF
:101E10004DEE0E2C05F82020C02A072008A0A04077
:101E200000E020C00D311E32E0184D1E0411175382
:101E30002040240D2A80031C04804340E2034D000F
:101E4000043E83FA031C08804043428000C0120411
:101E50003EC006041F41004D0C11031E019E0331BC
:101E6000096E0000146203031114600502030200EE
:101E7000240D2A00052C090D1212928D0000180065
:101E8000045DEE033DDC035DE8033D060401520101
:101E90006D00040C09FFA0B8BEBFBFBEB8A000040F
:101EA0009D0C048EE71318111220064707E7878759
:101EB0000D100587868606055C0406860604143028
:101EC00009E7272626260787061F00062887878713
:101ED000E707010D1000041D81092C0589898988F7
:101EE000420D2105138C8C051E87F40D1F84803054
:101EF0000911031006878A8A8A810C22830D4D6A94
:101F00000D1F81818B1512882F32812A0E278FC6D3
:101F1000050D12000419121D80181EBE3D131F80EE
:101F2000BF370F1F9F9FFA0E2016C1BEBEBEDDFF3A
:101F300080FBFB87FFFFC7ABABABF7FF83FBE70D76
:101F40003D6513100880F6F6E699FFF7186C08DF78
:101F5000FFE3DFBFDFE3F317051FFD0DFF00040DF7
:101F6000FF00040DFF0004FD00081DC4091D0C0442
:101F70002D00036D120C1E00EE0910060808040067
:101F80000F13110C10050A0A0A010C22030D3D3C27
:101F90000B3E0F711B2D410C32012A0E310F8007B1
:101FA0000D8800081C08FCFC04B4B4B4F472187E5C
:101FB00004501820160CF4F4F4ECFC04DCDC3CFCBB
:101FC000FC3C5C5C5CBCFC1CDC3C0D3D6E18321CBB
:101FD00018213613CCFC1753DCBC24031DFC040170
:101FE0000E12FC0008101607078445454585078733
:101FF0004744458707C7040407C707C6122005469C
:1020000007040703300506050505093104420708E2
:1020100062040E1305041D5124021E07800EFF07E3
:1020200000040DFF00040DFF00040D8F00081D6E5D
:10203000181013A2A2A262E060A0A3A260E020E3B5
:10204000E3E020E021122005A1E0E3E0033005E118
:10205000E2E2E209310442E00862E30E13E2E31D2A
:1020600051240E33E0000C10163F3F362D2D2D333A
:102070003F203B3B3B203F38372F37383F20120370
:102080002F2F3F010DFF00040D3200146D000C2DA9
:10209000F40B32C70C11061307870461121C0626C5
:1020A00026C607E7F30B5EC600041C042727E600DC
:1020B000041C040726E7350C1C04E747874A14ADC7
:1020C0004E040D2400048D00146DD0032DCA032E80
:1020D00007DC071F030C000411021F000F741252CB
:1020E0000F12320F1E6D200B7E0F4214210A7E0F3D
:1020F00042040D28000B0DFF00147D00141C04E0A9
:10210000E02362043C0463E02306042DFA03300854
:10211000A3E060A3A3A0601862A01E1DE203100448
:1021200022E061241C0661E0A1A2221E0412E10645
:102130004004E1E0633C22621E1D980C011C010E6C
:1021400012E0001420083F3F203D3D3D3E065F3930
:1021500026FA035D1204310C41185D18043D240475
:1021600011322DEF031F2F2023041006302F2F2FA5
:102170003010133E3D18011E800EFF3F00140DFF6E
:1021800000040D9000041DF80B5C05ECDCBC04069B
:102190000C5C060CF4B4B42C060C4DE20B11065F7B
:1021A00034CC240C12CC12526C062D2E0CB2041E10
:1021B0000D2A000C8D00043C0A0707C447474784DA
:1021C00007C4060C2DFA0B300844078744444787A0
:1021D0001862471E1DE20B1004C50786241C0686E4
:1021E000074645C51E0C12060640040607843C221D
:1021F000851E0D2A000C0DFF00180DFF00046D0058
:102200001C6DD0132DCA132E87DC131F838C001472
:1022100011021F808F6829528F12328F1E6D491351
:102220003D0A142D0114310A7E8F42140D2800142A
:102230008D001C6DD0134D06141EE0D01352E00C1F
:102240004DE8134D9E2C6D24144D5E222D9E2C1CAA
:1022500004FFBE8035146C0680FDFBFD8042140D2A
:102260002900140DFF001C0DFF00040D15F7231DA0
:10227000E5231E0790255E07EB1B5DFD233DFD1B3F
:102280004D0930211E5E771B24A1244136AD273035
:102290000D300024ADF12B5DEF237DFD2B610CCDC6
:1022A0000F24021506180D1F00087DF82B4DF22B88
:1022B000AD780BA11E4D042C4D900F5D96133D9CE7
:1022C0000B411E5D9C0B1D4C106D2E2C3A7FB441B2
:1022D000063C04070870340C0E115F0003ED180370
:1022E0002006FC24246498062C0A240400F84444A4
:1022F00044F8004E131EF8E0137EC0E0131D472380
:1023000012041E31184DC6261E98462752C8365054
:1023100006FC081020FC360C061B080464241880F8
:1023200003E1802D42304F01004C30810C611AA135
:102330002652001872000C011E360122800D1B353A
:10234000041D4823100EE2DE3EDEE2FE02DADADA97
:10235000FAFE66063F36FE75230D3180130131808B
:10236000220301200F02FB132342FA02F20A0B0B95
:10237000F20202120D3A00140D31BB03CD09280DF3
:10238000FF00040DFF00040DE800041DDB364D08BE
:1023900005452041F60D3680170D3180043DCB2BCD
:1023A0001EFD270D5C0BBD05FD0DF5F4F40DFDFDC7
:1023B00075310D640004328701328404400686853D
:1023C000858586110DFF00040D3D00040172010D8D
:1023D0002800070D16DC031E0006045200122C060E
:1023E000F8042424E8A32B013F805DEC0B9D10240E
:1023F0001EF016211C04F000318A101C049100F913
:10240000EC1F5E0912081C08F801E101F800F12E2A
:10241000331EF13B231EF9FA0400063D080BF908B0
:1024200008804DCE231E0372116202063DEA232D61
:10243000FE235201126D3A0C11026D10244DFF1F44
:10244000413EF203060D4980040D4E001C01760149
:102450000DFF00040D2180030E75800004BC0E806A
:10246000C0E0F0F8FEFE7F3F1F1E0C049D033D718F
:10247000324D89325D8336310C4D4B1C5D8F173DDB
:10248000B5034DBF324DA7320D2200041C0F0202CE
:102490000E1E7FFFFEF0F0F87C3E1F1F2E37CF038D
:1024A000FF95343D89341EE3092B1C042100E3C24F
:1024B0002C1E2395301E93A7301E639B345E23B9D8
:1024C000301C08F19292921100F3A12B3C04F2000F
:1024D000F3B5033EF0BD033006708000807040010C
:1024E00018803208011E0B802161016D651D1E02DE
:1024F000CD1F1E03F73761065202063DE51F511E30
:1025000041244D9719412A411E412452001A0EFFC1
:08251000050004AD03260000E4
:0400000500000101F5
:00000001FF
