:020000040000FA
:10000000E8060020010100000501000007010000D2
:1000100009010000090100000901000000000000C2
:1000200000000000000000000000000009010000C6
:1000300009010000000000000901000009010000A2
:100040000901000009010000090100000901000088
:1000500009010000F50A0000090100000901000083
:100060000901000009010000090100000901000068
:100070000901000009010000090100000901000058
:100080000901000009010000090100000901000048
:100090000901000009010000090100000901000038
:1000A0000901000009010000090100000901000028
:1000B0000901000009010000090100000901000018
:1000C0000901000009010000090100000901000008
:1000D00009010000090100000901000009010000F8
:1000E00009010000090100000901000009010000E8
:1000F00009010000090100000901000009010000D8
:1001000000F004B8FEE7FEE7FEE70000DFF80CD0E1
:1001100000F040F900480047950B0000E806002079
:10012000EFF3108072B67047EFF310807047EFF373
:10013000108062B6704730BF704780F311887047F7
:10014000EFF311807047F0B480EA0102D20F430050
:10015000B3EB410F02D20346084619464B0042D08A
:10016000C30DDDB2C1F3C7542C1B202C35DAC1F30B
:10017000160141F4000502B16D42C4F1200605FAF2
:1001800006F125412844B3EBD05F23D0C2B1012C46
:10019000A0EBC35009DCF0BC4FF0004202EAC352AE
:1001A00000F50000DBB200F0C6B8400000F180703E
:1001B00000EBC350A0F1807040EAD170490009E023
:1001C000490841EAC071A0EBC35000F500004008A7
:1001D00000EBC350F0BC00F0A5B85142012303EB83
:1001E0004101801AF6E7F0BC704781F00041AAE7B0
:1001F00080F00040A7E780EA010210B502F000425B
:10020000400001D04B0001D1002010BD4FEA106129
:1002100001EB1361C0F35600C3F3560340F4000032
:1002200043F40003A0FB0330A1F17F014FEA00403B
:100230001C0401D000F1010050EA134001D4400039
:10024000491EC3B20C0604EBD010401C4008802BA2
:1002500001D120F00100002900DA0020104310BD78
:1002600080EA010202F0004330B430F0004221F095
:10027000004015D0A0B1C0F3C754C2F3C755C2F3B4
:100280001601C0F316002D1B41F4000140F40000DC
:100290007D35814201D36D1C00E04900002D02DA5A
:1002A00030BC002070474FF400020024814201D38B
:1002B000091A144352084FEA4101F7D151B1814262
:1002C00002D14FF0004105E002D24FF0010101E000
:1002D0006FF0010104EBC55030BC184400F022B8A7
:1002E000C10F80EAE0700844CA079623002100F09D
:1002F00022B896230022114600F01DB820F00040DD
:10030000C10DC0F3160040F400007F2901DA00207F
:100310007047962903DCC1F19601C84070479639B1
:10032000884070470029A8BF7047401C490008BF9B
:1003300020F00100704710B4B0FA80FC00FA0CF015
:1003400050EA010404BF10BC704749B1CCF120044D
:1003500021FA04F411FA0CF118BF012121430843DA
:10036000A3EB0C01CB1D4FEA00614FEA102042BF06
:10037000002010BC704700EBC35010440029A4BFFC
:1003800010BC7047401C490008BF20F0010010BCA1
:1003900070470000064C074D06E0E06840F001039E
:1003A00094E8070098471034AC42F6D3FFF7B2FE4A
:1003B000200F0000400F000070B501EB020410F8A0
:1003C000015B15F0070301D110F8013B2A1106D19A
:1003D00010F8012B03E010F8016B01F8016B5B1EB4
:1003E000F9D12B0706D4002301E001F8013B521E8E
:1003F000FBD50CE010F8013B02F10202A1EB030374
:1004000003E013F8015B01F8015B521EF9D5A1422C
:10041000D5D3002070BD0000F0B5CC0801F0070571
:10042000A3F1200100EBC4145E291DD803EB830166
:100430000A44A03A0D4E0021C5F1080ED3B2375D33
:1004400003FA05FC27EA0C073755371923FA0EF390
:1004500097F880C0491C2CEA030C641C521CC9B2DA
:1004600087F880C00529E9D3801DF0BDE801002090
:10047000F0B5CC0801F00705A3F1200100EBC4148E
:100480005E291DD803EB83010A44A03A0D4E0021DA
:10049000C5F1080ED3B2375D03FA05FC47EA0C0735
:1004A0003755371923FA0EF397F880C0491C4CEAE8
:1004B000030C641C521CC9B287F880C00529E9D31B
:1004C000801DF0BDE801002010B5064C0122114648
:1004D000204600F0D1FA2046FD22BDE8104002215E
:1004E00000F0CABA00D0034010B5064CFE2201212C
:1004F000204600F0C1FA20460222BDE81040114615
:1005000000F0BABA00D003402DE9F0411D4C00269E
:100510001D4F4FF48068A660207880281AD126707D
:1005200060781A4D401C607001221146284600F088
:10053000A3FA02221146284600F09EFA607800F0E5
:10054000070040F0B8006070C0B200F06BF94020C6
:1005500000F068F920783F2801D8FFF7B5FF207830
:10056000402801D3FFF7C0FFA068385C00F084F991
:100570002078401C2070A068401CA0604045CBD370
:10058000BDE8F08100000020E801002000D0034019
:100590002DE9F047089C05460F46164698468242CC
:1005A0001FD1B8450ED309E03946284614B100F0F2
:1005B000B5F901E000F0A2F97F1CFFB24745F3D97D
:1005C000BDE8F087464609E03146284614B100F000
:1005D000A5F901E000F092F9761CF6B2BE42F3D91B
:1005E000EEE7701BFFF77CFE8146A8EB0700FFF7E4
:1005F00077FE4946FFF734FE81463046FFF779FE25
:100600004946FFF7F8FD07464046FFF772FE3946B8
:10061000FFF7EBFD0746AE4245D920E0284674B10E
:10062000FFF767FE4946FFF7E6FD3946FFF78BFD0A
:10063000FFF764FEC1B2284600F070F90DE0FFF745
:1006400058FE4946FFF7D7FD3946FFF77CFDFFF717
:1006500055FEC1B2284600F051F96D1CEDB2B5420D
:10066000DCD9ADE7304674B1FFF743FE4946FFF7EA
:10067000C2FD3946FFF767FDFFF740FEC1B23046C5
:1006800000F04CF90DE0FFF734FE4946FFF7B3FDEB
:100690003946FFF758FDFFF731FEC1B2304600F092
:1006A0002DF9761CF6B2AE42DCD989E72DE9F0438C
:1006B000DDF81C90884617461E46904202D9014636
:1006C00038460F46B04502D94146B0460E4605466B
:1006D00011E044460BE0B9F1000F2146284602D054
:1006E00000F01CF901E000F009F9641CE4B2B44226
:1006F000F1D96D1CEDB2BD42EBD9BDE8F08370B508
:100700000646002500242146284616B100F006F9C9
:1007100001E000F0F3F8641CE4B23F2CF3D96D1C47
:10072000EDB27F2DEED970BD70B5384C204600F08B
:10073000ABF9364DC035284600F0A6F933482038CD
:1007400000F0A2F9204600F09FF9284600F09CF93D
:10075000284600F099F92D48403000F095F92C4CCE
:100760008021204600F07AF920212A4800F076F90D
:100770000221204600F072F9274D0421284600F09E
:100780006DF90121284600F069F90221284600F0A0
:1007900065F9FF21214800F061F90422114628463D
:1007A00000F06AF901221146284600F065F902229C
:1007B0001146284600F060F9FD220221204600F093
:1007C0005BF9174E3046401EFDD2C02000F02AF8DB
:1007D0003446641EFDD2402000F024F834463046F2
:1007E000401EFDD2B82000F01DF8641EFDD23F204F
:1007F00000F018F8FE220121284600F03DF92846B5
:10080000BDE87040FD22022100F036B94000002012
:10081000006002400050024000D0034000700240DF
:10082000A086010070B50446DF2220210F4800F0A9
:1008300023F90F4D80221146284600F01DF90D497D
:10084000C1F8FC430A20401EFDD2C1F8FC430A2037
:10085000401EFDD2C1F8FC43C1F8FC432846BDE868
:1008600070407F22802100F007B900000050024054
:10087000006002400070024070B50446202211461C
:100880000E4800F0F9F80E4D80221146284600F07F
:10089000F3F80C49C1F8FC430A20401EFDD2C1F810
:1008A000FC430A20401EFDD2C1F8FC432846BDE8A7
:1008B00070407F22802100F0DFB80000005002402D
:1008C0000060024000700240F0B505460F46144635
:1008D0001E460BE0084A3946284616B1FFF7C8FD08
:1008E00001E0FFF799FDAD1DEDB2641C2378002BEC
:1008F000F0D12846F0BD00000C00002010B5CA0859
:10090000054B00EBC21001F007011A5C01248C407A
:10091000A2431A5410BD0000E801002010B5CA0817
:10092000054B00EBC21001F007011A5C01248C405A
:1009300022431A5410BD0000E8010020D0F8003412
:1009400012F0010F14BF0B438B43C0F8003412F0B8
:10095000020FD0F8202414BF114322EA0101C0F88D
:1009600020147047D0F800C512F0010F14BF4CEAF4
:10097000010C2CEA010CC0F800C5D0F804C512F037
:10098000020F14BF4CEA010C2CEA010CC0F804C59C
:10099000D0F808C512F0040F14BF4CEA010C2CEA81
:1009A000010CC0F808C512F0080FD0F8182514BFC4
:1009B0000A438A43C0F81825D0F80C2513F0010F1C
:1009C00014BF0A438A43C0F80C25D0F8102513F051
:1009D000020F14BF0A438A43C0F81025D0F814252B
:1009E00013F0040F14BF0A438A43C0F81425D0F84B
:1009F0001C2513F0080F14BF0A438A43C0F81C25B6
:100A0000D0F82825002B0CBF114322EA0101C0F8C1
:100A1000281570470F4AC0F30741D26E01238B405F
:100A20001A420D4A1ABF02EBC1014A6852F831203E
:100A3000C0F3072102F22C53D2F82C254FF00F0CF3
:100A40000CFA01FC00F00F0022EA0C02884010436F
:100A50001860704700E00F40DC0C000030B5044621
:100A60000D4608230122FFF77DFF29462046BDE8F9
:100A700030400122FFF762BF40F82120704710B5D7
:100A8000FFF755FBC0B210BD4FF0704181430CD051
:100A90000F49020F51F822100A6883B2C0F30440D4
:100AA00003FA00F0104308607047C0F307230949B8
:100AB000C0B2194401F07043C1F3130143EA41117C
:100AC00041EA800040F0007001220260704700009F
:100AD000700D000000E60F40816911F0100F0CBF8F
:100AE00000684FF0FF307047826912F0200FFBD191
:100AF000016070472DE9F0414FF0807568691A4E2A
:100B0000C26C01213046904769690A6D0146304642
:100B100090474FF04027154C1EE03046FFF7DCFFB2
:100B2000412811D17F2280213846FFF7A5FF002000
:100B3000401CA042FCD3802211463846FFF79CFFA0
:100B40000020401CA042FCD33046FFF7C5FFC1B2D5
:100B50006869C26B064890476869C16A3046884731
:100B60000028DAD1BDE8F08100C0004080969800EE
:100B700000D0004002E008C8121F08C1002AFAD1C4
:100B800070477047002001E001C1121F002AFBD10D
:100B9000704700002DE9F8434FF08074606CC16D20
:100BA00042488847606C816941488847606C816928
:100BB0003F48C01D88474FF0402680213046FFF750
:100BC0004DFF0120FFF726FF40F20140FFF722FF13
:100BD0003848FFF71FFF3848FFF71CFF606C81693A
:100BE00036488847606C81693448401C8847FFF765
:100BF00046FF206A0321426D30469047206A0C214F
:100C0000426D2F489047606C006E804761692D4FA0
:100C10004D694FF416580146602342463846A847AE
:100C2000606C006E8047616942464D69DFF89880CC
:100C3000014660234046A847A06C016815208847FC
:100C400060695021426C3846904760695021426C7F
:100C500040469047FFF768FD0020FFF750FD012355
:100C6000009314232D211A460846FFF71FFD012388
:100C700016A219462820FFF727FE01230093082318
:100C800002211A460846FFF783FCFFF73DFC124C91
:100C90007F2280213046FFF7EFFE41213846FFF7E3
:100CA00023FF0020401CA042FCD3F1E7513D800708
:100CB0000100002001080300010C030001000010E6
:100CC0000070004000C0004000D000404D696E68D8
:100CD00020544875204D54008096980000400040F4
:100CE000008005400050004000900540006000403A
:100CF00000A005400070004000B0054000400240E8
:100D000000C005400050024000D005400060024095
:100D100000E005400070024000F0054000D00340B4
:100D2000000006400010064000100640002006406B
:100D300000200640003006400030064000400640DB
:100D4000004006400050064000500640006006404B
:100D50000060064010E00F4014E00F401CE00F4020
:100D600010E00F4040E00F4044E00F4048E00F40EB
:100D700000E10F4004E10F4008E10F4010E10F4097
:100D800014E10F4018E10F4020E10F4024E10F4033
:100D900028E10F4040420F0000201C0080841E000C
:100DA00000802500999E36000040380000093D0073
:100DB00000803E0000004B00404B4C0000204E00E5
:100DC000808D5B0000C05D000080700000127A0022
:100DD00000007D0080969800001BB7000080BB00DB
:100DE000C0E8CE00647ADA000024F4000000FA00C3
:100DF00080A81201002D310100366E0140787D017E
:100E000001001000003800F002001000013800F06E
:100E100000011000003400F000021000013400F066
:100E200000041000023400F000011010003C00F03B
:100E300000021010003C00F000041010003C00F014
:100E400001000020000800F002000020010800F06E
:100E500004000020020800F008000020030800F051
:100E600010000020040800F020000020050800F019
:100E700040000020060800F080000020070800F075
:100E800000010020080800F040000000001400F0FD
:100E900000100010002000F000400010012000F0C1
:100EA00010001000004000F000010010004400F0AD
:100EB00000020010014400F010000010001C00F0BF
:100EC00020000010011C00F001001010000400F0D0
:100ED00002001010010400F004001010020400F0E1
:100EE00008001010030400F001000010001800F0CA
:100EF00002000010011800F004000010021800F0B9
:100F000000200020000C00F001001020002800F05C
:100F100008000000000000F000101000010000F0C8
:100F2000400F000000000020E8010000B8030000AE
:100F3000E8100000E801002000050000840B00001C
:100F40000113324F1A07021B147F021010242A7F4C
:100F50002A122313086462364955225033050324AC
:100F60001C22411441221C1F14083E0814080512BB
:100F7000082350302A080111236060100B2010084C
:100F800004023E5149453E14427F401029426151BE
:100F900049462141454B311814127F1027454545DC
:100FA000393C4A49493001710905033649494936F6
:100FB000064949291E3336362A56052E0814224181
:100FC0001401154122140828110201590502324961
:100FD00079413E7E1111117E7F321F3E41414122F7
:100FE0007F042A1C0F1F417F09090901141C497A3B
:100FF0007F86127F14417F412F2040413F017F4B6C
:101000001B7F4001280B7F020C027F7F0408107FAA
:101010003C2A3E32180D063E4151215E7F091929B6
:1010200046464618083101017F01013F2C18163F42
:101030001F2040201F3F4030403F631408146307C7
:1010400008700807C71345431974111A0246122085
:101050001441417F2E04020102045E12401909115D
:10106000181020545454787F484444383844444439
:1010700020051C487F3814101118087E0901020C45
:101080005252523E7F080404781C447D40A0134411
:101090003D257F10284419A2112F7C047C04787C04
:1010A0001E293C1B387CFE1B0808052A7C141B08E3
:1010B0004846180D20043F4440203C4040207C1C02
:1010C000A01B1C3CA01C3C442842100B0C50505050
:1010D0003C4464544C4434083641327F1441360851
:0810E0002510081008000000B3
:0400000500000101F5
:00000001FF
