:020000040000FA
:1000000018050020010100000501000007010000A3
:1000100009010000090100000901000000000000C2
:1000200000000000000000000000000009010000C6
:1000300009010000000000000901000009010000A2
:100040000901000009010000090100000901000088
:10005000090100003D0A000009010000090100003B
:100060000901000009010000090100000901000068
:100070000901000009010000090100000901000058
:100080000901000009010000090100000901000048
:100090000901000009010000090100000901000038
:1000A0000901000009010000090100000901000028
:1000B0000901000009010000090100000901000018
:1000C0000901000009010000090100000901000008
:1000D00009010000090100000901000009010000F8
:1000E00009010000090100000901000009010000E8
:1000F00009010000090100000901000009010000D8
:1001000000F004B8FEE7FEE7FEE70000DFF80CD0E1
:1001100000F040F900480047510D0000180500208C
:10012000EFF3108072B67047EFF310807047EFF373
:10013000108062B6704730BF704780F311887047F7
:10014000EFF311807047F0B480EA0102D20F430050
:10015000B3EB410F02D20346084619464B0042D08A
:10016000C30DDDB2C1F3C7542C1B202C35DAC1F30B
:10017000160141F4000502B16D42C4F1200605FAF2
:1001800006F125412844B3EBD05F23D0C2B1012C46
:10019000A0EBC35009DCF0BC4FF0004202EAC352AE
:1001A00000F50000DBB200F0C6B8400000F180703E
:1001B00000EBC350A0F1807040EAD170490009E023
:1001C000490841EAC071A0EBC35000F500004008A7
:1001D00000EBC350F0BC00F0A5B85142012303EB83
:1001E0004101801AF6E7F0BC704781F00041AAE7B0
:1001F00080F00040A7E780EA010210B502F000425B
:10020000400001D04B0001D1002010BD4FEA106129
:1002100001EB1361C0F35600C3F3560340F4000032
:1002200043F40003A0FB0330A1F17F014FEA00403B
:100230001C0401D000F1010050EA134001D4400039
:10024000491EC3B20C0604EBD010401C4008802BA2
:1002500001D120F00100002900DA0020104310BD78
:1002600080EA010202F0004330B430F0004221F095
:10027000004015D0A0B1C0F3C754C2F3C755C2F3B4
:100280001601C0F316002D1B41F4000140F40000DC
:100290007D35814201D36D1C00E04900002D02DA5A
:1002A00030BC002070474FF400020024814201D38B
:1002B000091A144352084FEA4101F7D151B1814262
:1002C00002D14FF0004105E002D24FF0010101E000
:1002D0006FF0010104EBC55030BC184400F022B8A7
:1002E000C10F80EAE0700844CA079623002100F09D
:1002F00022B896230022114600F01DB820F00040DD
:10030000C10DC0F3160040F400007F2901DA00207F
:100310007047962903DCC1F19601C84070479639B1
:10032000884070470029A8BF7047401C490008BF9B
:1003300020F00100704710B4B0FA80FC00FA0CF015
:1003400050EA010404BF10BC704749B1CCF120044D
:1003500021FA04F411FA0CF118BF012121430843DA
:10036000A3EB0C01CB1D4FEA00614FEA102042BF06
:10037000002010BC704700EBC35010440029A4BFFC
:1003800010BC7047401C490008BF20F0010010BCA1
:1003900070470000064C074D06E0E06840F001039E
:1003A00094E8070098471034AC42F6D3FFF7B2FE4A
:1003B000641300008413000010B5064C012211469E
:1003C000204600F0C8FA2046FD22BDE81040022178
:1003D00000F0C1BA00D0034010B5064CFE22012146
:1003E000204600F0B8FA20460222BDE8104011462F
:1003F00000F0B1BA00D003402DE9F0411D4C0026B9
:100400001D4F4FF48068A660207880281AD126708E
:1004100060781A4D401C607001221146284600F099
:100420009AFA02221146284600F095FA607800F008
:10043000070040F0B8006070C0B200F06BF94020D7
:1004400000F068F920783F2801D8FFF7B5FF207841
:10045000402801D3FFF7C0FFA068385C00F084F9A2
:100460002078401C2070A068401CA0604045CBD381
:10047000BDE8F081000000201400002000D00340FF
:100480002DE9F047089C05460F46164698468242DD
:100490001FD1B8450ED309E03946284614B100F003
:1004A0009BF901E000F088F97F1CFFB24745F3D9C2
:1004B000BDE8F087464609E03146284614B100F011
:1004C0008BF901E000F078F9761CF6B2BE42F3D960
:1004D000EEE7701BFFF704FF8146A8EB0700FFF76C
:1004E000FFFE4946FFF7BCFE81463046FFF701FF9D
:1004F0004946FFF780FE07464046FFF7FAFE3946B9
:10050000FFF773FE0746AE4245D920E0284674B196
:10051000FFF7EFFE4946FFF76EFE3946FFF713FE81
:10052000FFF7ECFEC1B2284600F056F90DE0FFF7E8
:10053000E0FE4946FFF75FFE3946FFF704FEFFF78E
:10054000DDFEC1B2284600F037F96D1CEDB2B542B0
:10055000DCD9ADE7304674B1FFF7CBFE4946FFF773
:100560004AFE3946FFF7EFFDFFF7C8FEC1B230463D
:1005700000F032F90DE0FFF7BCFE4946FFF73BFE05
:100580003946FFF7E0FDFFF7B9FEC1B2304600F093
:1005900013F9761CF6B2AE42DCD989E72DE9F043B7
:1005A000DDF81C90884617461E46904202D9014647
:1005B00038460F46B04502D94146B0460E4605467C
:1005C00011E044460BE0B9F1000F2146284602D065
:1005D00000F002F901E000F0EFF8641CE4B2B4426C
:1005E000F1D96D1CEDB2BD42EBD9BDE8F08370B519
:1005F0000646002500242146284616B100F0ECF8F6
:1006000001E000F0D9F8641CE4B23F2CF3D96D1C72
:10061000EDB27F2DEED970BD70B5384C204600F09C
:10062000DDF9364DC035284600F0D8F9334820387A
:1006300000F0D4F9204600F0D1F9284600F0CEF9B8
:10064000284600F0CBF92D48403000F0C7F92C4C7B
:100650008021204600F071F920212A4800F06DF930
:100660000221204600F069F9274D0421284600F0B8
:1006700064F90121284600F060F90221284600F0C3
:100680005CF9FF21214800F058F904221146284660
:1006900000F061F901221146284600F05CF90222BF
:1006A0001146284600F057F9FD220221204600F0AD
:1006B00052F9174E3046401EFDD2C02000F02AF8F5
:1006C0003446641EFDD2402000F024F83446304603
:1006D000401EFDD2B82000F01DF8641EFDD23F2060
:1006E00000F018F8FE220121284600F034F92846CF
:1006F000BDE87040FD22022100F02DB9400000202D
:10070000006002400050024000D0034000700240F0
:10071000A086010070B50446DF2220210F4800F0BA
:100720001AF90F4D80221146284600F014F90D49A0
:10073000C1F8FC436420401EFDD2C1F8FC43642094
:10074000401EFDD2C1F8FC43C1F8FC432846BDE879
:1007500070407F22802100F0FEB80000005002406F
:10076000006002400070024070B50446202211462D
:100770000E4800F0F0F80E4D80221146284600F099
:10078000EAF80C49C1F8FC436420401EFDD2C1F8D0
:10079000FC436420401EFDD2C1F8FC432846BDE85E
:1007A00070407F22802100F0D6B800000050024047
:1007B000006002400070024010B5CA08054B00EB13
:1007C000C21001F007011A5C01248C40A2431A54A4
:1007D00010BD00001400002010B5CA08054B00EB46
:1007E000C21001F007011A5C01248C4022431A5404
:1007F00010BD000014000020D0F8003412F0010FEA
:1008000014BF0B438B43C0F8003412F0020FD0F832
:10081000202414BF114322EA0101C0F820147047BC
:10082000D0F800C512F0010F14BF4CEA010C2CEAFD
:10083000010CC0F800C5D0F804C512F0020F14BFB7
:100840004CEA010C2CEA010CC0F804C5D0F808C52C
:1008500012F0040F14BF4CEA010C2CEA010CC0F892
:1008600008C512F0080FD0F8182514BF0A438A43B0
:10087000C0F81825D0F80C2513F0010F14BF0A4357
:100880008A43C0F80C25D0F8102513F0020F14BFCE
:100890000A438A43C0F81025D0F8142513F0040F3A
:1008A00014BF0A438A43C0F81425D0F81C2513F05E
:1008B000080F14BF0A438A43C0F81C25D0F8282526
:1008C000002B0CBF114322EA0101C0F82815704724
:1008D0000F4AC0F30741D26E01238B401A420D4AE2
:1008E0001ABF02EBC1014A6852F83120C0F3072158
:1008F00002F22C53D2F82C254FF00F0C0CFA01FC0D
:1009000000F00F0022EA0C02884010431860704784
:1009100000E00F400C11000050F82100704730B586
:1009200004460D460022FFF767FF29462046BDE832
:10093000304008230122FFF773BF30B504460D464F
:1009400008230122FFF76CFF29462046BDE830400E
:100950000122FFF751BF40F82120704710B5FFF783
:10096000E6FBC0B210BD00002DE9F0410024184F95
:10097000184E1025EAB2F0213846FFF7ECFF0121AE
:100980003046FFF7C9FFC8B9641CE4B20221304603
:10099000FFF7C2FF90B9641CE4B204213046FFF7B0
:1009A000BBFF58B9641CE4B208213046FFF7B4FF1E
:1009B00020B9641C6D00E4B2FF2DDBDD0022F021C4
:1009C0003846FFF7C8FF0448005DBDE8F08100002D
:1009D0000060004000400240DF1000004FF0704116
:1009E00081430CD00F49020F51F822100A6883B2DC
:1009F000C0F3044003FA00F0104308607047C0F3EE
:100A000007230949C0B2194401F07043C1F313012F
:100A100043EA411141EA800040F000700122026087
:100A200070470000A011000000E60F40816911F03E
:100A3000100F0CBF00684FF0FF30704770B54FF0DB
:100A400080746069164DC26C012128469047616927
:100A50000A6D0146284690474FF0402619E0284687
:100A6000FFF7E4FF462805D0482803D0502803D0DC
:100A7000532806D1802200E07F2280213046FFF7F4
:100A80006AFF2846FFF7D2FFC1B26069C26B054812
:100A900090476069C16A284688470028DFD170BD49
:100AA00000C0004000D000402DE9F04104460D4652
:100AB0004FF08076054F05E0706914F8011B02685D
:100AC000384690476D1EF7D2BDE8F08100D0004057
:100AD0004FF41651AFF300802DE9F04188464FF0F6
:100AE0008075696C124F0446096957F820008847E1
:100AF00000281AD0A7F10C000E4E50F824007060A8
:100B0000696C57F8240089698847686C006E8047D3
:100B1000696960234C69014642467068A04768696C
:100B2000C1697068BDE8F0410847BDE8F081000088
:100B3000001100000C0000200FB42DE9F04786B032
:100B40000FAD4FF02D0A0DF10409C1E0002400E0C3
:100B5000641C015D252901D00029F9D1214600F04E
:100B6000C9F80E9820440E9001782529EDD1401C3B
:100B7000002420260E900E9911F8010B0E913828B2
:100B800035D014DC332832D008DC25287ED030283C
:100B90002DD031282BD0322879D128E0342826D006
:100BA000352824D0362822D03728F5D11FE07028E8
:100BB00017D010DC39281AD0582812D0632822D038
:100BC0006428E9D101CD00210590002820DA4042B7
:100BD000012305901DE0732820D0752833D0782894
:100BE00073D101CD002110220590002312E011F8ED
:100BF000010C302801D104B9302604EB84014900EE
:100C000030394418B7E701CD0590012105A859E016
:100C100000230A220120DDF814C01BE001CD0026CC
:100C200000E0761C815D0029FBD1314600F062F8BE
:100C3000B4424DD9A41B03E001212AA000F05AF8C8
:100C4000641EF9D244E001CD00210A220590CCE7D0
:100C50004046641E00FB02F7B846674503D8B8FB60
:100C6000F2F78742F4D033B1641E302E03D109F875
:100C700001A0491C0023A71E0E2F06D2641E04D01B
:100C80004F467E54491C641EFBD101E017E01CE076
:100C900013B109F801A0491C4E46134F0BE0BCFBF1
:100CA000F0F3B3FBF2F402FB1433B0FBF2F03C6858
:100CB000E35C7354491C0028F1D101A802E00E98AE
:100CC0000121401E00F016F802E0052107A0F9E717
:100CD0000E98017800297FF439AF06B0BDE8F0071F
:100CE0005DF814FB20000000F01000004552524F48
:100CF000520000002DE9F0410546884600244FF0DF
:100D000080760A4F0DE0285D0A2804D170690D2114
:100D10000268786890477069295D02687868904732
:100D2000641C4445EFD32046BDE8F0810C00002050
:100D300002E008C8121F08C1002AFAD170477047A4
:100D4000002001E001C1121F002AFBD17047000002
:100D5000F8B54FF08074606CC16D4F488847606C87
:100D600081694E488847606C81694C48C01D88473E
:100D70004FF0402580212846FFF7DFFD0120FFF7D7
:100D8000A7FD40F20140FFF7A3FD4548FFF7A0FD96
:100D90004448FFF79DFD606C81694048C01C88474E
:100DA000F0214148FFF7C9FD606C81693B480F3075
:100DB00088473E4E0F213046FFF7B1FD0A2301223E
:100DC0000F213046FFF72CFD606C81693848884759
:100DD000606C81693648401C8847FFF7BFFD206A78
:100DE0000321426D28469047206A0C21426D31480C
:100DF0009047606C006E804761692F4F4D694FF4DA
:100E000016560146602332463846A847606C006E8D
:100E10008047616932464D69284E0146602330465D
:100E2000A847A06C01681520884760695021426C72
:100E30003846904760695021426C30469047FFF732
:100E4000EBFB0020FFF7D3FB0123009314232D219C
:100E50001A460846FFF7A2FB01230093082302214C
:100E60001A460846FFF70CFBFFF7C6FA2F2114A01D
:100E7000FFF71AFE0120FFF72BFE41F238211CA0DC
:100E8000FFF75AFEFFF770FDFF28FBD06169CA6BC0
:100E9000014630469047F5E7513D800701000020AC
:100EA00001080300010C0300006000400040024004
:100EB000010000100070004000C0004000D0004061
:100EC0004175746F6D61746564204469616C797AF1
:100ED000657220616E6420426C6F6F646C696E6530
:100EE0002057617368696E672053797374656D006C
:100EF0000A75444D412F41444320546573742025A5
:100F000064000000000000000000004F0000000727
:100F1000000700147F147F14242A7F2A1223130849
:100F2000646236495522500005030000001C22412E
:100F3000000041221C0014083E081408083E08085E
:100F40000050300000080808080800606000002019
:100F5000100804023E5149453E00427F4000426174
:100F60005149462141454B311814127F1027454500
:100F700045393C4A49493001710905033649494917
:100F800036064949291E0036360000005636000054
:100F900000081422411414141414412214080002ED
:100FA00001590502324979413E7E1111117E7F4976
:100FB0004949363E414141227F4141221C7F4949F6
:100FC00049417F090909013E4141497A7F080808E2
:100FD0007F00417F41002040413F017F08142241B2
:100FE0007F404040407F020C027F7F0408107F3E1C
:100FF0004141413E7F090909063E4151215E7F0979
:10100000192946464949493101017F01013F4040C4
:10101000403F1F2040201F3F4030403F63140814D2
:101020006307087008076151494543007F4141004B
:1010300002040810200041417F0004020102044024
:1010400040404040000102040020545454787F483E
:101050004444383844444420384444487F38545445
:101060005418087E0901020C5252523E7F080404B3
:101070007800447D40002040443D007F102844001B
:1010800000417F40007C047C04787C0804047838AC
:10109000444444387C14141408081414147C7C0848
:1010A0000404084854545420043F4440203C404029
:1010B000207C1C2040201C3C4030403C4428102810
:1010C000440C5050503C4464544C44000836410099
:1010D00000007F00000041360800100810080031B1
:1010E000323355343536443738393C54304340FF79
:1010F0005013000000C0004000D0004000E000405D
:101100000100001002000010040000100040004028
:101110000080054000500040009005400060004005
:1011200000A005400070004000B0054000400240B3
:1011300000C005400050024000D005400060024061
:1011400000E005400070024000F0054000D0034080
:101150000000064000100640001006400020064037
:1011600000200640003006400030064000400640A7
:101170000040064000500640005006400060064017
:101180000060064010E00F4014E00F401CE00F40EC
:1011900010E00F4040E00F4044E00F4048E00F40B7
:1011A00000E10F4004E10F4008E10F4010E10F4063
:1011B00014E10F4018E10F4020E10F4024E10F40FF
:1011C00028E10F4040420F0000201C0080841E00D8
:1011D00000802500999E36000040380000093D003F
:1011E00000803E0000004B00404B4C0000204E00B1
:1011F000808D5B0000C05D000080700000127A00EE
:1012000000007D0080969800001BB7000080BB00A6
:10121000C0E8CE00647ADA000024F4000000FA008E
:1012200080A81201002D310100366E0140787D0149
:1012300001001000003800F002001000013800F03A
:1012400000011000003400F000021000013400F032
:1012500000041000023400F000011010003C00F007
:1012600000021010003C00F000041010003C00F0E0
:1012700001000020000800F002000020010800F03A
:1012800004000020020800F008000020030800F01D
:1012900010000020040800F020000020050800F0E5
:1012A00040000020060800F080000020070800F041
:1012B00000010020080800F040000000001400F0C9
:1012C00000100010002000F000400010012000F08D
:1012D00010001000004000F000010010004400F079
:1012E00000020010014400F010000010001C00F08B
:1012F00020000010011C00F001001010000400F09C
:1013000002001010010400F004001010020400F0AC
:1013100008001010030400F001000010001800F095
:1013200002000010011800F004000010021800F084
:1013300000200020000C00F001001020002800F028
:1013400008000000000000F000101000010000F094
:10135000303132333435363738396162636465662B
:1013600000000000841300000000002014000000B2
:10137000300D000098130000140000200405000048
:10138000400D000000000000000000000000000010
:08139000000000000000000055
:0400000500000101F5
:00000001FF
