:020000040000FA
:1000000000010020010100000501000007010000BF
:1000100009010000090100000901000000000000C2
:1000200000000000000000000000000009010000C6
:1000300009010000000000000901000009010000A2
:100040000901000009010000090100000901000088
:1000500009010000D50200000901000009010000AB
:100060000901000009010000090100000901000068
:100070000901000009010000090100000901000058
:100080000901000009010000090100000901000048
:100090000901000009010000090100000901000038
:1000A0000901000009010000090100000901000028
:1000B0000901000009010000090100000901000018
:1000C0000901000009010000090100000901000008
:1000D00009010000090100000901000009010000F8
:1000E00009010000090100000901000009010000E8
:1000F00009010000090100000901000009010000D8
:1001000000F004B8FEE7FEE7FEE70000DFF80CD0E1
:1001100000F01AF8004800477503000000010020B5
:10012000EFF3108072B67047EFF310807047EFF373
:10013000108062B6704730BF704780F311887047F7
:10014000EFF3118070470000064C074D06E0E068B1
:1001500040F0010394E8070098471034AC42F6D30E
:10016000FFF7D8FFF004000000050000D0F80034CD
:1001700012F0010F14BF0B438B43C0F8003412F090
:10018000020FD0F8202414BF114322EA0101C0F865
:1001900020147047D0F800C512F0010F14BF4CEACC
:1001A000010C2CEA010CC0F800C5D0F804C512F00F
:1001B000020F14BF4CEA010C2CEA010CC0F804C574
:1001C000D0F808C512F0040F14BF4CEA010C2CEA59
:1001D000010CC0F808C512F0080FD0F8182514BF9C
:1001E0000A438A43C0F81825D0F80C2513F0010FF4
:1001F00014BF0A438A43C0F80C25D0F8102513F029
:10020000020F14BF0A438A43C0F81025D0F8142502
:1002100013F0040F14BF0A438A43C0F81425D0F822
:100220001C2513F0080F14BF0A438A43C0F81C258D
:10023000D0F82825002B0CBF114322EA0101C0F899
:10024000281570470F4AC0F30741D26E01238B4037
:100250001A420D4A1ABF02EBC1014A6852F8312016
:10026000C0F3072102F22C53D2F82C254FF00F0CCB
:100270000CFA01FC00F00F0022EA0C028840104347
:100280001860704700E00F407804000030B5044665
:100290000D4608230122FFF77DFF29462046BDE8D1
:1002A00030400122FFF762BF40F82120704710B5AF
:1002B000FFF73DFFC0B210BD816911F0100F0CBFF8
:1002C00000684FF0FF307047826912F0200FFBD1B9
:1002D000016070472DE9F0414FF0807568691A4E52
:1002E000C26C01213046904769690A6D014630466B
:1002F00090474FF04027154C1EE03046FFF7DCFFDB
:10030000412811D17F2280213846FFF7CDFF002000
:10031000401CA042FCD3802211463846FFF7C4FFA0
:100320000020401CA042FCD33046FFF7C5FFC1B2FD
:100330006869C26B064890476869C16A3046884759
:100340000028DAD1BDE8F08100C000408096980016
:1003500000D0004002E008C8121F08C1002AFAD1EC
:1003600070477047002001E001C1121F002AFBD135
:10037000704700002DE9F0414FF08074606CC16D52
:1003800034488847606C816933488847606C81696C
:100390003148C01D88474FF0402680213046FFF786
:1003A00075FF0120FFF74EFF40F20140FFF74AFFC3
:1003B0002A48FFF747FF2A48FFF744FF606C81692E
:1003C00028488847606C81692648401C8847FFF7A9
:1003D0006EFF206A0321426D30469047206A0C214F
:1003E000426D21489047606C006E804761691F4FE5
:1003F0004D694FF416580146602342463846A847D7
:10040000606C006E8047616942464D69DFF860802C
:10041000014660234046A847A06C01681520884724
:1004200060695021426C3846904760695021426CA7
:10043000404690470F4C7F2280213046FFF734FF23
:1004400041213846FFF740FF0020401CA042FCD36A
:10045000F1E70000513D8007010000200108030082
:10046000010C0300010000100070004000C00040BB
:1004700000D0004080969800004000400080054079
:1004800000500040009005400060004000A0054082
:100490000070004000B005400040024000C0054030
:1004A0000050024000D005400060024000E00540DE
:1004B0000070024000F0054000D0034000000640FC
:1004C00000100640001006400020064000200640B4
:1004D0000030064000300640004006400040064024
:1004E0000050064000500640006006400060064094
:1004F000000500000000002000010000640300006F
:0400000500000101F5
:00000001FF
