:020000040000FA
:10000000483D00200101000005010000070100003B
:1000100009010000090100000901000000000000C2
:1000200000000000000000000000000009010000C6
:1000300009010000000000000901000009010000A2
:100040000901000009010000090100000901000088
:100050000901000011090000090100000901000068
:100060000901000009010000090100000901000068
:100070000901000009010000090100000901000058
:100080000901000009010000090100000901000048
:100090000901000009010000090100000901000038
:1000A0000901000009010000090100000901000028
:1000B0000901000009010000090100000901000018
:1000C0000901000009010000090100000901000008
:1000D00009010000090100000901000009010000F8
:1000E00009010000090100000901000009010000E8
:1000F00009010000090100000901000009010000D8
:1001000000F004B8FEE7FEE7FEE70000DFF80CD0E1
:1001100000F01EF800480047E50A0000483D0020B6
:100120000138FDD170470000EFF3108072B67047C0
:10013000EFF310807047EFF3108062B6704730BF66
:10014000704780F311887047EFF31180704700000B
:10015000064C074D06E0E06840F0010394E8070014
:1001600098471034AC42F6D3FFF7D4FFB015000027
:10017000D015000070B58C1810F8015B15F0030263
:1001800001D110F8012B2B1106D110F8013B03E02F
:1001900010F8016B01F8016B521EF9D1B3B110F8E0
:1001A000012B05F00C058A1A0C2D04D110F8015B07
:1001B000A2EB052201E0A2EB851203F1020303E0AA
:1001C00012F8015B01F8015B5B1EF9D5A142D3D3A4
:1001D000002070BD2DE9F041044608464FEAE17C5D
:1001E00001EB5C7C4FEAEC0C04EBCC174FEAE17CB2
:1001F00001EB5C7C4FEAEC0CA1EBCC0C0CF0FF01AA
:10020000202B2DDB7E2B2BDCA3F1200000EB8000CC
:100210000244002522E0D6B21348C05D06FA01FC74
:100220008CF0FF0C00EA0C00DFF83CC00CF8070073
:1002300007F180001CF80000C1F1080C46FA0CFC24
:100240008CF0FF0C00EA0C00DFF81C8007F1800C3A
:1002500008F80C007F1C521C681CC5B2052DDADBA7
:10026000A01DBDE8F0810000443800202DE9F041D8
:10027000044608464FEAE17C01EB5C7C4FEAEC0C5B
:1002800004EBCC174FEAE17C01EB5C7C4FEAEC0C11
:10029000A1EBCC0C0CF0FF01202B29DB7E2B27DC03
:1002A000A3F1200000EB8000024400251EE0167838
:1002B0001148C05D06FA01FC40EA0C00DFF838C0C6
:1002C0000CF8070007F180001CF800C0C1F108001D
:1002D00046FA00F04CEA000CDFF81C8007F18000C1
:1002E00008F800C07F1C521C681CC5B2052DDEDB5F
:1002F000A01DBDE8F08100004438002010B50122A7
:100300001146044800F06DFAFD220221014800F078
:1003100068FA10BD00D0034010B5FE220121044848
:1003200000F05FFA02221146014800F05AFA10BDAF
:1003300000D0034010B500202649086043E026485D
:100340000078802823D100202349087023480078B2
:10035000401C2249087001221146214800F041FA50
:10036000022211461E4800F03CFA1C48007800F0BA
:1003700007001A4908700846007840F0B800087075
:100380000846007800F0B6F8402000F0B3F81248B4
:1003900000783F2801DCFFF7B1FF0F4800784028C4
:1003A00001DBFFF7B9FF0F490A4A1268885C00F0C9
:1003B000CDF809480078401C0749087005480068D6
:1003C000401C0449086003480068B0F5806FB6D34C
:1003D00010BD00002C0000200000002001000020C3
:1003E00000D0034044380020002103E0425C034B6E
:1003F0005A54491CB1F5806FF8DB7047443800202F
:1004000010B5364800F054FA3448C03000F050FAC5
:100410003248203800F04CFA304800F049FA2F48B2
:10042000C03000F045FA2D48C03000F041FA2B48AA
:10043000403000F03DFA8021294800F0C4F9202125
:10044000284800F0C0F90221254800F0BCF9042139
:10045000254800F0B8F90121234800F0B4F9022141
:10046000214800F0B0F9FF21204800F0ACF9042247
:1004700011461D4800F0B5F9012211461A4800F056
:10048000B0F902221146184800F0ABF9FD22022112
:10049000134800F0A6F9164800F0ECFAC02000F06E
:1004A00029F8134800F0E6FA402000F023F810483D
:1004B00000F0E0FAB82000F01DF80D4800F0DAFA7C
:1004C0003F2000F017F8FE220121074800F089F9CB
:1004D000FD220221044800F084F910BD40000020F4
:1004E000006002400050024000D003400070024013
:1004F000A086010010B50446DF2220210F4800F03D
:1005000070F9802211460E4800F06BF90D48046026
:100510004FF0640000F0AEFA0B48C0F8FC436420D2
:1005200000F0A8FA0848C0F8FC43C0F8FC437F225A
:100530008021034800F055F910BD00000050024032
:1005400000600240FC7302400070024010B5044697
:10055000202211460E4800F044F9802211460D4831
:1005600000F03FF90C4804604FF0640000F082FA9C
:100570000A48C0F8FC43642000F07CFA0648046096
:100580004FF07F024FF08001024800F02AF910BDC1
:100590000050024000600240FC73024000700240C4
:1005A0002DE9F04704460D4616461F46DDF820802B
:1005B000B8F1000F20D0BA461AE00A20B6FBF0F1DD
:1005C00000FB1160303000F0FF090A20B6FBF0F6A6
:1005D000AAF1010101EB410104EB4101C8B24B4614
:1005E000184A2946FFF742FEAAF1010000F0FF0A6F
:1005F000BAF1000FE1DC1FE0BA461AE00A20B6FBB0
:10060000F0F100FB1160303000F0FF090A20B6FB6A
:10061000F0F6AAF1010101EB410104EB4101C8B27E
:100620004B46084A2946FFF7D5FDAAF1010000F024
:10063000FF0ABAF1000FE1DC07EB470004EB4000D2
:10064000BDE8F08750110000F0B504460D4616468F
:100650001F4610E037B13378094A29462046FFF794
:1006600005FE05E03378064A29462046FFF7B2FD2D
:10067000A01DC4B2761C30780028EBD12046F0BD16
:1006800050110000D0F8003412F0010F14BF0B43DA
:100690008B43C0F8003412F0020FD0F8202414BFAE
:1006A000114322EA0101C0F820147047D0F800C5B8
:1006B00012F0010F14BF4CEA010C2CEA010CC0F837
:1006C00000C5D0F804C512F0020F14BF4CEA010CAB
:1006D0002CEA010CC0F804C5D0F808C512F0040FCC
:1006E00014BF4CEA010C2CEA010CC0F808C512F04A
:1006F000080FD0F8182514BF0A438A43C0F81825FC
:10070000D0F80C2513F0010F14BF0A438A43C0F838
:100710000C25D0F8102513F0020F14BF0A438A43AA
:10072000C0F81025D0F8142513F0040F14BF0A43A5
:100730008A43C0F81425D0F81C2513F0080F14BF05
:100740000A438A43C0F81C25D0F82825002B0CBF8B
:10075000114322EA0101C0F8281570470F4AC0F37F
:100760000741D26E01238B401A420D4A1ABF02EB99
:10077000C1014A6852F83120C0F3072102F22C531C
:10078000D2F82C254FF00F0C0CFA01FC00F00F00F2
:1007900022EA0C02884010431860704700E00F40C6
:1007A0005813000050F82100704730B504460D463C
:1007B0000022FFF767FF29462046BDE830400823A6
:1007C0000122FFF773BF30B504460D46082301220E
:1007D000FFF76CFF29462046BDE830400122FFF7B5
:1007E00051BF40F82120704710B5FFF7A4FCC0B2FC
:1007F00010BD000070B50024102545E0EAB2F021DC
:100800002748FFF7EEFF01212648FFF7CBFF40B155
:100810002548FFF785FC01212248FFF7C3FF00B1FF
:1008200034E0601CC4B202211E48FFF7BBFF40B198
:100830001D48FFF775FC02211A48FFF7B3FF00B10E
:1008400024E0601CC4B204211648FFF7ABFF40B19E
:100850001548FFF765FC04211248FFF7A3FF00B11C
:1008600014E0601CC4B208210E48FFF79BFF40B1A2
:100870000D48FFF755FC08210A48FFF793FF00B128
:1008800004E0601CC4B26D00FF2DB7DD00BF002284
:10089000F0210348FFF7A5FF0448005D70BD00008C
:1008A0000060004000400240801A06002B13000048
:1008B0004FF0704181430CD00F49020F51F82210C4
:1008C0000A6883B2C0F3044003FA00F010430860E2
:1008D0007047C0F307230949C0B2194401F07043BF
:1008E000C1F3130143EA411141EA800040F0007076
:1008F0000122026070470000EC13000000E60F4088
:10090000816911F0100F0CBF00684FF0FF30704785
:1009100070B54FF0807040690121C26C2348904748
:1009200005464FF0807040692946026D1F48904788
:1009300033E01E48FFF7E4FF46280DD0482812D0C8
:10094000502802D053281CD114E07F2280214FF080
:100950004020FFF746FF14E0802211464FF0402070
:10096000FFF73FFF0DE0802211464FF04020FFF7D8
:1009700038FF06E0802211464FF04020FFF731FF9C
:1009800000BF00BF0948FFF7BBFFC4B24FF0807043
:1009900040692146C26B064890474FF0807040691D
:1009A000C16A024888470028C3D170BD00C000401A
:1009B00000D0004010B504464FF41651204600F018
:1009C00001F810BD2DE9F04104460D46184A52F8D1
:1009D00024004FF08072526C1169884708B9BDE855
:1009E000F08113480C3850F8240012490860104A6E
:1009F00052F824004FF08072526C916988474FF092
:100A00008071496C086E804707464FF080704069DE
:100A100060232A463946466906480068B0474FF0C9
:100A200080704069C169034800688847D7E70000C3
:100A30004C1300003C00002002E008C8121F08C14F
:100A4000002AFAD170477047002001E001C1121F4F
:100A5000002AFBD1704700000020044908700449B7
:100A6000087048708870C87070470000300000201F
:100A70002100002000BF0100A0F10100FBD1704760
:100A800000B5154800781549154A12788854FF209A
:100A90001149087012480078032802DDFFF7DCFFD7
:100AA00004E00F480078401C0D4908700B4800789E
:100AB0004FF41671484309494978C1EB011100EB25
:100AC00081000649897801EB810100EB410003496F
:100AD000C978084400BD000020000020210000204B
:100AE000300000202DE9F84300BF4FF08070406CCB
:100AF000C16DFF4888474FF08070406C8169FD48A8
:100B000088474FF08070406C8169FA48C01D884763
:100B100080214FF04020FFF756FE0120FFF71EFE18
:100B200040F20140FFF71AFEF348FFF717FEF348C3
:100B3000FFF714FE4FF08070406C8169ED48C01CD7
:100B40008847F021EE48FFF73EFE4FF08070406C82
:100B50008169E8480F3088470F21EA48FFF725FEF2
:100B60000A2301220F21E748FFF7A0FD4FF0807014
:100B7000406C8169E44888474FF08070406C81691F
:100B8000E148401C8847FFF72FFE4FF08070006A55
:100B90000321426D4FF0402090474FF08070006A73
:100BA0000C21426DD94890474FF08071496C086E16
:100BB000804780464FF08070406960234FF41652A2
:100BC0004146D0F814C0D248E0474FF08071496CDC
:100BD000086E804780464FF08070406960234FF474
:100BE00016524146D0F814C0CA48E0470120FFF72A
:100BF000E1FE4FF08070806C0168152088474FF04F
:100C0000807040695021426CC14890474FF080701D
:100C100040695021426CBF489047FFF7F1FBBE4846
:100C2000FFF7E2FBFFF786FBBC48FFF779FABC4809
:100C3000FFF7DAFBFFF77EFBB848FFF771FAB94818
:100C4000FFF7D2FBFFF776FB0124002600BF3FE051
:100C50000026FFF7CFFD402811D0442808D05528A2
:100C60000FD1012C01D104240CE0601EC4B209E0B4
:100C7000042C01D1012405E0601CC4B202E001266D
:100C800000E000BF00BF012C06D0022C0AD0032CCC
:100C900011D0042C1BD114E0A248FFF7A5FBFFF7ED
:100CA00049FB14E00EB1012513E09F48FFF79CFBC0
:100CB000FFF740FB0BE09D48FFF796FBFFF73AFB81
:100CC00005E09B48FFF790FBFFF734FB00BF00BF38
:100CD000BEE730E200260027FFF78CFD37284CD016
:100CE00009DCA0F13000072857D2DFE800F02A2EF7
:100CF00032363A3E420040281DD006DC382840D02B
:100D0000392842D03C2848D117E0432841D0442814
:100D100009D0552841D1012D00D13FE0681EC5B250
:100D2000FFF79AFE3AE0082D00D137E0681CC5B203
:100D3000FFF792FE32E0012630E00224FFF78CFE3E
:100D400085E700207B49087028E001207949087078
:100D500024E002207749087020E0032075490870DC
:100D60001CE004207349087018E0052071490870E0
:100D700014E006206F49087010E007206D490870E4
:100D80000CE008206B49087008E0092069490870E8
:100D900004E0FFF761FE012700E000BF00BF092D5E
:100DA00017D2DFE805F0870517293B4D5F718300F7
:100DB0006148FFF719FB5F480078FF2804D0FFF770
:100DC0005FFE5E49086004E0012F02D100205B490C
:100DD00008606FE05A48FFF707FB56480078FF2885
:100DE00004D0FFF74DFE5749086004E0012F02D1FF
:100DF0000020544908605DE05348FFF7F5FA4D487C
:100E00000078FF2804D0FFF73BFE5049086004E05B
:100E1000012F02D100204D4908604BE04C48FFF7FC
:100E2000E3FA44480078FF2804D0FFF729FE494937
:100E3000086004E0012F02D100204649086039E033
:100E40004548FFF7D1FA3B480078FF2804D0FFF768
:100E500017FE4249086004E0012F02D100203F49FB
:100E6000086027E03E48FFF7BFFA32480078FF28C5
:100E700004D0FFF705FE3B49086004E0012F02D1D2
:100E800000203849086015E03748FFF7ADFA2948D7
:100E90000078FF2804D0FFF7F3FD3449086004E030
:100EA000012F02D100203149086003E03048FFF7EC
:100EB0009BFA00BF00BF052D7EDA204800683C2168
:100EC000B0FBF1F801230093022342460D215F207D
:100ED000FFF766FB012327A20D216920FFF7B4FB72
:100EE000164800683C21B0FBF1F201FB120843E018
:100EF000513D80070100002001080300010C0300A0
:100F000000600040004002400100001000700040FE
:100F100000C0004000D0004041000020404B4C0089
:100F20004104002041080020410C00204110002015
:100F3000411400202000002041180020040000205F
:100F40004134002008000020413000200C00002027
:100F5000412C002010000020411C00201400002023
:100F60004120002018000020412400201C00002007
:100F7000412800203A00000001230093022342464A
:100F80000D216E20FFF70CFB6B4800683C21B0FB85
:100F9000F1F8012300930223424618215F20FFF756
:100FA000FFFA0123AFF2340218216920FFF74CFB4E
:100FB000614800683C2100E052E0B0FBF1F201FB27
:100FC0001208012300930223424618216E20FFF7E6
:100FD000E7FA5A4800683C21B0FBF1F8012300937E
:100FE0000223424623215F20FFF7DAFA0123AFF202
:100FF0007C0223216920FFF727FB504800683C2131
:10100000B0FBF1F201FB12080123009302234246D8
:1010100023216E20FFF7C4FA494800683C21B0FB49
:10102000F1F801230093022342462E215F20FFF7AF
:10103000B7FA0123AFF2C4022E216920FFF704FBA7
:101040003F4800683C21B0FBF1F201FB120801238C
:101050000093022342462E216E20FFF7A1FA68E09A
:10106000384800683C21B0FBF1F8012300930223CB
:1010700042460D215F20FFF793FA0123AFF20C12D5
:101080000D216920FFF7E0FA2E4800683C21B0FBF3
:10109000F1F201FB120801230093022342460D21C5
:1010A0006E20FFF77DFA284800683C21B0FBF1F87C
:1010B000012300930223424618215F20FFF770FAB4
:1010C0000123AFF2501218216920FFF7BDFA1E4824
:1010D00000683C21B0FBF1F201FB120801230093F0
:1010E0000223424618216E20FFF75AFA174800687B
:1010F0003C21B0FBF1F80123009302234246232157
:101100005F20FFF74DFA0123AFF2981223216920E7
:10111000FFF79AFA0D4800683C21B0FBF1F201FBA1
:101120001208012300930223424623216E20FFF779
:1011300037FAFFF7FFF8CDE5080000200C0000208B
:101140001000002014000020180000201C000020C7
:10115000000000000000004F00000007000700141E
:101160007F147F14242A7F2A1223130864623649CD
:101170005522500005030000001C224100004122BE
:101180001C0014083E081408083E080800503000EF
:101190000008080808080060600000201008040229
:1011A0003E5149453E00427F40004261514946213F
:1011B00041454B311814127F1027454545393C4AAB
:1011C00049493001710905033649494936064949FB
:1011D000291E003636000000563600000008142292
:1011E0004114141414144122140800020159050278
:1011F000324979413E7E1111117E7F494949363E7F
:10120000414141227F4141221C7F494949417F0997
:101210000909013E4141497A7F0808087F00417F62
:1012200041002040413F017F081422417F4040405F
:10123000407F020C027F7F0408107F3E4141413E07
:101240007F090909063E4151215E7F091929464659
:101250004949493101017F01013F4040403F1F2082
:1012600040201F3F4030403F63140814630708705C
:1012700008076151494543007F41410002040810BD
:10128000200041417F0004020102044040404040F0
:10129000000102040020545454787F4844443838F4
:1012A00044444420384444487F3854545418087EF9
:1012B0000901020C5252523E7F0804047800447D1A
:1012C00040002040443D007F1028440000417F4002
:1012D000007C047C04787C08040478384444443856
:1012E0007C14141408081414147C7C0804040848A2
:1012F00054545420043F4440203C4040207C1C2057
:1013000040201C3C4030403C44281028440C5050A5
:10131000503C4464544C44000836410000007F00B7
:1013200000004136080010081008005533323144DF
:101330003635343C39383740433054FF9C15000073
:1013400000C0004000D0004000E00040010000105C
:101350000200001004000010004000400080054022
:1013600000500040009005400060004000A0054093
:101370000070004000B005400040024000C0054041
:101380000050024000D005400060024000E00540EF
:101390000070024000F0054000D00340000006400D
:1013A00000100640001006400020064000200640C5
:1013B0000030064000300640004006400040064035
:1013C00000500640005006400060064000600640A5
:1013D00010E00F4014E00F401CE00F4010E00F4001
:1013E00040E00F4044E00F4048E00F4000E10F4074
:1013F00004E10F4008E10F4010E10F4014E10F40FD
:1014000018E10F4020E10F4024E10F4028E10F4098
:1014100040420F0000201C0080841E000080250038
:10142000999E36000040380000093D0000803E00D3
:1014300000004B00404B4C0000204E00808D5B00B4
:1014400000C05D000080700000127A0000007D0086
:1014500080969800001BB7000080BB00C0E8CE005B
:10146000647ADA000024F4000000FA0080A8120177
:10147000002D310100366E0140787D010100100021
:10148000003800F002001000013800F000011000E8
:10149000003400F000021000013400F000041000DD
:1014A000023400F000011010003C00F000021010A7
:1014B000003C00F000041010003C00F0010000208F
:1014C000000800F002000020010800F004000020E5
:1014D000020800F008000020030800F010000020BF
:1014E000040800F020000020050800F04000002063
:1014F000060800F080000020070800F0000100202E
:10150000080800F040000000001400F00010001077
:10151000002000F000400010012000F0100010003A
:10152000004000F000010010004400F00002001034
:10153000014400F010000010001C00F0200000101A
:10154000011C00F001001010000400F00200101057
:10155000010400F004001010020400F00800101054
:10156000030400F001000010001800F00200001059
:10157000011800F004000010021800F00020002004
:10158000000C00F001001020002800F0080000000E
:10159000000000F000101000010000F03031323384
:1015A000343536373839616263646566000000009F
:1015B000D015000000000020443800007401000035
:1015C000C02200004438002004050000480A000042
:1015D000120001125A04523C04921E0C2104031DF5
:1015E000FF0001027DF001027D7F0105111352C051
:1015F000010275000152FF01400AF03000C0DCDE3C
:101600001C00E0010519C5400801017F030101002C
:10161000CD10067F1E70701CD9000E217E634141E3
:101620006322003F604040603F773005183878F80B
:1016300001417F300DF1F00080FCFF7F03E0F0F10D
:10164000F19083F8F0A3100CF8080818B0E000E05F
:10165000A0E0C09F100AA0A000E80000E020201237
:101660003004606060AA1006F018180818C1100451
:10167000602060232115600560F020C03100051254
:101680008020F06084201A030F1F3F1F0F0F070FE9
:101690001F7FFFE0C083838380C0C7F7FF7F3F1FAA
:1016A000159203284005020202030732000B110DB8
:1016B00014070F0A0EC3C0C3B617C340BC200D01E8
:1016C00083C2020303C0C3C2C203011E310352031B
:1016D0003112030B061D020F180603071F3F3F229E
:1016E00007286301BA140B1818141300001D1010FA
:1016F0001F941104421011019A0119680277070121
:1017000049E8C9FA1006CF0F870FCF96520101633F
:1017100081810A0E55FF6A030D107A032188540D4A
:1017200060201098C8C40407C82819062B016680D9
:10173000980DFB797D3C9E128161D8261906F50D26
:1017400014CC051004F0F010011EF075031EF0B269
:1017500003F005C0603010191004C0E0300A1E30DC
:101760007B032124011F801C0801007CFEFFFF0E6B
:101770007003BB83FE2B01127F1005809F9F910198
:1017800010049F8E800A20098383868C9890808223
:1017900001110F2012818181838F9C9080878F9807
:1017A00090949C98BFA7241290010216808070121A
:1017B0001F9F9F1F1F9F1E1E9C9CA941A1111110BE
:1017C0009002110B01138002330101011580100CEE
:1017D0007F404F4A454F424F4748480630084040F7
:1017E000404F424D40101247160E557FEA050277D2
:1017F000E0010226FF011C0B03F7EFF703FF07BB15
:10180000BBBBB4033004FB03FB12B3DF031E500663
:1018100003DBDBDBFB18211A0224035CFD15040249
:1018200011C70132C60441066005C7C6C6C612B15B
:101830001E2101510C00061F070606C6C7013D8286
:101840000455FB1C04427F403C071E609606501363
:10185000FFD9B6B6B6CDFFFEFE80FEFEFF81EEEEEE
:10186000EE810C5006C0BFBFBFC01E051D30DD4C51
:1018700004011A26417F5C052010909012071F0179
:1018800061510310042101F1061C0A11011111F12B
:10189000111101F1FE0432F1120A2761E0E16E003C
:1018A0000518F9F0F0F98010060685848404072DE8
:1018B000EB0430098204040483000784121F80872C
:1018C000AD0312830C11121380800C42800642007B
:1018D000040D20C6083D6403F004FDFDF914B500B5
:1018E000140A112424241B000030308B123F801D69
:1018F000B1081007203F20000013182219141524E6
:1019000020061F2020201F1E0009280C330003047E
:10191000380403803FFFFF1C0906177F806C05C059
:10192000A090F89604200CF8102010F800F0888899
:1019300088F00C2C0540F800F8F308500700F84830
:10194000484808181C09F008080810000808090988
:10195000310C112A000B104848C830003840804034
:10196000388072FE01F926628001228304628309B5
:10197000B1061E81510532810CB28012410E811ECA
:101980006104214F02208F0111260D9100040112E4
:101990000132060441061DDC03620612B11E21015C
:1019A00081240D3700042C07002649494932540B85
:1019B0001D530B50067E1111117E0C1E3F11065255
:1019C0003F1E0D28C60B0D2F00041009FC9C6C6CEB
:1019D0006CDCFC0C06100CECFCECEC0CECECFC0CE9
:1019E000FCFC04211203239CFC017D5C0610137F88
:1019F0003F3F3F070383C7C7C3E1E1C1C7C7838335
:101A000007110E1B3F00041C0D1F9D1B1B1B9C1F61
:101A1000189B9B9B1B8D071E989207129C0C111202
:101A20003E9F9E074106421F040115016D5C071F82
:101A30008F864F03B9F412FF9C0C0466848FCF008D
:101A4000041EF1630E300503070F8FAC1F9F8F45F7
:101A50000C0C056FB1F0F0F100044D02040D1326DB
:101A6000060DFF00040DFF0004DD00081F006022CA
:101A70000B10042000F0061F1000C10B2C041010E6
:101A8000007A0F32F0120E2E6046101D4F0F1C1000
:101A900087C7C3E3E1F1717171F1E1E3C3C7876304
:101AA0000F0D1B00041015E062E4E4E463E0E7645A
:101AB0006464E4E0E0606760E0E0630C11122DDC38
:101AC0000F2DE10F210642E0040115016D00048E87
:101AD00003FF031C04C08000500F2D0C071D0204DF
:101AE0000E19030008180FFFC0FBFBFBC0FFFFDF50
:101AF000C0DFFFFFEC5522E63E2D280B2005DFDF7F
:101B0000DFE01E0C0920F3CCFFFCFBC7FBFC8009C7
:101B10001FFEF846104F0F1FCA0F500B7F7F7E3CF1
:101B20003C1E0F87C1E0940D6700085FFEFEB705FD
:101B30000DFF00080DFF00040D6E00040C1667FF7A
:101B40007F7FBFBFDFCFEFF7F7FBFBF7F7E1FDC10B
:101B50009FBF7F7F000C2006FDFC04F4150142F5B9
:101B600001410B0C05660404FCFD000C3E007B07E4
:101B7000198E1D55045E0386079DF9110D1100088D
:101B8000200DFE06EEDEEE06FE0E7676760E0C1CC0
:101B900005BE06FE06C00B11061DFA0D52F61830E2
:101BA0000C0EF6F6F6EEFEF6F606F6F60C112A84A4
:101BB0000DB6B636CEFEC6BE7EBEC6FEFE80ADF902
:101BC0000BED060C0D14000C1F8F8C9C03B28C06C1
:101BD00030068E8D8D8D8E0CB28F12410E811E615E
:101BE000040E4E8F000CAD4A0D1E6793055E37EE56
:101BF0000F15545FFBFBEE032D00040230E74F5D31
:101C0000F60F5F47E714141005F7F717D70113F71E
:101C1000370632370C110613F7770461121007D616
:101C2000D636F717D6061005F6F7F7F704100BD7D8
:101C3000D716D6D6F7F7D617D73C5005B777B717CC
:101C400042031DF717019EF700041C04080F0887C4
:101C50000A100D0C0C001F1F101E1E1E1F1F182126
:101C600022180C131C130C110250071F101D1D1DF0
:101C7000101232101E6DF00A2E10F50A40041710D3
:101C8000170A112420041616160D011D018E1F803F
:101C9000065C066251494946800C1C087F090919F7
:101CA00066007F860C1E41F40E1E40F40E410C416E
:101CB000184D9E0C411E7DFE172DF20F13417F1112
:101CC000B0067F0204027F1E0D1EFF154D800B1E05
:101CD00010DC0A8EB0000B7E40EE06600508484816
:101CE000D01811245E30E80A411E12303652900698
:101CF0007D240B711E012A801005010282C2C41DC1
:101D000099172DC017100C40408300C342424282F5
:101D100000C1063008430080434340801862401EE3
:101D20001DF6171004C2008124100A81004142C22E
:101D3000424100010640040100833C22821E052A24
:101D4000002C0A8685849F8480809818680C1D5D0D
:101D500018220106100B0619001F1212121000099A
:101D600006520C0C41181C080708100807001FAA8F
:101D70000C2DEC0C21041600F71D851815F4120F1C
:101D8000100C042501021F7F176DFE036C058FBF29
:101D9000BF8FBC070168010D86000413E72701BD52
:101DA0000004110862F7012D0C042006B7F717771D
:101DB000770E1005777676F6055C04F676F6000465
:101DC0002D12043005D6F777F61F70047777773831
:101DD0000D2900046C06050909090600044DBE031F
:101DE0001DE4031DD6034C0413131F0C042E1BDC2F
:101DF000031DDF031E18C306121E0C4E1CF6036ED5
:101E00001F30042DFF033E1E360461180D2A000406
:101E10006C063C4A49493000045DDC038D92102079
:101E2000163E41414122007F04047800003854549A
:101E30005408007C04180D4DF11B3D1804120818BD
:101E40001C0420001C30040E2B1CFF195DFF049C99
:101E50000588482818E8032D0D058EF864183DEE16
:101E60000E1C04F820205E1B1C06C0A0A0A040EDA4
:101E70001B6FC020211D32E0184D1E041117532086
:101E800040240D2A80031C04804340E2034D0004DB
:101E90003E83FA031C08804043428000C0AB1B3ED7
:101EA000C006045E41C61B2E01F41B21096E001BF7
:101EB000196DDE1B210C3E02D81B41240D2A0005A2
:101EC0002C060D1212928DC11B1D05065DEE033D01
:101ED000DC035DE8033D06040D547F1B4D88030CB5
:101EE00009FFA0B8BEBFBFBEB8A000049D0C048E01
:101EF000E71318111220064707E787870D1005879B
:101F0000868606055C0406860604143009E7272643
:101F100026260787061F0C052B878787E7821CED7F
:101F200000041D81092C0589898988420D2105132A
:101F30008C8C051E87F40D1F848030091103100658
:101F4000878A8A8A810C22830D4D6A0D1DE81A103A
:101F5000048080882F32812A0E278FC6050D12003B
:101F60000419121D80181EBE3D131F80BF370F1F9E
:101F70009F9F141D2016C1BEBEBEDDFF80FBFB87E8
:101F8000FFFFC7ABABABF7FF83FBE70D3D6513105E
:101F90000880F6F6E699FFF7186C08DFFFE3DFBF6D
:101FA000DFE34120051FFD0DFF00040DFF00040DC0
:101FB000FF0004FD00081D49221D0C042D00036DC7
:101FC000120C1E00EE091006080804000F13110C75
:101FD00010050A0A0A010C22030D3D3C0B3E0F714D
:101FE0001B2D410C32012A0E310F80070D8800088D
:101FF0001C08FCFC04B4B4B4F472187E045018201D
:10200000160CF4F4F4ECFC04DCDC3CFCFC3C5C5C06
:102010005CBCFC1CDC3C0D3D6E18321C18213613D8
:10202000CCFC1753DCBC24031DFC04010E12FC0085
:1020300008101607078445454585078747444587A7
:1020400007C7040407C707C612200546070407038D
:1020500030050605050509310442070862040E1320
:1020600005041D5124021E07800EFF0700040DFF0A
:1020700000040DFF00040D8F00081D6E181013A240
:10208000A2A262E060A0A3A260E020E3E3E020E07F
:1020900021122005A1E0E3E0033005E1E2E2E209DC
:1020A000310442E00862E30E13E2E31D51240E33D3
:1020B000E0000C10163F3F362D2D2D333F203B3BCB
:1020C0003B203F38372F37383F2012032F2F3F0157
:1020D0000DFF00040D3200146D000C2DF40B32C7FF
:1020E0000C11061307870461121C062626C607E793
:1020F000F30B5EC600041C042727E600041C04073B
:1021000026E7350C1C04E747874A14AD4E040D241E
:1021100000048D00146DD0032DCA032E07DC071FA9
:10212000030C000411021F000F7412520F12320F21
:102130001E6DF8297E0F4214210A7E0F42040D28DD
:10214000000B0DFF00147D00141C04E0E02362046A
:102150003C0463E02306042DFA033008A3E060A3E7
:10216000A3A0601862A01E1DE203100422E06124F7
:102170001C0661E0A1A2221E0412E1064004E1E077
:10218000633C22621E1D980C011C010E12E000141B
:1021900020083F3F203D3D3D3E065F3926FA035D66
:1021A0001204310C41185D18043D240411322DEF46
:1021B000031F2F2023041006302F2F2F3010133E23
:1021C0003D18011E800EFF3F00140DFF00040D900E
:1021D00000041DF80B5C05ECDCBC04060C5C060C72
:1021E000F4B4B42C060C4DE20B11065F34CC240C75
:1021F00012CC12526C062D2E0CB2041E0D2A000CAD
:102200008D00043C0A0707C44747478407C4060CEF
:102210002DFA0B3008440787444447871862471E4D
:102220001DE20B1004C50786241C0686074645C51B
:102230001E0C12060640040607843C22851E0D2A49
:10224000000C0DFF00180DFF00046D001C6DD01375
:102250002DCA132E87DC131F838C001411021F80DC
:102260008FD82E528F12328F1E6D49133D0A142DB6
:102270000114310A7E8F42140D2800148D001C6D4C
:10228000D0134D06141EE0D01352E00C4DE8134D50
:102290009E2C6D24144D5E222D9E2C1C04FFBE80AE
:1022A00035146C0680FDFBFD8042140D2900140DD1
:1022B000FF001C0DF60004000400000000000000F8
:0400000500000101F5
:00000001FF
