:020000040000FA
:10000000180900200101000005010000070100009F
:1000100009010000090100000901000000000000C2
:1000200000000000000000000000000009010000C6
:1000300009010000000000000901000009010000A2
:100040000901000009010000090100000901000088
:1000500009010000B90600000901000009010000C3
:100060000901000009010000090100000901000068
:100070000901000009010000090100000901000058
:100080000901000009010000090100000901000048
:100090000901000009010000090100000901000038
:1000A0000901000009010000090100000901000028
:1000B0000901000009010000090100000901000018
:1000C0000901000009010000090100000901000008
:1000D00009010000090100000901000009010000F8
:1000E00009010000090100000901000009010000E8
:1000F00009010000090100000901000009010000D8
:1001000000F004B8FEE7FEE7FEE70000DFF80CD0E1
:1001100000F01AF800480047D10A00001809002032
:10012000EFF3108072B67047EFF310807047EFF373
:10013000108062B6704730BF704780F311887047F7
:10014000EFF3118070470000064C074D06E0E068B1
:1001500040F0010394E8070098471034AC42F6D30E
:10016000FFF7D8FF201100004011000070B501EB2F
:10017000020410F8015B15F0070301D110F8013BF0
:100180002A1106D110F8012B03E010F8016B01F8D9
:10019000016B5B1EF9D12B0706D4002301E001F8A7
:1001A000013B521EFBD50CE010F8013B02F10202AC
:1001B000A1EB030303E013F8015B01F8015B521E9E
:1001C000F9D5A142D5D3002070BD000010B50122A1
:1001D0001146044800F0FBF9FD220221014800F01D
:1001E000F6F910BD00D0034010B5FE2201210448ED
:1001F00000F0EDF902221146014800F0E8F910BDC7
:1002000000D0034010B500202649086043E026488E
:100210000078802823D100202349087023480078E3
:10022000401C2249087001221146214800F0CFF9F4
:10023000022211461E4800F0CAF91C48007800F05E
:1002400007001A4908700846007840F0B8000870A6
:100250000846007800F0B6F8402000F0B3F81248E5
:1002600000783F2801DCFFF7B1FF0F4800784028F5
:1002700001DBFFF7B9FF0F490A4A1268885C00F0FA
:10028000CDF809480078401C074908700548006807
:10029000401C0449086003480068B0F5806FB6D37D
:1002A00010BD000008040020000000200100002014
:1002B00000D0034018040020002103E0425C034BFF
:1002C0005A54491CB1F5806FF8DB704718040020C0
:1002D00010B5364800F0C0F93448C03000F0BCF921
:1002E0003248203800F0B8F9304800F0B5F92F480E
:1002F000C03000F0B1F92D48C03000F0ADF92B4806
:10030000403000F0A9F98021294800F052F920215D
:10031000284800F04EF90221254800F04AF904214E
:10032000254800F046F90121234800F042F9022156
:10033000214800F03EF9FF21204800F03AF904225C
:1003400011461D4800F043F9012211461A4800F0F9
:100350003EF902221146184800F039F9FD22022127
:10036000134800F034F9164800F0ABFBC02000F051
:1003700029F8134800F0A5FB402000F023F81048AE
:1003800000F09FFBB82000F01DF80D4800F099FB2D
:100390003F2000F017F8FE220121074800F017F96E
:1003A000FD220221044800F012F910BD4000002097
:1003B000006002400050024000D003400070024044
:1003C000A086010010B50446DF2220210F4800F06E
:1003D000FEF8802211460E4800F0F9F80D4804603E
:1003E0004FF0640000F06DFB0B48C0F8FC43642044
:1003F00000F067FB0848C0F8FC43C0F8FC437F22CC
:100400008021034800F0E3F810BD000000500240D6
:1004100000600240FC7302400070024010B50446C8
:10042000202211460E4800F0D2F8802211460D48D5
:1004300000F0CDF80C4804604FF0640000F041FB80
:100440000A48C0F8FC43642000F03BFB0648046007
:100450004FF07F024FF08001024800F0B8F810BD65
:100460000050024000600240FC73024000700240F5
:10047000D0F8003412F0010F14BF0B438B43C0F8C7
:10048000003412F0020FD0F8202414BF114322EAE6
:100490000101C0F820147047D0F800C512F0010F18
:1004A00014BF4CEA010C2CEA010CC0F800C5D0F8CE
:1004B00004C512F0020F14BF4CEA010C2CEA010C27
:1004C000C0F804C5D0F808C512F0040F14BF4CEAF8
:1004D000010C2CEA010CC0F808C512F0080FD0F886
:1004E000182514BF0A438A43C0F81825D0F80C25F4
:1004F00013F0010F14BF0A438A43C0F80C25D0F84B
:10050000102513F0020F14BF0A438A43C0F81025C8
:10051000D0F8142513F0040F14BF0A438A43C0F81F
:100520001425D0F81C2513F0080F14BF0A438A4382
:10053000C0F81C25D0F82825002B0CBF114322EA57
:100540000101C0F8281570470F4AC0F30741D26E69
:1005500001238B401A420D4A1ABF02EBC1014A68BF
:1005600052F83120C0F3072102F22C53D2F82C2587
:100570004FF00F0C0CFA01FC00F00F0022EA0C0205
:10058000884010431860704700E00F40C80E00001C
:1005900050F82100704730B504460D460022FFF7A1
:1005A00067FF29462046BDE8304008230122FFF7B7
:1005B00073BF30B504460D4608230122FFF76CFFD8
:1005C00029462046BDE830400122FFF751BF40F8E0
:1005D0002120704710B5FFF7AAFDC0B210BD000082
:1005E00070B50024102525E0EAB2F0211748FFF786
:1005F000EEFF01211648FFF7CBFF00B11CE0601CA5
:10060000C4B202211248FFF7C3FF00B114E0601C1E
:10061000C4B204210E48FFF7BBFF00B10CE0601C20
:10062000C4B208210A48FFF7B3FF00B104E0601C20
:10063000C4B26D00FF2DD7DD00BF0022F0210348BA
:10064000FFF7C5FF0348005D70BD0000006000407B
:10065000004002409B0E00004FF0704181430CD0DF
:100660000F49020F51F822100A6883B2C0F3044008
:1006700003FA00F0104308607047C0F307230949EC
:10068000C0B2194401F07043C1F3130143EA4111B0
:1006900041EA800040F000700122026070470000D3
:1006A0005C0F000000E60F40816911F0100F0CBFD5
:1006B00000684FF0FF30704770B54FF080704069B0
:1006C0000121C26C2348904705464FF08070406975
:1006D0002946026D1F48904733E01E48FFF7E4FFAC
:1006E00046280DD0482812D0502802D053281CD1BB
:1006F00014E07F2280214FF04020FFF768FF14E0D4
:10070000802211464FF04020FFF761FF0DE080226C
:1007100011464FF04020FFF75AFF06E080221146B5
:100720004FF04020FFF753FF00BF00BF0948FFF71D
:10073000BBFFC4B24FF0807040692146C26B0648CF
:1007400090474FF080704069C16A0248884700288E
:10075000C3D170BD00C0004000D0004070B5044659
:100760000D4607E014F8011B4FF0807040690268E5
:10077000034890472800A5F10105F3D170BD0000A2
:1007800000D0004010B504464FF41651204600F04A
:1007900001F810BD2DE9F04104460D46184A52F803
:1007A00024004FF08072526C1169884708B9BDE887
:1007B000F08113480C3850F8240012490860104AA0
:1007C00052F824004FF08072526C916988474FF0C4
:1007D0008071496C086E804707464FF08070406911
:1007E00060232A463946466906480068B0474FF0FC
:1007F00080704069C169034800688847D7E70000F6
:10080000BC0E0000100400200FB42DE9F04786B0A4
:100810000FA8009013E1002400E0641C0E98005D16
:10082000252803D00E98005D0028F6D121460E98A9
:1008300000F018F90E9820440E900E9800782528A4
:10084000E8D10E98401C0E9000264FF0200A00BF01
:100850000E9810F8011B0E90382930D014DC332983
:1008600028D008DC252976D0302920D031291FD086
:10087000322971D11DE034291DD035291CD03629EB
:100880001BD03729F5D119E0702974D008DC39293B
:1008900016D058296ED0632922D06429E9D12AE0E4
:1008A00073293CD0752958D07829E2D161E000BF86
:1008B00000BF00BF00BF00BF00BF00BF00BF00BF40
:1008C0000E9810F8010C302801D106B9824606EBCB
:1008D000860046000E9810F8010C30380644B7E741
:1008E0000098006805900098001D0090012105A85F
:1008F00000F0B8F8A2E00098006805900098001D8C
:10090000009000250598002805DA059840420590DA
:100910004FF0010801E04FF000080A2735E0009889
:1009200050F8049B0090002400E0641C19F80400B7
:100930000028FAD12146484600F094F8A64209D989
:10094000361B03E0012143A000F08CF83000A6F133
:100950000106F7D172E066E06BE000980068059050
:100960000098001D009000250A27A8460DE002E02F
:1009700000E000BF00BF0098006805900098001DCF
:10098000009000251027A84600BF012401E07C4309
:10099000761E04FB07F00599884205D804FB07F092
:1009A000B0FBF7F0A042F2D0B8F1000F00D0761EF5
:1009B000B8F1000F09D0BAF1300F06D12D22284628
:1009C0006D1C01A90A544FF00008012E0BD9102EFE
:1009D00009D2761E05E028466D1C01A901F800A089
:1009E000761E002EF7D1B8F1000F04D02D22284634
:1009F0006D1C01A90A540FE00598B0FBF4F0B0FBA0
:100A0000F7F107FB1100144909680A5C28466D1CC0
:100A100001A90A54B4FBF7F4002CEDD1294601A832
:100A200000F020F80AE00E99481E012100F01AF8A3
:100A300004E0052109A000F015F800BF00BF0E98E2
:100A4000007800287FF4E7AE06B0BDE8F0075DF857
:100A500014FB000020000000AC0E00004552524F75
:100A60005200000070B504460D46002613E0A05D5C
:100A70000A2807D14FF0807040690D2102680848AC
:100A800000689047A15D4FF080704069026804489B
:100A900000689047761CAE42E9D3304670BD000036
:100AA0001004002002E008C8121F08C1002AFAD171
:100AB00070477047002001E001C1121F002AFBD1DE
:100AC000704700BF0100A0F10100FBD1704700009A
:100AD00070B500BF4FF08070406CC16D57488847BB
:100AE0004FF08070406C8169554888474FF08070A6
:100AF000406C81695248C01D884780214FF04020DA
:100B0000FFF757FD0120FFF71FFD40F20140FFF7FF
:100B10001BFD4C48FFF718FD4B48FFF715FD4FF044
:100B20008070406C81694648C01C8847F021474866
:100B3000FFF73FFD4FF08070406C816940480F30F7
:100B400088470F214248FFF726FD0A2301220F2183
:100B50003F48FFF7A1FC4FF08070406C81693D4831
:100B600088474FF08070406C81693A48401C884744
:100B7000FFF730FD4FF08070006A0321426D4FF0A7
:100B8000402090474FF08070006A0C21426D32483F
:100B900090474FF08071496C086E804706464FF0D1
:100BA0008070406960234FF41652314645692B48E6
:100BB000A8474FF08071496C086E804706464FF099
:100BC0008070406960234FF41652314645692448CD
:100BD000A8470120FFF7D6FD4FF08070806C0168B8
:100BE000152088474FF0807040695021426C1B48A7
:100BF00090474FF0807040695021426C18489047F0
:100C0000FFF766FB1748FFF757FBFFF7FBFA2F21AB
:100C100015A0FFF7A3FD41F238211FA0FFF7F4FD57
:100C20000BE0FFF7DDFC0446FF2C06D04FF0807090
:100C300040692146C26B0A489047F2E7513D800760
:100C40000100002001080300010C030000600040C7
:100C500000400240010000100070004000C0004051
:100C600000D00040020000204175746F6D61746512
:100C700064204469616C797A657220616E642042F7
:100C80006C6F6F646C696E652057617368696E671D
:100C90002053797374656D000A426520517579653A
:100CA0006E206C6120626520517579656E206C65DF
:100CB00075206C6575204265205468752025640098
:100CC000000000000000004F0000000700070014B3
:100CD0007F147F14242A7F2A122313086462364962
:100CE0005522500005030000001C22410000412253
:100CF0001C0014083E081408083E08080050300084
:100D000000080808080800606000002010080402BD
:100D10003E5149453E00427F4000426151494621D3
:100D200041454B311814127F1027454545393C4A3F
:100D3000494930017109050336494949360649498F
:100D4000291E003636000000563600000008142226
:100D5000411414141414412214080002015905020C
:100D6000324979413E7E1111117E7F494949363E13
:100D7000414141227F4141221C7F494949417F092C
:100D80000909013E4141497A7F0808087F00417FF7
:100D900041002040413F017F081422417F404040F4
:100DA000407F020C027F7F0408107F3E4141413E9C
:100DB0007F090909063E4151215E7F0919294646EE
:100DC0004949493101017F01013F4040403F1F2017
:100DD00040201F3F4030403F6314081463070870F1
:100DE00008076151494543007F4141000204081052
:100DF000200041417F000402010204404040404085
:100E0000000102040020545454787F484444383888
:100E100044444420384444487F3854545418087E8D
:100E20000901020C5252523E7F0804047800447DAE
:100E300040002040443D007F1028440000417F4096
:100E4000007C047C04787C080404783844444438EA
:100E50007C14141408081414147C7C080404084836
:100E600054545420043F4440203C4040207C1C20EB
:100E700040201C3C4030403C44281028440C50503A
:100E8000503C4464544C44000836410000007F004C
:100E90000000413608001008100800313233553484
:100EA0003536443738393C54304340FF0C1100008C
:100EB00000C0004000D0004000E0004001000010F1
:100EC00002000010040000100040004000800540B7
:100ED00000500040009005400060004000A0054028
:100EE0000070004000B005400040024000C00540D6
:100EF0000050024000D005400060024000E0054084
:100F00000070024000F0054000D0034000000640A1
:100F10000010064000100640002006400020064059
:100F200000300640003006400040064000400640C9
:100F30000050064000500640006006400060064039
:100F400010E00F4014E00F401CE00F4010E00F4095
:100F500040E00F4044E00F4048E00F4000E10F4008
:100F600004E10F4008E10F4010E10F4014E10F4091
:100F700018E10F4020E10F4024E10F4028E10F402D
:100F800040420F0000201C0080841E0000802500CD
:100F9000999E36000040380000093D0000803E0068
:100FA00000004B00404B4C0000204E00808D5B0049
:100FB00000C05D000080700000127A0000007D001B
:100FC00080969800001BB7000080BB00C0E8CE00F0
:100FD000647ADA000024F4000000FA0080A812010C
:100FE000002D310100366E0140787D0101001000B6
:100FF000003800F002001000013800F0000110007D
:10100000003400F000021000013400F00004100071
:10101000023400F000011010003C00F0000210103B
:10102000003C00F000041010003C00F00100002023
:10103000000800F002000020010800F00400002079
:10104000020800F008000020030800F01000002053
:10105000040800F020000020050800F040000020F7
:10106000060800F080000020070800F000010020C2
:10107000080800F040000000001400F0001000100C
:10108000002000F000400010012000F010001000CF
:10109000004000F000010010004400F000020010C9
:1010A000014400F010000010001C00F020000010AF
:1010B000011C00F001001010000400F002001010EC
:1010C000010400F004001010020400F008001010E9
:1010D000030400F001000010001800F002000010EE
:1010E000011800F004000010021800F00020002099
:1010F000000C00F001001020002800F008000000A3
:10110000000000F000101000010000F03031323318
:101110003435363738396162636465660000000033
:101120004011000000000020180400006C010000C5
:101130000C1300001804002000050000B40A000091
:10114000713BF808012A0C013A0A010A100901AAA8
:1011500089019918073D0DFD0DC306FCA2FF2AF079
:10116000014BE0E0076BC0C009292529014AC301F2
:10117000BA033EA809F04FE0FF60606020011A400A
:10118000010A318080396609130939084A8101B999
:101190005ABDFF01F80801280F10E01824C4468248
:1011A0008285D96670A0C0991EA0A0E0E0C0910B16
:1011B0001380C0951A3FBE1AE00419012A63010981
:1011C000130939086901492D1A60E5880AE0E0FF32
:1011D000F6010E0606020110088243723E2310102B
:1011E0004E0703030204010013101C10101011110C
:1011F00009092970204305F07EAE80386A01011A82
:101200007F01581BFFFFF7FB7BBF5F5D7DBDBD3FCF
:101210005D59B173F3E5CF1B3F77FFCFBFFF0129C6
:10122000254929190B2B7D78013AF8068678F8F8BC
:10123000E88F180F80F0F878BCDC5CFC1C1C3C5C70
:101240005C3C1B900D60C08FA8D88831444832A008
:10125000601C80C0F8018BFCFE0139634816F6EF74
:10126000D0F6AEADA980D1D0E0F7F9FFFFFCDCF0FD
:101270007FFFDF7E592219096908B901691C281806
:10128000BEFFFFFDF0EFDDDFFEA888AAC4D0E4E6D4
:10129000F87F7E9CDFE2F201CBB120FA2D0303033D
:1012A00007013C0F0F0F042809070F0E0F0D0F2F1A
:1012B0002B015F2F6FEFFFFDFD6C5809BFBFEFEFF4
:1012C000EFBFFFBF790913011A7F01292A1BBFBF96
:1012D000351AFD112AFB153C7D3F1F012A3F5F197E
:1012E0007001332B010103B9B959BD1A0B01181153
:1012F00007030E0606060212131303171515110134
:0C130000084C06060ED1032D0B02000065
:0400000500000101F5
:00000001FF
