:020000040000FA
:1000000010050020010100000501000007010000AB
:1000100009010000090100000901000000000000C2
:1000200000000000000000000000000009010000C6
:1000300009010000000000000901000009010000A2
:100040000901000009010000090100000901000088
:1000500009010000850600000901000009010000F7
:100060000901000009010000090100000901000068
:100070000901000009010000090100000901000058
:100080000901000009010000090100000901000048
:100090000901000009010000090100000901000038
:1000A0000901000009010000090100000901000028
:1000B0000901000009010000090100000901000018
:1000C0000901000009010000090100000901000008
:1000D00009010000090100000901000009010000F8
:1000E00009010000090100000901000009010000E8
:1000F00009010000090100000901000009010000D8
:1001000000F004B8FEE7FEE7FEE70000DFF80CD0E1
:1001100000F01AF8004800473D07000010050020D5
:10012000EFF3108072B67047EFF310807047EFF373
:10013000108062B6704730BF704780F311887047F7
:10014000EFF3118070470000064C074D06E0E068B1
:1001500040F0010394E8070098471034AC42F6D30E
:10016000FFF7D8FFEC0C00000C0D000010B5064C9A
:1001700001221146204600F012FA2046FD22BDE879
:100180001040022100F00BBA00D0034010B5064C1D
:10019000FE220121204600F002FA20460222BDE89C
:1001A0001040114600F0FBB900D003402DE9F041AA
:1001B0001D4C00261D4F4FF48068A66020788028D3
:1001C0001AD1267060781A4D401C607001221146C9
:1001D000284600F0E4F902221146284600F0DFF933
:1001E000607800F0070040F0B8006070C0B200F026
:1001F000B5F8402000F0B2F820783F2801D8FFF78A
:10020000B5FF2078402801D3FFF7C0FFA068385C15
:1002100000F0CEF82078401C2070A068401CA06040
:100220004045CBD3BDE8F081000000200C00002049
:1002300000D0034070B5064600250024214628461C
:1002400016B100F0EDF801E000F0DAF8641CE4B259
:100250003F2CF3D96D1CEDB27F2DEED970BD00009F
:1002600070B5384C204600F0DDF9364DC0352846D3
:1002700000F0D8F93348203800F0D4F9204600F0D7
:10028000D1F9284600F0CEF9284600F0CBF92D48E8
:10029000403000F0C7F92C4C8021204600F071F965
:1002A00020212A4800F06DF90221204600F069F96A
:1002B000274D0421284600F064F90121284600F06A
:1002C00060F90221284600F05CF9FF21214800F086
:1002D00058F904221146284600F061F9012211461E
:1002E000284600F05CF902221146284600F057F932
:1002F000FD220221204600F052F9174E3046401EE2
:10030000FDD2C02000F02AF83446641EFDD2402001
:1003100000F024F834463046401EFDD2B82000F0EC
:100320001DF8641EFDD23F2000F018F8FE220121C6
:10033000284600F034F92846BDE87040FD2202212D
:1003400000F02DB940000020006002400050024043
:1003500000D0034000700240A086010070B5044642
:10036000DF2220210F4800F01AF90F4D802211469C
:10037000284600F014F90D49C1F8FC436420401EE2
:10038000FDD2C1F8FC436420401EFDD2C1F8FC43FD
:10039000C1F8FC432846BDE870407F22802100F070
:1003A000FEB80000005002400060024000700240B1
:1003B00070B50446202211460E4800F0F0F80E4DAC
:1003C00080221146284600F0EAF80C49C1F8FC43A7
:1003D0006420401EFDD2C1F8FC436420401EFDD2C3
:1003E000C1F8FC432846BDE870407F22802100F020
:1003F000D6B8000000500240006002400070024089
:1004000010B5CA08054B00EBC21001F007011A5CD9
:1004100001248C40A2431A5410BD00000C0000209F
:1004200010B5CA08054B00EBC21001F007011A5CB9
:1004300001248C4022431A5410BD00000C000020FF
:10044000D0F8003412F0010F14BF0B438B43C0F8F7
:10045000003412F0020FD0F8202414BF114322EA16
:100460000101C0F820147047D0F800C512F0010F48
:1004700014BF4CEA010C2CEA010CC0F800C5D0F8FE
:1004800004C512F0020F14BF4CEA010C2CEA010C57
:10049000C0F804C5D0F808C512F0040F14BF4CEA28
:1004A000010C2CEA010CC0F808C512F0080FD0F8B6
:1004B000182514BF0A438A43C0F81825D0F80C2524
:1004C00013F0010F14BF0A438A43C0F80C25D0F87B
:1004D000102513F0020F14BF0A438A43C0F81025F9
:1004E000D0F8142513F0040F14BF0A438A43C0F850
:1004F0001425D0F81C2513F0080F14BF0A438A43B3
:10050000C0F81C25D0F82825002B0CBF114322EA87
:100510000101C0F8281570470F4AC0F30741D26E99
:1005200001238B401A420D4A1ABF02EBC1014A68EF
:1005300052F83120C0F3072102F22C53D2F82C25B7
:100540004FF00F0C0CFA01FC00F00F0022EA0C0235
:10055000884010431860704700E00F40A80A000070
:1005600050F82100704730B504460D460022FFF7D1
:1005700067FF29462046BDE8304008230122FFF7E7
:1005800073BF30B504460D4608230122FFF76CFF08
:1005900029462046BDE830400122FFF751BF40F810
:1005A0002120704710B5FFF7C2FDC0B210BD00009A
:1005B0002DE9F0410024184F184E1025EAB2F02121
:1005C0003846FFF7ECFF01213046FFF7C9FFC8B9F5
:1005D000641CE4B202213046FFF7C2FF90B9641CEC
:1005E000E4B204213046FFF7BBFF58B9641CE4B203
:1005F00008213046FFF7B4FF20B9641C6D00E4B257
:10060000FF2DDBDD0022F0213846FFF7C8FF04484C
:10061000005DBDE8F0810000006000400040024045
:10062000970A00004FF0704181430CD00F49020F30
:1006300051F822100A6883B2C0F3044003FA00F0B4
:10064000104308607047C0F307230949C0B219443A
:1006500001F07043C1F3130143EA411141EA800004
:1006600040F0007001220260704700003C0B000067
:1006700000E60F40816911F0100F0CBF00684FF0C9
:10068000FF3070472DE9F0414FF080746069174DDD
:10069000C26C01212846904761690A6D01462846CF
:1006A00090474FF04026124F17E02846FFF7E2FF31
:1006B000412805D0462801D0532806D1802200E0E9
:1006C0007F2280213046FFF76AFF2846FFF7D2FFDE
:1006D000C1B26069C26B384690476069C16A2846FA
:1006E00088470028E1D1BDE8F081000000C000404B
:1006F00000D000402DE9F04104460D464FF08076D1
:10070000054F05E0706914F8011B026838469047F0
:100710006D1EF7D2BDE8F08100D0004002E008C8AD
:10072000121F08C1002AFAD170477047002001E06B
:1007300001C1121F002AFBD1704700002DE9F041D2
:100740004FF08074606C0326C16D46488847606C2A
:10075000816945488847606C81694348C01D884766
:100760004FF0402580212846FFF70BFF0120FFF7BF
:10077000D3FE40F20140FFF7CFFE3C48FFF7CCFE2E
:100780003B48FFF7C9FE606C81693748C01C884749
:10079000F0213848FFF7F5FE606C816932480F3070
:1007A0008847354F0F213846FFF7DDFE0A23012227
:1007B0000F213846FFF758FE606C81692F48884743
:1007C000606C81692D48401C8847FFF7EBFE206A6A
:1007D0000321426D28469047206A0C21426D28482B
:1007E0009047606C006E80476169DFF898804D69C2
:1007F0004FF41657014660233A464046A847606CBE
:10080000006E804761693A464D691F4F014660237B
:100810003846A847A06C01681520884760695021B8
:10082000426C4046904760695021426C3846904780
:10083000FFF716FD0020FFF7FDFCFFF7B7FC0121D5
:100840003046FFF757FF2F2110A0FFF753FFFFF7A8
:10085000AFFEFF28FBD06169CA6B0146384690475E
:10086000F5E70000513D800701000020010803006A
:10087000010C030000600040004002400100001035
:100880000070004000C0004000D000404175746F0F
:100890006D61746564204469616C797A6572206168
:1008A0006E6420426C6F6F646C696E652057617373
:1008B00068696E672053797374656D0000000000ED
:1008C0000000004F00000007000700147F147F1491
:1008D000242A7F2A122313086462364955225000C5
:1008E00005030000001C2241000041221C001408E6
:1008F0003E081408083E08080050300000080808A8
:100900000808006060000020100804023E514945BC
:100910003E00427F400042615149462141454B31F2
:100920001814127F1027454545393C4A4949300182
:10093000710905033649494936064949291E0036D9
:10094000360000005636000000081422411414142A
:100950001414412214080002015905023249794158
:100960003E7E1111117E7F494949363E4141412267
:100970007F4141221C7F494949417F090909013EC4
:100980004141497A7F0808087F00417F41002040AB
:10099000413F017F081422417F404040407F020CCC
:1009A000027F7F0408107F3E4141413E7F090909D3
:1009B000063E4151215E7F09192946464949493180
:1009C00001017F01013F4040403F1F2040201F3F69
:1009D0004030403F631408146307087008076151F2
:1009E000494543007F414100020408102000414175
:1009F0007F00040201020440404040400001020424
:100A00000020545454787F484444383844444420A7
:100A1000384444487F3854545418087E0901020C65
:100A20005252523E7F0804047800447D400020402A
:100A3000443D007F1028440000417F40007C047C3E
:100A400004787C0804047838444444387C14141432
:100A500008081414147C7C080404084854545420D6
:100A6000043F4440203C4040207C1C2040201C3C53
:100A70004030403C44281028440C5050503C4464C2
:100A8000544C44000836410000007F00000041360D
:100A90000800100810080031323355343536443719
:100AA00038393C54304340FF00400040008005404E
:100AB00000500040009005400060004000A005404C
:100AC0000070004000B005400040024000C00540FA
:100AD0000050024000D005400060024000E00540A8
:100AE0000070024000F0054000D0034000000640C6
:100AF000001006400010064000200640002006407E
:100B000000300640003006400040064000400640ED
:100B1000005006400050064000600640006006405D
:100B200010E00F4014E00F401CE00F4010E00F40B9
:100B300040E00F4044E00F4048E00F4000E10F402C
:100B400004E10F4008E10F4010E10F4014E10F40B5
:100B500018E10F4020E10F4024E10F4028E10F4051
:100B600040420F0000201C0080841E0000802500F1
:100B7000999E36000040380000093D0000803E008C
:100B800000004B00404B4C0000204E00808D5B006D
:100B900000C05D000080700000127A0000007D003F
:100BA00080969800001BB7000080BB00C0E8CE0014
:100BB000647ADA000024F4000000FA0080A8120130
:100BC000002D310100366E0140787D0101001000DA
:100BD000003800F002001000013800F000011000A1
:100BE000003400F000021000013400F00004100096
:100BF000023400F000011010003C00F00002101060
:100C0000003C00F000041010003C00F00100002047
:100C1000000800F002000020010800F0040000209D
:100C2000020800F008000020030800F01000002077
:100C3000040800F020000020050800F0400000201B
:100C4000060800F080000020070800F000010020E6
:100C5000080800F040000000001400F00010001030
:100C6000002000F000400010012000F010001000F3
:100C7000004000F000010010004400F000020010ED
:100C8000014400F010000010001C00F020000010D3
:100C9000011C00F001001010000400F00200101010
:100CA000010400F004001010020400F0080010100D
:100CB000030400F001000010001800F00200001012
:100CC000011800F004000010021800F000200020BD
:100CD000000C00F001001020002800F008000000C7
:100CE000000000F000101000010000F00C0D0000EA
:100CF000000000200C0000001C070000180D000080
:100D00000C000020040500002C070000000000007B
:080D10000000000000000000DB
:0400000500000101F5
:00000001FF
