:020000040000FA
:10000000181D00200101000005010000070100008B
:1000100009010000090100000901000000000000C2
:1000200000000000000000000000000009010000C6
:1000300009010000000000000901000009010000A2
:100040000901000009010000090100000901000088
:1000500009010000C10600000901000009010000BB
:100060000901000009010000090100000901000068
:100070000901000009010000090100000901000058
:100080000901000009010000090100000901000048
:100090000901000009010000090100000901000038
:1000A0000901000009010000090100000901000028
:1000B0000901000009010000090100000901000018
:1000C0000901000009010000090100000901000008
:1000D00009010000090100000901000009010000F8
:1000E00009010000090100000901000009010000E8
:1000F00009010000090100000901000009010000D8
:1001000000F004B8FEE7FEE7FEE70000DFF80CD0E1
:1001100000F01EF800480047D90A0000181D002012
:100120000138FDD170470000EFF3108072B67047C0
:10013000EFF310807047EFF3108062B6704730BF66
:10014000704780F311887047EFF31180704700000B
:10015000064C074D06E0E06840F0010394E8070014
:1001600098471034AC42F6D3FFF7D4FF901100004B
:10017000B011000070B58C1810F8015B15F0030287
:1001800001D110F8012B2B1106D110F8013B03E02F
:1001900010F8016B01F8016B521EF9D1B3B110F8E0
:1001A000012B05F00C058A1A0C2D04D110F8015B07
:1001B000A2EB052201E0A2EB851203F1020303E0AA
:1001C00012F8015B01F8015B5B1EF9D5A142D3D3A4
:1001D000002070BD10B501221146044800F0FBF963
:1001E000FD220221014800F0F6F910BD00D00340C5
:1001F00010B5FE220121044800F0EDF9022211465B
:10020000014800F0E8F910BD00D0034010B500200F
:100210002649086043E026480078802823D1002042
:100220002349087023480078401C224908700122A5
:100230001146214800F0CFF9022211461E4800F075
:10024000CAF91C48007800F007001A4908700846EF
:10025000007840F0B80008700846007800F0B6F862
:10026000402000F0B3F8124800783F2801DCFFF787
:10027000B1FF0F480078402801DBFFF7B9FF0F49B5
:100280000A4A1268885C00F0CDF809480078401CE2
:100290000749087005480068401C04490860034885
:1002A0000068B0F5806FB6D310BD000008000020D4
:1002B000000000200100002000D00340181800209A
:1002C000002103E0425C034B5A54491CB1F5806F96
:1002D000F8DB70471818002010B5364800F0C0F958
:1002E0003448C03000F0BCF93248203800F0B8F98A
:1002F000304800F0B5F92F48C03000F0B1F92D4872
:10030000C03000F0ADF92B48403000F0A9F9802151
:10031000294800F052F92021284800F04EF9022126
:10032000254800F04AF90421254800F046F901214A
:10033000234800F042F90221214800F03EF9FF2154
:10034000204800F03AF9042211461D4800F043F914
:10035000012211461A4800F03EF9022211461848BF
:1003600000F039F9FD220221134800F034F9164853
:1003700000F0ABFBC02000F029F8134800F0A5FB0B
:10038000402000F023F8104800F09FFBB82000F058
:100390001DF80D4800F099FB3F2000F017F8FE22F1
:1003A0000121074800F017F9FD220221044800F05E
:1003B00012F910BD400000200060024000500240D1
:1003C00000D0034000700240A086010010B5044632
:1003D000DF2220210F4800F0FEF8802211460E484F
:1003E00000F0F9F80D4804604FF0640000F06DFB78
:1003F0000B48C0F8FC43642000F067FB0848C0F8D5
:10040000FC43C0F8FC437F228021034800F0E3F85E
:1004100010BD00000050024000600240FC7302402A
:100420000070024010B50446202211460E4800F02C
:10043000D2F8802211460D4800F0CDF80C48046037
:100440004FF0640000F041FB0A48C0F8FC43642010
:1004500000F03BFB064804604FF07F024FF0800144
:10046000024800F0B8F810BD0050024000600240A1
:10047000FC73024000700240D0F8003412F0010F0B
:1004800014BF0B438B43C0F8003412F0020FD0F8B6
:10049000202414BF114322EA0101C0F82014704740
:1004A000D0F800C512F0010F14BF4CEA010C2CEA81
:1004B000010CC0F800C5D0F804C512F0020F14BF3B
:1004C0004CEA010C2CEA010CC0F804C5D0F808C5B0
:1004D00012F0040F14BF4CEA010C2CEA010CC0F816
:1004E00008C512F0080FD0F8182514BF0A438A4334
:1004F000C0F81825D0F80C2513F0010F14BF0A43DB
:100500008A43C0F80C25D0F8102513F0020F14BF51
:100510000A438A43C0F81025D0F8142513F0040FBD
:1005200014BF0A438A43C0F81425D0F81C2513F0E1
:10053000080F14BF0A438A43C0F81C25D0F82825A9
:10054000002B0CBF114322EA0101C0F828157047A7
:100550000F4AC0F30741D26E01238B401A420D4A65
:100560001ABF02EBC1014A6852F83120C0F30721DB
:1005700002F22C53D2F82C254FF00F0C0CFA01FC90
:1005800000F00F0022EA0C02884010431860704708
:1005900000E00F40380F000050F82100704730B5E0
:1005A00004460D460022FFF767FF29462046BDE8B6
:1005B000304008230122FFF773BF30B504460D46D3
:1005C00008230122FFF76CFF29462046BDE8304092
:1005D0000122FFF751BF40F82120704710B5FFF707
:1005E000AAFDC0B210BD000070B50024102525E0A2
:1005F000EAB2F0211748FFF7EEFF01211648FFF796
:10060000CBFF00B11CE0601CC4B202211248FFF70E
:10061000C3FF00B114E0601CC4B204210E48FFF710
:10062000BBFF00B10CE0601CC4B208210A48FFF710
:10063000B3FF00B104E0601CC4B26D00FF2DD7DD34
:1006400000BF0022F0210348FFF7C5FF0348005D0B
:1006500070BD000000600040004002400B0F000031
:100660004FF0704181430CD00F49020F51F8221016
:100670000A6883B2C0F3044003FA00F01043086034
:100680007047C0F307230949C0B2194401F0704311
:10069000C1F3130143EA411141EA800040F00070C8
:1006A0000122026070470000CC0F000000E60F40FE
:1006B000816911F0100F0CBF00684FF0FF307047D8
:1006C00070B54FF0807040690121C26C234890479B
:1006D00005464FF0807040692946026D1F489047DB
:1006E00033E01E48FFF7E4FF46280DD0482812D01B
:1006F000502802D053281CD114E07F2280214FF0D3
:100700004020FFF768FF14E0802211464FF04020A0
:10071000FFF761FF0DE0802211464FF04020FFF708
:100720005AFF06E0802211464FF04020FFF753FFAA
:1007300000BF00BF0948FFF7BBFFC4B24FF0807095
:1007400040692146C26B064890474FF0807040696F
:10075000C16A024888470028C3D170BD00C000406C
:1007600000D0004070B504460D4607E014F8011BA8
:100770004FF0807040690268034890472800A5F157
:100780000105F3D170BD000000D0004010B5044653
:100790004FF41651204600F001F810BD2DE9F0414C
:1007A00004460D46184A52F824004FF08072526CED
:1007B0001169884708B9BDE8F08113480C3850F832
:1007C000240012490860104A52F824004FF0807249
:1007D000526C916988474FF08071496C086E804770
:1007E00007464FF08070406960232A4639464669C3
:1007F00006480068B0474FF080704069C1690348FF
:1008000000688847D7E700002C0F00001000002088
:100810000FB42DE9F04786B00FA8009013E1002433
:1008200000E0641C0E98005D252803D00E98005D42
:100830000028F6D121460E9800F018F90E982044B1
:100840000E900E9800782528E8D10E98401C0E9046
:1008500000264FF0200A00BF0E9810F8011B0E90E2
:10086000382930D014DC332928D008DC252976D06B
:10087000302920D031291FD0322971D11DE03429EF
:100880001DD035291CD036291BD03729F5D119E0C8
:10089000702974D008DC392916D058296ED0632904
:1008A00022D06429E9D12AE073293CD0752958D097
:1008B0007829E2D161E000BF00BF00BF00BF00BFE8
:1008C00000BF00BF00BF00BF0E9810F8010C302819
:1008D00001D106B9824606EB860046000E9810F854
:1008E000010C30380644B7E700980068059000987E
:1008F000001D0090012105A800F0B8F8A2E00098C2
:10090000006805900098001D0090002505980028BB
:1009100005DA0598404205904FF0010801E04FF0DC
:1009200000080A2735E0009850F8049B0090002446
:1009300000E0641C19F804000028FAD1214648465A
:1009400000F094F8A64209D9361B03E0012143A028
:1009500000F08CF83000A6F10106F7D172E066E0F5
:100960006BE00098006805900098001D009000253D
:100970000A27A8460DE002E000E000BF00BF009893
:10098000006805900098001D009000251027A846DB
:1009900000BF012401E07C43761E04FB07F00599AB
:1009A000884205D804FB07F0B0FBF7F0A042F2D074
:1009B000B8F1000F00D0761EB8F1000F09D0BAF1DF
:1009C000300F06D12D2228466D1C01A90A544FF084
:1009D0000008012E0BD9102E09D2761E05E02846FC
:1009E0006D1C01A901F800A0761E002EF7D1B8F108
:1009F000000F04D02D2228466D1C01A90A540FE0D7
:100A00000598B0FBF4F0B0FBF7F107FB11001449B7
:100A100009680A5C28466D1C01A90A54B4FBF7F466
:100A2000002CEDD1294601A800F020F80AE00E992B
:100A3000481E012100F01AF804E0052109A000F089
:100A400015F800BF00BF0E98007800287FF4E7AECD
:100A500006B0BDE8F0075DF814FB000020000000C0
:100A60001C0F00004552524F5200000070B5044662
:100A70000D46002613E0A05D0A2807D14FF08070D4
:100A800040690D210268084800689047A15D4FF059
:100A9000807040690268044800689047761CAE4246
:100AA000E9D3304670BD00001000002002E008C805
:100AB000121F08C1002AFAD170477047002001E0D8
:100AC00001C1121F002AFBD1704700BF0100A0F135
:100AD0000100FBD17047000070B500BF4FF080707F
:100AE000406CC16D6B4888474FF08070406C8169E5
:100AF000694888474FF08070406C81696648C01D26
:100B0000884780214FF04020FFF757FD0120FFF775
:100B10001FFD40F20140FFF71BFD6048FFF718FD85
:100B20005F48FFF715FD4FF08070406C81695A48AF
:100B3000C01C8847F0215B48FFF73FFD4FF08070F5
:100B4000406C816954480F3088470F215648FFF7A1
:100B500026FD0A2301220F215348FFF7A1FC4FF085
:100B60008070406C8169514888474FF08070406CBC
:100B700081694E48401C8847FFF730FD4FF0807078
:100B8000006A0321426D4FF0402090474FF0807083
:100B9000006A0C21426D464890474FF08071496CC5
:100BA000086E804706464FF08070406960234FF41E
:100BB0001652314645693F48A8474FF08071496C4D
:100BC000086E804706464FF08070406960234FF4FE
:100BD0001652314645693848A8470120FFF7D6FD2F
:100BE0004FF08070806C0168152088474FF080704E
:100BF00040695021426C2F4890474FF08070406907
:100C00005021426C2C489047FFF766FB2B48FFF7BA
:100C100057FBFFF7FBFA2A48FFF782FA2948FFF74C
:100C20004FFBFFF7F3FA2648FFF77AFA2648FFF75B
:100C300047FBFFF7EBFA2248FFF772FA2348FFF76A
:100C40003FFBFFF7E3FA1E48FFF76AFA2048FFF779
:100C500037FBFFF7DBFA1A48FFF762FA1D48FFF788
:100C60002FFBFFF7D3FA2F211BA0FFF77BFD41F2EB
:100C7000382125A0FFF7CCFD0BE0FFF7B5FC0446BB
:100C8000FF2C06D04FF0807040692146C26B0A48A5
:100C90009047F2E7513D8007010000200108030062
:100CA000010C030000600040004002400100001001
:100CB0000070004000C0004000D00040150000203F
:100CC000404B4C001504002015080020150C002096
:100CD00015100020151400204175746F6D61746546
:100CE00064204469616C797A657220616E64204287
:100CF0006C6F6F646C696E652057617368696E67AD
:100D00002053797374656D000A42652051757965C9
:100D10006E206C6120626520517579656E206C656E
:100D200075206C6575204265205468752025640027
:100D3000000000000000004F000000070007001442
:100D40007F147F14242A7F2A1223130864623649F1
:100D50005522500005030000001C224100004122E2
:100D60001C0014083E081408083E08080050300013
:100D7000000808080808006060000020100804024D
:100D80003E5149453E00427F400042615149462163
:100D900041454B311814127F1027454545393C4ACF
:100DA000494930017109050336494949360649491F
:100DB000291E0036360000005636000000081422B6
:100DC000411414141414412214080002015905029C
:100DD000324979413E7E1111117E7F494949363EA3
:100DE000414141227F4141221C7F494949417F09BC
:100DF0000909013E4141497A7F0808087F00417F87
:100E000041002040413F017F081422417F40404083
:100E1000407F020C027F7F0408107F3E4141413E2B
:100E20007F090909063E4151215E7F09192946467D
:100E30004949493101017F01013F4040403F1F20A6
:100E400040201F3F4030403F631408146307087080
:100E500008076151494543007F41410002040810E1
:100E6000200041417F000402010204404040404014
:100E7000000102040020545454787F484444383818
:100E800044444420384444487F3854545418087E1D
:100E90000901020C5252523E7F0804047800447D3E
:100EA00040002040443D007F1028440000417F4026
:100EB000007C047C04787C0804047838444444387A
:100EC0007C14141408081414147C7C0804040848C6
:100ED00054545420043F4440203C4040207C1C207B
:100EE00040201C3C4030403C44281028440C5050CA
:100EF000503C4464544C44000836410000007F00DC
:100F00000000413608001008100800313233553413
:100F10003536443738393C54304340FF7C110000AB
:100F200000C0004000D0004000E000400100001080
:100F30000200001004000010004000400080054046
:100F400000500040009005400060004000A00540B7
:100F50000070004000B005400040024000C0054065
:100F60000050024000D005400060024000E0054013
:100F70000070024000F0054000D003400000064031
:100F800000100640001006400020064000200640E9
:100F90000030064000300640004006400040064059
:100FA00000500640005006400060064000600640C9
:100FB00010E00F4014E00F401CE00F4010E00F4025
:100FC00040E00F4044E00F4048E00F4000E10F4098
:100FD00004E10F4008E10F4010E10F4014E10F4021
:100FE00018E10F4020E10F4024E10F4028E10F40BD
:100FF00040420F0000201C0080841E00008025005D
:10100000999E36000040380000093D0000803E00F7
:1010100000004B00404B4C0000204E00808D5B00D8
:1010200000C05D000080700000127A0000007D00AA
:1010300080969800001BB7000080BB00C0E8CE007F
:10104000647ADA000024F4000000FA0080A812019B
:10105000002D310100366E0140787D010100100045
:10106000003800F002001000013800F0000110000C
:10107000003400F000021000013400F00004100001
:10108000023400F000011010003C00F000021010CB
:10109000003C00F000041010003C00F001000020B3
:1010A000000800F002000020010800F00400002009
:1010B000020800F008000020030800F010000020E3
:1010C000040800F020000020050800F04000002087
:1010D000060800F080000020070800F00001002052
:1010E000080800F040000000001400F0001000109C
:1010F000002000F000400010012000F0100010005F
:10110000004000F000010010004400F00002001058
:10111000014400F010000010001C00F0200000103E
:10112000011C00F001001010000400F0020010107B
:10113000010400F004001010020400F00800101078
:10114000030400F001000010001800F0020000107D
:10115000011800F004000010021800F00020002028
:10116000000C00F001001020002800F00800000032
:10117000000000F000101000010000F030313233A8
:1011800034353637383961626364656600000000C3
:10119000B0110000000000201818000074010000C9
:1011A000C01700001818002000050000BC0A00004D
:1011B00002120001027DF001027D7F010511135230
:1011C000C0010275000152FF01400AF03000C0DC8E
:1011D000DE1C00E001011932400801017F0301011A
:1011E00000CD10067F1E70701CD9000E217E634159
:1011F000416322003F604040603F773005183878F7
:10120000F801417F300DF1F00080FCFF7F03E0F03A
:10121000F1F19083F8F0A3100CF8080818B0E00082
:10122000E0A0E0C09F100AA0A000E80000E020209D
:10123000123004606060AA1006F018180818C11077
:1012400004602060232115600560F020C031000596
:10125000128020F06084201A030F1F3F1F0F0F071A
:101260000F1F7FFFE0C083838380C0C7F7FF7F3FEE
:101270001F159203284005020202030732000B11DA
:101280000D14070F0A0EC3C0C3B617C340BC200D10
:101290000183C2020303C0C3C2C203011E31035251
:1012A000033112030B061D020F180603071F3F3FF1
:1012B0002207286301BA140B1818141300001D101C
:1012C000101F941104421011019A01196802770746
:1012D0000149E8C9FA1006CF0F870FCF96520101D6
:1012E0006381810A0E55FF6A030D107A0321885429
:1012F0000D60201098C8C40407C82819062B016681
:1013000080980DFB797D3C9E128161D8261906F5E7
:101310000514001004F0F010011EF075031EF0B269
:1013200003F005C0603010191004C0E0300A1E3010
:101330007B032124011F801C0801007CFEFFFF0E9F
:101340007003BB83FE2B01127F1005809F9F9101CC
:1013500010049F8E800A20098383868C9890808257
:1013600001110F2012818181838F9C9080878F983B
:1013700090949C98BFA7241290010216808070124E
:101380001F9F9F1F1F9F1E1E9C9CA941A1111110F2
:101390009002110B01138002330101011580100C22
:1013A0007F404F4A454F424F47484806300840402B
:1013B000404F424D40101247160E557FEA05027706
:1013C000E0010226FF011C0B03F7EFF703FF07BB49
:1013D000BBBBB4033004FB03FB12B3DF031E500698
:1013E00003DBDBDBFB18211A0224035CFD1504027E
:1013F00011C70132C60441066005C7C6C6C612B190
:101400001E2101510C00061F070606C6C7013D82BA
:101410000455FB1C04427F403C071E609606501397
:10142000FFD9B6B6B6CDFFFEFE80FEFEFF81EEEE22
:10143000EE810C5006C0BFBFBFC01E051D30DD4C85
:1014400004011A26417F5C052010909012071F01AD
:1014500061510310042101F1061C0A11011111F15F
:10146000111101F1FE0432F1120A2761E0E16E0070
:101470000518F9F0F0F98010060685848404072D1C
:10148000EB0430098204040483000784121F808760
:10149000AD0312830C11121380800C4280064200AF
:1014A000040D20C6083D6403F004FDFDF914B500E9
:1014B000140A112424241B000030308B123F801D9D
:1014C000B1081007203F200000131822191415241A
:1014D00020061F2020201F1E0009280C33000304B3
:1014E000380403803FFFFF1C0906177F806C05C08E
:1014F000A090F89604200CF8102010F800F08888CE
:1015000088F00C2C0540F800F8F308500700F84864
:10151000484808181C09F0080808100008080909BC
:10152000310C112A000B104848C830003840804068
:10153000388072FE01F926628001228304628309E9
:10154000B1061E81510532810CB28012410E811EFE
:101550006104214F02208F0111260D910004011218
:101560000132060441061DDC03620612B11E210190
:1015700081240D3700042C07002649494932540BB9
:101580001D530B50067E1111117E0C1E3F11065289
:101590003F1E0D28C60B0D2F00041009FC9C6C6C1F
:1015A0006CDCFC0C06100CECFCECEC0CECECFC0C1D
:1015B000FCFC04211203239CFC017D5C0610137FBC
:1015C0003F3F3F070383C7C7C3E1E1C1C7C7838369
:1015D00007110E1B3F00041C0D1F9D1B1B1B9C1F96
:1015E000189B9B9B1B8D071E989207129C0C111237
:1015F0003E9F9E074106421F040115016D5C071FB7
:101600008F864F03B9F412FF9C0C0466848FCF00C1
:10161000041EF1630E300503070F8FAC1F9F8F452B
:101620000C0C056FB1F0F0F100044D02040D13260F
:10163000060DFF00040DFF0004DD00081F006022FE
:101640000B10042000F0061F1000C10B2C0410101A
:10165000007A0F32F0120E2E6046101D4F0F1C1034
:1016600087C7C3E3E1F1717171F1E1E3C3C7876338
:101670000F0D1B00041015E062E4E4E463E0E7648E
:101680006464E4E0E0606760E0E0630C11122DDC6C
:101690000F2DE10F210642E0040115016D00048EBB
:1016A00003FF031C04C08000500F2D0C071D020413
:1016B0000E19030008180FFFC0FBFBFBC0FFFFDF84
:1016C000C0DFFFFFEC5522E63E2D280B2005DFDFB3
:1016D000DFE01E0C0920F3CCFFFCFBC7FBFC8009FC
:1016E0001FFEF846104F0F1FCA0F500B7F7F7E3C26
:1016F0003C1E0F87C1E0940D6700085FFEFEB70532
:101700000DFF00080DFF00040D6E00040C1667FFAE
:101710007F7FBFBFDFCFEFF7F7FBFBF7F7E1FDC13F
:101720009FBF7F7F000C2006FDFC04F4150142F5ED
:1017300001410B0C05660404FCFD000C3E007B0718
:10174000198E1D55045E0386079DF9110D110008C1
:10175000200DFE06EEDEEE06FE0E7676760E0C1CF4
:1017600005BE06FE06C00B11061DFA0D52F6183016
:101770000C0EF6F6F6EEFEF6F606F6F60C112A84D8
:101780000DB6B636CEFEC6BE7EBEC6FEFE80ADF936
:101790000BED060C0D14000C1F8F8C9C03B28C06F5
:1017A00030068E8D8D8D8E0CB28F12410E811E6192
:1017B000040E288F00040004000000000000000058
:0400000500000101F5
:00000001FF
