:020000040000FA
:10000000200500200101000005010000070100009B
:1000100009010000090100000901000000000000C2
:1000200000000000000000000000000009010000C6
:1000300009010000000000000901000009010000A2
:100040000901000009010000090100000901000088
:100050000901000045080000090100000901000035
:100060000901000009010000090100000901000068
:100070000901000009010000090100000901000058
:100080000901000009010000090100000901000048
:100090000901000009010000090100000901000038
:1000A0000901000009010000090100000901000028
:1000B0000901000009010000090100000901000018
:1000C0000901000009010000090100000901000008
:1000D00009010000090100000901000009010000F8
:1000E00009010000090100000901000009010000E8
:1000F00009010000090100000901000009010000D8
:1001000000F004B8FEE7FEE7FEE70000DFF80CD0E1
:1001100000F01AF800480047990900002005002067
:10012000EFF3108072B67047EFF310807047EFF373
:10013000108062B6704730BF704780F311887047F7
:10014000EFF3118070470000064C074D06E0E068B1
:1001500040F0010394E8070098471034AC42F6D30E
:10016000FFF7D8FF8C0F0000AC0F00002DE9F04125
:10017000044608464FEAE17C01EB5C7C4FEAEC0C5C
:1001800004EBCC174FEAE17C01EB5C7C4FEAEC0C12
:10019000A1EBCC0C0CF0FF01202B2DDB7E2B2BDCFC
:1001A000A3F1200000EB80000244002522E0D6B23B
:1001B0001348C05D06FA01FC8CF0FF0C00EA0C004D
:1001C000DFF83CC00CF8070007F180001CF80000C5
:1001D000C1F1080C46FA0CFC8CF0FF0C00EA0C0094
:1001E000DFF81C8007F1800C08F80C007F1C521C03
:1001F000681CC5B2052DDADBA01DBDE8F08100004A
:100200001C0000202DE9F041044608464FEAE17C3D
:1002100001EB5C7C4FEAEC0C04EBCC174FEAE17C81
:1002200001EB5C7C4FEAEC0CA1EBCC0C0CF0FF0179
:10023000202B29DB7E2B27DCA3F1200000EB8000A4
:10024000024400251EE016781148C05D06FA01FC44
:1002500040EA0C00DFF838C00CF8070007F1800016
:100260001CF800C0C1F1080046FA00F04CEA000C8E
:10027000DFF81C8007F1800008F800C07F1C521CCA
:10028000681CC5B2052DDEDBA01DBDE8F0810000B5
:100290001C00002010B501221146044800F09AFA13
:1002A000FD220221014800F095FA10BD00D0034064
:1002B00010B5FE220121044800F08CFA02221146FA
:1002C000014800F087FA10BD00D0034010B50020AF
:1002D0002649086043E026480078802823D1002082
:1002E0002349087023480078401C224908700122E5
:1002F0001146214800F06EFA022211461E4800F015
:1003000069FA1C48007800F007001A49087008468E
:10031000007840F0B80008700846007800F0C4F893
:10032000402000F0C1F8124800783F2801DCFFF7B8
:10033000B1FF0F480078402801DBFFF7B9FF0F49F4
:100340000A4A1268885C00F0DBF809480078401C13
:100350000749087005480068401C044908600348C4
:100360000068B0F5806FB6D310BD00000800002013
:10037000000000200100002000D003401C000020ED
:1003800070B50446002611E000250BE024B1294693
:10039000304600F061F903E02946304600F04CF9A0
:1003A000681CC5B23F2DF1DD701CC6B27F2EEBDD9F
:1003B00070BD000010B5364800F014FA3448C03063
:1003C00000F010FA3248203800F00CFA304800F003
:1003D00009FA2F48C03000F005FA2D48C03000F06F
:1003E00001FA2B48403000F0FDF98021294800F047
:1003F000E3F92021284800F0DFF90221254800F028
:10040000DBF90421254800F0D7F90121234800F049
:10041000D3F90221214800F0CFF9FF21204800F054
:10042000CBF9042211461D4800F0D4F901221146EF
:100430001A4800F0CFF902221146184800F0CAF914
:10044000FD220221134800F0C5F9164800F09DFA7C
:10045000C02000F029F8134800F097FA402000F07F
:1004600023F8104800F091FAB82000F01DF80D486C
:1004700000F08BFA3F2000F017F8FE220121074818
:1004800000F0A8F9FD220221044800F0A3F910BDF4
:1004900040000020006002400050024000D00340B5
:1004A00000700240A086010010B50446DF22202122
:1004B0000F4800F08FF9802211460E4800F08AF9AB
:1004C0000D4804604FF0640000F05FFA0B48C0F87C
:1004D000FC43642000F059FA0848C0F8FC43C0F817
:1004E000FC437F228021034800F074F910BD000016
:1004F0000050024000600240FC7302400070024065
:1005000010B50446202211460E4800F063F98022FF
:1005100011460D4800F05EF90C4804604FF064008D
:1005200000F033FA0A48C0F8FC43642000F02DFACA
:10053000064804604FF07F024FF08001024800F04F
:1005400049F910BD0050024000600240FC730240B7
:10055000007002402DE9F04704460D4616461F463E
:10056000DDF82080B8F1000F20D0BA461AE00A204A
:10057000B6FBF0F100FB1160303000F0FF090A20FB
:10058000B6FBF0F6AAF1010101EB410104EB4101D8
:10059000C8B24B46184A2946FFF734FEAAF10100BB
:1005A00000F0FF0ABAF1000FE1DC1FE0BA461AE0E2
:1005B0000A20B6FBF0F100FB1160303000F0FF09BB
:1005C0000A20B6FBF0F6AAF1010101EB410104EBB0
:1005D0004101C8B24B46084A2946FFF7C7FDAAF1B8
:1005E000010000F0FF0ABAF1000FE1DC07EB470061
:1005F00004EB4000BDE8F0872C0B0000F0B504468A
:100600000D4616461F4610E037B13378094A294691
:100610002046FFF7F7FD05E03378064A29462046D5
:10062000FFF7A4FDA01DC4B2761C30780028EBD1E2
:100630002046F0BD2C0B000030B5CC1000EBC413ED
:1006400001F00702034CE45C01259540AC43014DE9
:10065000EC5430BD1C00002030B5CC1000EBC413AE
:1006600001F00702044CE55C012494402543ECB200
:10067000014DEC5430BD00001C000020D0F80034C7
:1006800012F0010F14BF0B438B43C0F8003412F07B
:10069000020FD0F8202414BF114322EA0101C0F850
:1006A00020147047D0F800C512F0010F14BF4CEAB7
:1006B000010C2CEA010CC0F800C5D0F804C512F0FA
:1006C000020F14BF4CEA010C2CEA010CC0F804C55F
:1006D000D0F808C512F0040F14BF4CEA010C2CEA44
:1006E000010CC0F808C512F0080FD0F8182514BF87
:1006F0000A438A43C0F81825D0F80C2513F0010FDF
:1007000014BF0A438A43C0F80C25D0F8102513F013
:10071000020F14BF0A438A43C0F81025D0F81425ED
:1007200013F0040F14BF0A438A43C0F81425D0F80D
:100730001C2513F0080F14BF0A438A43C0F81C2578
:10074000D0F82825002B0CBF114322EA0101C0F884
:10075000281570470F4AC0F30741D26E01238B4022
:100760001A420D4A1ABF02EBC1014A6852F8312001
:10077000C0F3072102F22C53D2F82C254FF00F0CB6
:100780000CFA01FC00F00F0022EA0C028840104332
:100790001860704700E00F40340D000030B504468B
:1007A0000D460022FFF76AFF29462046BDE830408B
:1007B00008230122FFF776BF30B504460D46082313
:1007C0000122FFF76FFF29462046BDE83040012295
:1007D000FFF754BF40F82120704710B5FFF7A7FC82
:1007E000C0B210BD4FF0704181430CD00F49020FD1
:1007F00051F822100A6883B2C0F3044003FA00F0F3
:10080000104308607047C0F307230949C0B2194478
:1008100001F07043C1F3130143EA411141EA800042
:1008200040F000700122026070470000C80D000017
:1008300000E60F40816911F0100F0CBF00684FF007
:10084000FF30704770B54FF0807040690121C26C75
:100850002348904705464FF0807040692946026D55
:100860001F48904733E01E48FFF7E4FF46280DD0AD
:10087000482812D0502802D053281CD114E07F22DF
:1008800080214FF04020FFF7A5FF14E080221146A1
:100890004FF04020FFF79EFF0DE0802211464FF001
:1008A0004020FFF797FF06E0802211464FF04020DE
:1008B000FFF790FF00BF00BF0948FFF7BBFFC4B2BE
:1008C0004FF0807040692146C26B064890474FF058
:1008D00080704069C16A024888470028C3D170BD52
:1008E00000C0004000D0004010B504464FF416513F
:1008F000204600F001F810BD2DE9F04104460D46F8
:10090000184A52F824004FF08072526C11698847DF
:1009100008B9BDE8F08113480C3850F8240012499A
:100920000860104A52F824004FF08072526C9169AE
:1009300088474FF08071496C086E804707464FF03A
:100940008070406960232A46394646690648006837
:10095000B0474FF080704069C1690348006888471C
:10096000D7E70000280D00001400002002E008C8AE
:10097000121F08C1002AFAD170477047002001E019
:1009800001C1121F002AFBD1704700BF0100A0F176
:100990000100FBD17047000038B500BF4FF08070F8
:1009A000406CC16D534888474FF08070406C81693E
:1009B000514888474FF08070406C81694E48C01D97
:1009C000884780214FF04020FFF7F6FE0120FFF717
:1009D000C1FE40F20140FFF7BDFE4848FFF7BAFEF6
:1009E0004748FFF7B7FE4FF08070406C816942487E
:1009F000C01C8847F0214348FFF7DEFE4FF08070AF
:100A0000406C81693C480F3088470F213E48FFF712
:100A1000C5FE0A2301220F213B48FFF743FE4FF09A
:100A20008070406C8169394888474FF08070406C15
:100A300081693648401C8847FFF7CFFE4FF0807031
:100A4000006A0321426D4FF0402090474FF08070C4
:100A5000006A0C21426D2E4890474FF08071496C1E
:100A6000086E804705464FF08070406960234FF460
:100A70001652294644692748A0474FF08071496CB7
:100A8000086E804705464FF08070406960234FF440
:100A90001652294644692048A0470120FFF724FF49
:100AA0004FF08070806C0168152088474FF080708F
:100AB00040695021426C174890474FF08070406960
:100AC0005021426C14489047FFF774FC0020FFF758
:100AD00057FC012311A200210846FFF78FFD0123D7
:100AE000032200213C200093FFF734FDFFF7EEFBCB
:100AF00000BFFEE7513D8007010000200108030010
:100B0000010C0300006000400040024001000010A2
:100B10000070004000C0004000D000406C657520AF
:100B20006C65752062652054687500000000000047
:100B30000000004F00000007000700147F147F141E
:100B4000242A7F2A12231308646236495522500052
:100B500005030000001C2241000041221C00140873
:100B60003E081408083E0808005030000008080835
:100B70000808006060000020100804023E5149454A
:100B80003E00427F400042615149462141454B3180
:100B90001814127F1027454545393C4A4949300110
:100BA000710905033649494936064949291E003667
:100BB00036000000563600000008142241141414B8
:100BC00014144122140800020159050232497941E6
:100BD0003E7E1111117E7F494949363E41414122F5
:100BE0007F4141221C7F494949417F090909013E52
:100BF0004141497A7F0808087F00417F4100204039
:100C0000413F017F081422417F404040407F020C59
:100C1000027F7F0408107F3E4141413E7F09090960
:100C2000063E4151215E7F0919294646494949310D
:100C300001017F01013F4040403F1F2040201F3FF6
:100C40004030403F6314081463070870080761517F
:100C5000494543007F414100020408102000414102
:100C60007F000402010204404040404000010204B1
:100C70000020545454787F48444438384444442035
:100C8000384444487F3854545418087E0901020CF3
:100C90005252523E7F0804047800447D40002040B8
:100CA000443D007F1028440000417F40007C047CCC
:100CB00004787C0804047838444444387C141414C0
:100CC00008081414147C7C08040408485454542064
:100CD000043F4440203C4040207C1C2040201C3CE1
:100CE0004030403C44281028440C5050503C446450
:100CF000544C44000836410000007F00000041369B
:100D00000800100810080055333231443635343CA1
:100D100039383740433054FF780F000000C000409E
:100D200000D0004000E00040010000100200001070
:100D300004000010004000400080054000500040CA
:100D4000009005400060004000A005400070004099
:100D500000B005400040024000C005400050024085
:100D600000D005400060024000E0054000700240F5
:100D700000F0054000D0034000000640001006408F
:100D800000100640002006400020064000300640CB
:100D9000003006400040064000400640005006403B
:100DA00000500640006006400060064010E00F4022
:100DB00014E00F401CE00F4010E00F4040E00F40F7
:100DC00044E00F4048E00F4000E10F4004E10F40D5
:100DD00008E10F4010E10F4014E10F4018E10F400F
:100DE00020E10F4024E10F4028E10F4040420F0076
:100DF00000201C0080841E0000802500999E360083
:100E00000040380000093D0000803E0000004B001B
:100E1000404B4C0000204E00808D5B0000C05D0008
:100E20000080700000127A0000007D00809698001B
:100E3000001BB7000080BB00C0E8CE00647ADA0077
:100E40000024F4000000FA0080A81201002D3101F6
:100E500000366E0140787D0101001000003800F07E
:100E600002001000013800F000011000003400F012
:100E700000021000013400F000041000023400F001
:100E800000011010003C00F000021010003C00F0C7
:100E900000041010003C00F001000020000800F0E9
:100EA00002000020010800F004000020020800F009
:100EB00008000020030800F010000020040800F0E3
:100EC00020000020050800F040000020060800F087
:100ED00080000020070800F000010020080800F052
:100EE00040000000001400F000100010002000F08E
:100EF00000400010012000F010001000004000F041
:100F000000010010004400F000020010014400F055
:100F100010000010001C00F020000010011C00F068
:100F200001001010000400F002001010010400F095
:100F300004001010020400F008001010030400F078
:100F400001000010001800F002000010011800F06D
:100F500004000010021800F000200020000C00F037
:100F600001001020002800F008000000000000F040
:100F700000101000010000F03031323334353637C4
:100F8000383961626364656600000000AC0F0000E0
:100F9000000000201C0000006C090000C80F0000C9
:100FA0001C000020040500007C0900000000000077
:100FB0000000000000000000000000000000000031
:080FC000000000000000000029
:0400000500000101F5
:00000001FF
