:020000040000FA
:10000000800100200101000005010000070100003F
:1000100009010000090100000901000000000000C2
:1000200000000000000000000000000009010000C6
:1000300009010000000000000901000009010000A2
:10004000110300000901000009010000090100007E
:100050000901000009010000090100000901000078
:100060000901000009010000090100000901000068
:100070000901000009010000090100000901000058
:100080000901000009010000090100004F03000000
:10009000F10300000901000009010000090100004E
:1000A0000901000009010000090100000901000028
:1000B0000901000009010000090100000901000018
:1000C0000901000009010000090100000901000008
:1000D00009010000090100000901000009010000F8
:1000E00009010000090100000901000009010000E8
:1000F00009010000090100000901000009010000D8
:1001000000F004B8FEE7FEE7FEE70000DFF80CD0E1
:1001100000F0A4FA004800475101000080010020CF
:100120000138FDD170470000EFF3108072B67047C0
:10013000EFF310807047EFF3108062B6704730BF66
:10014000704780F311887047EFF31180704700000B
:1001500070B52048006880B2022804BF1B2000F060
:1001600053FD1D4800F0AAFC00F076FB00F08EFB6A
:10017000014660234FF41652002000F0A8F91748FA
:1001800000F0DEF90A21002000F04BFA0D210020DA
:1001900000F047FA124D0024295D002000F041FADA
:1001A000641C182CF8D30A21002000F03AFA0D2123
:1001B000002000F036FA0D21002000F032FA002075
:1001C00000F0FDF90028C2BFC1B2002000F029FAFA
:1001D000F1E7000000E00F40513D800700000340C0
:1001E000DE0C0000F94A0346116A0020082928BFE6
:1001F00070479069491C40F8043B1162F4499061D2
:10020000884204BFF348906101207047EF4A106AAA
:10021000002808BF7047D169401E091DD1611062D6
:10022000EB48814204BFEB48D06170470346002091
:10023000E64A5169082928BF7047D068491C40F830
:10024000043B5161E349D060884204BFE248D0607A
:1002500001207047DD4B4FF0FF305969002908BF7E
:1002600070471A69491E52F8040B1A615961D9493D
:100270008A4204BFD8491961704770B50824D7482D
:1002800000F0C8FCD64D0821284600F0A1FA08224B
:100290001146284600F0AAFA0421284600F08AFAFE
:1002A0000421284600F07FFA00220421284600F0AD
:1002B000FBF9C648047070BD70B50546C948C34C0B
:1002C000C068B5FBF0F0A0624008E062C64800F0EC
:1002D000A1FC2021232000F0C5FA1021242000F0E9
:1002E000C1FAC34EC149304600F0BCFCFF21304684
:1002F000A26A00F0DCFCBF48E16AB5FBF0F00A1A24
:100300004FF47F41304600F0D2FC0020607070BD99
:10031000B349D1F8180410F0040F08BF7047D1F8A2
:10032000100420F00400C1F810040420C1F81C04DB
:10033000A64801218170816AC06A0844A0F1C80101
:10034000AB48C162C16841F48071C160704700B5BB
:10035000A749012048629D48A14A0178116240786E
:100360000C2828BF00BDDFE800F006111111111E96
:100370001E1E1E11303D9548016A002908BF00BDB0
:100380000021017001214162417000BD8F4BD9698C
:100390000A68596A0A4018BF08221A704900401CAE
:1003A0005962587000BD894BD9695A6A0968114071
:1003B00018BF082119708B49496881421DBF51003F
:1003C000401C59620A20587000BD804B08201870EC
:1003D0008448007A002818BF0B20F4D1FFF716FFDD
:1003E0000020F0E7FFF712FF78490020487000BDB9
:1003F00010B4DFF8FCC14FF48071CCF82410734ABC
:1004000000249078012805D1CCF82410916ACCF80A
:100410002C109460724909690C2824BF10BC7047E5
:10042000DFE800F021060606061111111106234D22
:1004300000291EBF411E012303FA01F19368401CED
:10044000194491600EE000291EBF411E012303FAEA
:1004500001F193681944916062494968814214BF6F
:10046000401C0A20907010BC7047002904BF10BCCB
:1004700070475C48007A002818BF0B20F2D1506901
:10048000936808280AD2D168401C41F8043BD16027
:1004900050615048814204BF4F48D060DCF80C00E6
:1004A00020F48070CCF80C005348016841F004013E
:1004B00001604FF00401C160947010BC70470029C6
:1004C00018BF947010BC704740494860704770B5C1
:1004D000DFF810C10846CCF80C20C3F34112521DBE
:1004E000CCF80420C3F3C0028CF80820FFF7E4FE28
:1004F000364C3848E06100212162A061203820613B
:100500006161E0600825354800F084FB344E082125
:10051000304600F05DF908221146304600F066F9D9
:100520000421304600F046F90421304600F03BF942
:1005300000220421304600F0B7F8257070BD7047E6
:1005400010B5232000F056F9242000F053F9284C70
:100550000121204600F0A7FBA115204600F0A3FBD7
:10056000FF21204600F098FBFF211D4800F011F903
:10057000BDE81040132000F03DB910B5184C04211F
:10058000204600F009F90421204600F002F9184C39
:10059000FF21204600F078FB2046BDE810404FF4D4
:1005A0007F4100F071BB09484069002818BF012055
:1005B00070470648006A083818BF0120704749E6AE
:1005C000024840690028FDD044E6000000000020F9
:1005D0008000002060000020400000200800002073
:1005E00000700040300000200100101022220004A2
:1005F0000000034040420F0010740040144B0020E4
:100600001A6A082A28BF7047986940F8041B511CD1
:10061000196210499861884204BF0F48986101200F
:10062000704710B40C4C0A4B04F1200C1A6A0020DD
:10063000082A09D29869521C40F8041B1A62986172
:10064000604508BF9C6101200028EFD010BC7047B6
:10065000000000208000002060000020064C074DB4
:1006600006E0E06840F0010394E807009847103482
:10067000AC42F6D3FFF74EFDD00F0000F00F0000A4
:10068000D0F8003412F0010F14BF0B438B43C0F8B5
:10069000003412F0020FD0F8202414BF114322EAD4
:1006A0000101C0F820147047D0F8083412F0010F8F
:1006B00014BF0B438B43C0F80834D0F8043412F055
:1006C000020F14BF0B438B43C0F8043412F0040F25
:1006D000D0F80C2414BF114322EA0101C0F80C1415
:1006E0007047D0F800C512F0010F14BF4CEA010C9E
:1006F0002CEA010CC0F800C5D0F804C512F0020FB6
:1007000014BF4CEA010C2CEA010CC0F804C5D0F867
:1007100008C512F0040F14BF4CEA010C2CEA010CBE
:10072000C0F808C512F0080FD0F8182514BF0A4306
:100730008A43C0F81825D0F80C2513F0010F14BF18
:100740000A438A43C0F80C25D0F8102513F0020F95
:1007500014BF0A438A43C0F81025D0F8142513F0BB
:10076000040F14BF0A438A43C0F81425D0F81C258F
:1007700013F0080F14BF0A438A43C0F81C25D0F8B1
:100780002825002B0CBF114322EA0101C0F82815CF
:100790007047C0F81C14704700F58262D0F810044E
:1007A00088431060704700F58262D0F81004084357
:1007B0001060704730B504460D460022FFF760FF19
:1007C00029462046BDE8304008230122FFF789BFB3
:1007D00030B504460D4608230122FFF782FF294663
:1007E0002046BDE830400122FFF74ABF40F82120F3
:1007F000704700001649042804BF086840F48030A0
:1008000018D0052804BF086840F4003012D006282C
:1008100012D00F2815D0102838BF7047103800F0BC
:100820001F01012202FA01F142090A4850F8220090
:100830000160704708607047086840F480200860D5
:1008400070474FF0E020016941F0020101617047FB
:1008500024ED00E0B40D000010B5FFF76CFCC0B251
:1008600010BD0000084A20F00303D2581368800727
:10087000C00E4FF0FF0C0CFA00FC23EA0C0301FA47
:1008800000F0184310607047180D0000DFF800C238
:1008900030B4DCF86020DCF8701011F0004F14BFA9
:1008A00001F0700002F030007A4C302808BF47F2A7
:1008B000305065D007DA98B1774D784B102816D0B4
:1008C00020280AD138E0602808BF4FF4800057D0B4
:1008D000702808BF4FF4004052D030BC0020704751
:1008E0006F4B02F4F86003EB1010006848E0DCF88E
:1008F000000010F0E04F1BD0DCF800002040B0F109
:10090000805F15D0DCF800002040A84204D1DCF85C
:10091000000080B202280DD0DCF800002040984290
:1009200004D1DCF800000004000C03D05D4827E08F
:100930005D4825E05D4823E0DCF8000010F0E04F62
:100940001BD0DCF800002040B0F1805F15D0DCF84F
:1009500000002040A84204D1DCF8000080B2022848
:100960000DD0DCF800002040984204D1DCF80000F3
:100970000004000C03D04E4802E04E4800E04E4810
:1009800011F0004F02D011F4006F05D001F00043C8
:1009900002F400652B4345D1DCF800302340A3F17D
:1009A0008055B5F5A0251AD1DCF86031DCF864C1BA
:1009B0000CF01F04CCF3042C641C0CF1010C04FBA0
:1009C0000CFC4FEA4C0CB0FBFCF0C3F3090C0CFB25
:1009D00000FCC3F3892358430CEB902020E0DCF8A3
:1009E0006430DCF8005015F0E04F36D0DCF800C081
:1009F0000CEA040CBCF1805F2FD04FEAC36C4FEAC5
:100A00009C6CC3F348140CF1020C6043B0FBFCF087
:100A100013F4804F18BF400813F4004F18BF80082C
:100A200042F4800212F4800F04BF30BC704711F012
:100A3000004F25D011F0804F08D011F4006F17D06F
:100A400001F0004302F400621A4311D0C1F3C55112
:100A5000491CB0FBF1F030BC7047C3F3481C0CF1EB
:100A6000020C00FB0CF003F01F0C0CF1020CCDE7A4
:100A70004000C1F38651491CB0FBF1F030BC704717
:100A8000C2F3C351491CB0FBF1F030BC7047000009
:100A900000E00F400000FF70000001100000031094
:100AA000440E00000024F400C0E1E400001BB70085
:100AB00000093D0070383900C0C62D002DE9F04115
:100AC0004C4F0446386810F0E04F05D038684A496A
:100AD0000840B0F1805F04D114F0004F18BFBDE8AA
:100AE000F081396E386F21F4800141F4006540F4E3
:100AF00000663D663E6715F0020F02D014F0020F4B
:100B000004D025EA040010F0010F15D064F00300B2
:100B100005403D6616F0004F07D006F07000302803
:100B200053D07020B04350D002E03020A8434CD0C6
:100B30004FF40020FFF7F4FA25F4FE6004F4FE61A0
:100B400041EA00052D4926F0700020F000402140C8
:100B5000084304F0080140EAC1063D663E671020E4
:100B6000FFF7DEFA25F4405004F44051014326F427
:100B7000005004F4005210434022BA6510F0004FB8
:100B800008BF3966386718BF396621F003011C4A6F
:100B900021F0F8612240114320F0FC5004F0FC5297
:100BA000104314F0804F08BF20F0804206D0154A51
:100BB00020F48000224041F48001024314F4006FCD
:100BC00008BF4FF4004003D00CE04FF48050B1E771
:100BD0003B6D13F0400F01D1401EF9D121F40061AB
:100BE00022F4006239663A67BDE8F0411020FFF751
:100BF00097BA000000E00F400000FF703000008056
:100C00000300C007000040400149486370470000EE
:100C100000E00F404FF0704181430CD00F49020FAC
:100C200051F822100A6883B2C0F3044003FA00F0BE
:100C3000104308607047C0F307230949C0B2194444
:100C400001F07043C1F3130143EA411141EA80000E
:100C500040F000700122026070470000200E00008A
:100C600000E60F40C26822F0010222F48072C260E6
:100C70000A0E0260CAB242F400724260C1F3072158
:100C800041F4007181607047C26840F2011319405D
:100C900022EA0101C1607047C26840F201131940A5
:100CA0001143C1607047826911438161704711F03F
:100CB000FF0F18BF826211F47F4F18BFC2627047E6
:100CC00002E008C8121F08C1002AFAD17047704715
:100CD000002001E001C1121F002AFBD170474265CC
:100CE00020517579656E206E686F206265205468AA
:100CF00075206C656D000000000700000006000014
:100D000000050000000400000003000000020000D5
:100D100000010000000000000000000018ED00E0ED
:100D20001CED00E020ED00E000E400E004E400E061
:100D300008E400E00CE400E010E400E014E400E06B
:100D400018E400E01CE400E020E400E024E400E01B
:100D500028E400E02CE400E030E400E034E400E0CB
:100D600038E400E03CE400E040E400E044E400E07B
:100D700048E400E04CE400E050E400E054E400E02B
:100D800058E400E05CE400E060E400E064E400E0DB
:100D900068E400E06CE400E070E400E074E400E08B
:100DA00078E400E07CE400E080E400E084E400E03B
:100DB00088E400E000E100E004E100E008E100E098
:100DC0000CE100E010E100E080E100E084E100E0FF
:100DD00088E100E08CE100E090E100E000E200E06A
:100DE00004E200E008E200E00CE200E010E200E0D3
:100DF00080E200E084E200E088E200E08CE200E0D3
:100E000090E200E010E00F4014E00F401CE00F40C3
:100E100010E00F4040E00F4044E00F4048E00F403A
:100E200000E10F4004E10F4008E10F4010E10F40E6
:100E300014E10F4018E10F4020E10F4024E10F4082
:100E400028E10F4040420F0000201C0080841E005B
:100E500000802500999E36000040380000093D00C2
:100E600000803E0000004B00404B4C0000204E0034
:100E7000808D5B0000C05D000080700000127A0071
:100E800000007D0080969800001BB7000080BB002A
:100E9000C0E8CE00647ADA000024F4000000FA0012
:100EA00080A81201002D310100366E0140787D01CD
:100EB00001001000003800F002001000013800F0BE
:100EC00000011000003400F000021000013400F0B6
:100ED00000041000023400F000011010003C00F08B
:100EE00000021010003C00F000041010003C00F064
:100EF00001000020000800F002000020010800F0BE
:100F000004000020020800F008000020030800F0A0
:100F100010000020040800F020000020050800F068
:100F200040000020060800F080000020070800F0C4
:100F300000010020080800F040000000001400F04C
:100F400000100010002000F000400010012000F010
:100F500010001000004000F000010010004400F0FC
:100F600000020010014400F010000010001C00F00E
:100F700020000010011C00F001001010000400F01F
:100F800002001010010400F004001010020400F030
:100F900008001010030400F001000010001800F019
:100FA00002000010011800F004000010021800F008
:100FB00000200020000C00F001001020002800F0AC
:100FC00008000000000000F000101000010000F018
:100FD000F00F00000000002030000000C00C0000F6
:100FE000201000003000002050010000D00C000054
:100FF00001000000000000000000000000000000F0
:1010000000000000000000000000000000000000E0
:1010100000000000000000000000000000000000D0
:0400000500000101F5
:00000001FF
